{
  "contractName": "DkargoService",
  "abi": [
    {
      "inputs": [],
      "stateMutability": "nonpayable",
      "type": "constructor"
    },
    {
      "anonymous": false,
      "inputs": [
        {
          "indexed": true,
          "internalType": "address",
          "name": "company",
          "type": "address"
        }
      ],
      "name": "CompanyRegistered",
      "type": "event"
    },
    {
      "anonymous": false,
      "inputs": [
        {
          "indexed": true,
          "internalType": "address",
          "name": "company",
          "type": "address"
        }
      ],
      "name": "CompanyUnregistered",
      "type": "event"
    },
    {
      "anonymous": false,
      "inputs": [
        {
          "indexed": true,
          "internalType": "address",
          "name": "addr",
          "type": "address"
        },
        {
          "indexed": false,
          "internalType": "uint256",
          "name": "value",
          "type": "uint256"
        }
      ],
      "name": "IncentiveUpdated",
      "type": "event"
    },
    {
      "anonymous": false,
      "inputs": [
        {
          "indexed": true,
          "internalType": "address",
          "name": "order",
          "type": "address"
        },
        {
          "indexed": false,
          "internalType": "uint256",
          "name": "id",
          "type": "uint256"
        }
      ],
      "name": "OrderCreated",
      "type": "event"
    },
    {
      "anonymous": false,
      "inputs": [
        {
          "indexed": true,
          "internalType": "address",
          "name": "order",
          "type": "address"
        },
        {
          "indexed": true,
          "internalType": "address",
          "name": "from",
          "type": "address"
        },
        {
          "indexed": true,
          "internalType": "address",
          "name": "to",
          "type": "address"
        },
        {
          "indexed": false,
          "internalType": "uint256",
          "name": "transportid",
          "type": "uint256"
        }
      ],
      "name": "OrderTransferred",
      "type": "event"
    },
    {
      "anonymous": false,
      "inputs": [
        {
          "indexed": true,
          "internalType": "address",
          "name": "old",
          "type": "address"
        },
        {
          "indexed": true,
          "internalType": "address",
          "name": "expected",
          "type": "address"
        }
      ],
      "name": "OwnershipTransferred",
      "type": "event"
    },
    {
      "anonymous": false,
      "inputs": [
        {
          "indexed": true,
          "internalType": "address",
          "name": "addr",
          "type": "address"
        },
        {
          "indexed": false,
          "internalType": "uint256",
          "name": "value",
          "type": "uint256"
        },
        {
          "indexed": false,
          "internalType": "uint256",
          "name": "rests",
          "type": "uint256"
        }
      ],
      "name": "Settled",
      "type": "event"
    },
    {
      "inputs": [],
      "name": "getDkargoPrefix",
      "outputs": [
        {
          "internalType": "string",
          "name": "",
          "type": "string"
        }
      ],
      "stateMutability": "view",
      "type": "function"
    },
    {
      "inputs": [],
      "name": "isOwner",
      "outputs": [
        {
          "internalType": "bool",
          "name": "",
          "type": "bool"
        }
      ],
      "stateMutability": "view",
      "type": "function"
    },
    {
      "inputs": [],
      "name": "owner",
      "outputs": [
        {
          "internalType": "address",
          "name": "",
          "type": "address"
        }
      ],
      "stateMutability": "view",
      "type": "function"
    },
    {
      "inputs": [
        {
          "internalType": "bytes4",
          "name": "infcid",
          "type": "bytes4"
        }
      ],
      "name": "supportsInterface",
      "outputs": [
        {
          "internalType": "bool",
          "name": "",
          "type": "bool"
        }
      ],
      "stateMutability": "view",
      "type": "function"
    },
    {
      "inputs": [
        {
          "internalType": "address",
          "name": "expected",
          "type": "address"
        }
      ],
      "name": "transferOwnership",
      "outputs": [],
      "stateMutability": "nonpayable",
      "type": "function"
    },
    {
      "inputs": [
        {
          "internalType": "address",
          "name": "order",
          "type": "address"
        },
        {
          "internalType": "address",
          "name": "reporter",
          "type": "address"
        }
      ],
      "name": "approveOrderCreate",
      "outputs": [],
      "stateMutability": "nonpayable",
      "type": "function"
    },
    {
      "inputs": [
        {
          "internalType": "address",
          "name": "order",
          "type": "address"
        },
        {
          "internalType": "address",
          "name": "reporter",
          "type": "address"
        },
        {
          "internalType": "uint256",
          "name": "transportid",
          "type": "uint256"
        }
      ],
      "name": "approveOrderUpdate",
      "outputs": [],
      "stateMutability": "nonpayable",
      "type": "function"
    },
    {
      "inputs": [
        {
          "internalType": "address",
          "name": "order",
          "type": "address"
        }
      ],
      "name": "markOrderPayed",
      "outputs": [],
      "stateMutability": "nonpayable",
      "type": "function"
    },
    {
      "inputs": [
        {
          "internalType": "address",
          "name": "company",
          "type": "address"
        }
      ],
      "name": "register",
      "outputs": [],
      "stateMutability": "nonpayable",
      "type": "function"
    },
    {
      "inputs": [
        {
          "internalType": "address",
          "name": "company",
          "type": "address"
        }
      ],
      "name": "unregister",
      "outputs": [],
      "stateMutability": "nonpayable",
      "type": "function"
    },
    {
      "inputs": [
        {
          "internalType": "address",
          "name": "addr",
          "type": "address"
        }
      ],
      "name": "settle",
      "outputs": [],
      "stateMutability": "nonpayable",
      "type": "function"
    },
    {
      "inputs": [
        {
          "internalType": "address",
          "name": "company",
          "type": "address"
        }
      ],
      "name": "degree",
      "outputs": [
        {
          "internalType": "uint256",
          "name": "",
          "type": "uint256"
        }
      ],
      "stateMutability": "view",
      "type": "function"
    },
    {
      "inputs": [
        {
          "internalType": "address",
          "name": "addr",
          "type": "address"
        }
      ],
      "name": "incentives",
      "outputs": [
        {
          "internalType": "uint256",
          "name": "",
          "type": "uint256"
        },
        {
          "internalType": "uint256",
          "name": "",
          "type": "uint256"
        }
      ],
      "stateMutability": "view",
      "type": "function"
    },
    {
      "inputs": [
        {
          "internalType": "address",
          "name": "company",
          "type": "address"
        }
      ],
      "name": "isMember",
      "outputs": [
        {
          "internalType": "bool",
          "name": "",
          "type": "bool"
        }
      ],
      "stateMutability": "view",
      "type": "function"
    },
    {
      "inputs": [
        {
          "internalType": "address",
          "name": "order",
          "type": "address"
        }
      ],
      "name": "isPayed",
      "outputs": [
        {
          "internalType": "bool",
          "name": "",
          "type": "bool"
        }
      ],
      "stateMutability": "view",
      "type": "function"
    },
    {
      "inputs": [],
      "name": "firstCompany",
      "outputs": [
        {
          "internalType": "address",
          "name": "",
          "type": "address"
        }
      ],
      "stateMutability": "view",
      "type": "function"
    },
    {
      "inputs": [],
      "name": "lastCompany",
      "outputs": [
        {
          "internalType": "address",
          "name": "",
          "type": "address"
        }
      ],
      "stateMutability": "view",
      "type": "function"
    },
    {
      "inputs": [],
      "name": "companyCount",
      "outputs": [
        {
          "internalType": "uint256",
          "name": "",
          "type": "uint256"
        }
      ],
      "stateMutability": "view",
      "type": "function"
    },
    {
      "inputs": [
        {
          "internalType": "address",
          "name": "company",
          "type": "address"
        }
      ],
      "name": "nextCompany",
      "outputs": [
        {
          "internalType": "address",
          "name": "",
          "type": "address"
        }
      ],
      "stateMutability": "view",
      "type": "function"
    },
    {
      "inputs": [
        {
          "internalType": "address",
          "name": "company",
          "type": "address"
        }
      ],
      "name": "prevCompany",
      "outputs": [
        {
          "internalType": "address",
          "name": "",
          "type": "address"
        }
      ],
      "stateMutability": "view",
      "type": "function"
    },
    {
      "inputs": [],
      "name": "firstRecipient",
      "outputs": [
        {
          "internalType": "address",
          "name": "",
          "type": "address"
        }
      ],
      "stateMutability": "view",
      "type": "function"
    },
    {
      "inputs": [],
      "name": "lastRecipient",
      "outputs": [
        {
          "internalType": "address",
          "name": "",
          "type": "address"
        }
      ],
      "stateMutability": "view",
      "type": "function"
    },
    {
      "inputs": [],
      "name": "recipientCount",
      "outputs": [
        {
          "internalType": "uint256",
          "name": "",
          "type": "uint256"
        }
      ],
      "stateMutability": "view",
      "type": "function"
    },
    {
      "inputs": [
        {
          "internalType": "address",
          "name": "recipient",
          "type": "address"
        }
      ],
      "name": "nextRecipient",
      "outputs": [
        {
          "internalType": "address",
          "name": "",
          "type": "address"
        }
      ],
      "stateMutability": "view",
      "type": "function"
    },
    {
      "inputs": [
        {
          "internalType": "address",
          "name": "recipient",
          "type": "address"
        }
      ],
      "name": "prevRecipient",
      "outputs": [
        {
          "internalType": "address",
          "name": "",
          "type": "address"
        }
      ],
      "stateMutability": "view",
      "type": "function"
    },
    {
      "inputs": [
        {
          "internalType": "uint256",
          "name": "id",
          "type": "uint256"
        }
      ],
      "name": "orders",
      "outputs": [
        {
          "internalType": "address",
          "name": "",
          "type": "address"
        }
      ],
      "stateMutability": "view",
      "type": "function"
    },
    {
      "inputs": [],
      "name": "orderCount",
      "outputs": [
        {
          "internalType": "uint256",
          "name": "",
          "type": "uint256"
        }
      ],
      "stateMutability": "view",
      "type": "function"
    }
  ],
  "bytecode": "0x60806040523480156200001157600080fd5b506000805460405133926001600160a01b03909216917f8be0079c531659141344cd1fd0a4f28419497f9722a3daafe3b4186f6b6457e091a3600080546001600160a01b03191633179055620000877f01ffc9a700000000000000000000000000000000000000000000000000000000620000f7565b60408051808201909152600781527f73657276696365000000000000000000000000000000000000000000000000006020820152620000c690620001c9565b620000f17f946edbed00000000000000000000000000000000000000000000000000000000620000f7565b6200027e565b7fffffffff0000000000000000000000000000000000000000000000000000000080821614156200018957604080517f08c379a000000000000000000000000000000000000000000000000000000000815260206004820152601c60248201527f4552433136353a20696e76616c696420696e7465726661636520696400000000604482015290519081900360640190fd5b7fffffffff00000000000000000000000000000000000000000000000000000000166000908152600160208190526040909120805460ff19169091179055565b8051620001de906002906020840190620001e2565b5050565b828054600181600116156101000203166002900490600052602060002090601f016020900481019282601f106200022557805160ff191683800117855562000255565b8280016001018555821562000255579182015b828111156200025557825182559160200191906001019062000238565b506200026392915062000267565b5090565b5b8082111562000263576000815560010162000268565b611af5806200028e6000396000f3fe608060405234801561001057600080fd5b50600436106101a95760003560e01c80638da5cb5b116100f9578063ba79251f11610097578063e003f2cf11610071578063e003f2cf146104be578063e41a6c38146104e4578063e58b4ac21461050a578063f2fde38b14610540576101a9565b8063ba79251f14610480578063c6664ec3146104ae578063d23ee66b146104b6576101a9565b8063946edbed116100d3578063946edbed146103b8578063a230c52414610435578063a85c38ef1461045b578063b67f0ae414610478576101a9565b80638da5cb5b146103a05780638e75dd47146103a85780638f32d59b146103b0576101a9565b806335b6eaea116101665780634affa380116101405780634affa380146102ef5780635b042dc9146103155780636a256b291461033b578063774e900b14610361576101a9565b806335b6eaea1461027d57806335e646ea146102a35780634420e486146102c9576101a9565b806301ffc9a7146101ae578063159f5dca146101e957806322eabb8e1461022b5780632453ffa8146102455780632852d0201461024d5780632ec2c24614610255575b600080fd5b6101d5600480360360208110156101c457600080fd5b50356001600160e01b031916610566565b604080519115158252519081900360200190f35b61020f600480360360208110156101ff57600080fd5b50356001600160a01b0316610585565b604080516001600160a01b039092168252519081900360200190f35b610233610598565b60408051918252519081900360200190f35b6102336105a9565b61020f6105af565b61027b6004803603602081101561026b57600080fd5b50356001600160a01b03166105bb565b005b6101d56004803603602081101561029357600080fd5b50356001600160a01b0316610645565b61027b600480360360208110156102b957600080fd5b50356001600160a01b0316610663565b61027b600480360360208110156102df57600080fd5b50356001600160a01b03166106cf565b61020f6004803603602081101561030557600080fd5b50356001600160a01b0316610759565b6102336004803603602081101561032b57600080fd5b50356001600160a01b0316610766565b61027b6004803603602081101561035157600080fd5b50356001600160a01b0316610781565b6103876004803603602081101561037757600080fd5b50356001600160a01b0316610856565b6040805192835260208301919091528051918290030190f35b61020f610879565b610233610888565b6101d5610894565b6103c06108a5565b6040805160208082528351818301528351919283929083019185019080838360005b838110156103fa5781810151838201526020016103e2565b50505050905090810190601f1680156104275780820380516001836020036101000a031916815260200191505b509250505060405180910390f35b6101d56004803603602081101561044b57600080fd5b50356001600160a01b0316610938565b61020f6004803603602081101561047157600080fd5b5035610945565b61020f610960565b61027b6004803603604081101561049657600080fd5b506001600160a01b038135811691602001351661096c565b61020f610b5a565b61020f610b66565b61020f600480360360208110156104d457600080fd5b50356001600160a01b0316610b72565b61020f600480360360208110156104fa57600080fd5b50356001600160a01b0316610b7f565b61027b6004803603606081101561052057600080fd5b506001600160a01b03813581169160208101359091169060400135610b8c565b61027b6004803603602081101561055657600080fd5b50356001600160a01b0316610eab565b6001600160e01b03191660009081526001602052604090205460ff1690565b6000610592600783610f93565b92915050565b60006105a4600c610fb6565b905090565b60035490565b60006105a46007610fba565b6105c3610894565b15156001146106035760405162461bcd60e51b815260040180806020018281038252602281526020018061198e6022913960400191505060405180910390fd5b61060e600782610fca565b6040516001600160a01b038216907ff92b40e455f05fc4da68c745bf6dc3b5b43536e6c221b307dcc34d9e8d963d4490600090a250565b6001600160a01b031660009081526005602052604090205460ff1690565b61066b610894565b15156001146106ab5760405162461bcd60e51b815260040180806020018281038252602281526020018061198e6022913960400191505060405180910390fd5b6001600160a01b03166000908152600560205260409020805460ff19166001179055565b6106d7610894565b15156001146107175760405162461bcd60e51b815260040180806020018281038252602281526020018061198e6022913960400191505060405180910390fd5b610722600782611198565b6040516001600160a01b038216907f62806c829f7c8d0f1563dbdcf4f05f12a6b3c0e29ab581b0ccdffd608e99393890600090a250565b6000610592600c83610f93565b6001600160a01b031660009081526006602052604090205490565b610789610894565b15156001146107c95760405162461bcd60e51b815260040180806020018281038252602281526020018061198e6022913960400191505060405180910390fd5b6001600160a01b0381166000908152600b60205260409020600181015490546107f290826112c5565b6001600160a01b0383166000818152600b6020908152604091829020848155600101849055815185815290810193909352805191927f468aeeec0e901c52363552a06c1e39331d44c3cc886eb200af127ded3f380f82929081900390910190a25050565b6001600160a01b03166000908152600b6020526040902080546001909101549091565b6000546001600160a01b031690565b60006105a46007610fb6565b6000546001600160a01b0316331490565b60028054604080516020601f600019610100600187161502019094168590049384018190048102820181019092528281526060939092909183018282801561092e5780601f106109035761010080835404028352916020019161092e565b820191906000526020600020905b81548152906001019060200180831161091157829003601f168201915b5050505050905090565b60006105926007836112f1565b6000908152600460205260409020546001600160a01b031690565b60006105a46007611398565b6000610977836113a8565b9050600181116109b85760405162461bcd60e51b815260040180806020018281038252602c815260200180611a29602c913960400191505060405180910390fd5b336001600160a01b038416146109ff5760405162461bcd60e51b815260040180806020018281038252602d815260200180611961602d913960400191505060405180910390fd5b60015b81811015610a68576000610a16858361140a565b509050610a246007826112f1565b610a5f5760405162461bcd60e51b81526004018080602001828103825260318152602001806119076031913960400191505060405180910390fd5b50600101610a02565b50600354610a7790600161148d565b600381815560009182526004602052604090912080546001600160a01b0319166001600160a01b03861617905554610ab09084906114e7565b60035460408051918252516001600160a01b038516917fcb0c37c16aa3b0bbb7a817932094d8a20a00996d426a813f067039f0ef87ab07919081900360200190a26000610afc84611538565b9050806001600160a01b0316836001600160a01b0316856001600160a01b03167ff0f7f88a2991a6158382b346b3ddf4e0ad1e5330d9e34fb81081137afd97adf360016040518082815260200191505060405180910390a450505050565b60006105a4600c610fba565b60006105a4600c611398565b600061059260078361159e565b6000610592600c8361159e565b336001600160a01b03841614610bd35760405162461bcd60e51b815260040180806020018281038252602d815260200180611961602d913960400191505060405180910390fd5b6000610bde846113a8565b905060018111610c1f5760405162461bcd60e51b815260040180806020018281038252602c815260200180611a29602c913960400191505060405180910390fd5b6000610c2a85611538565b9050610c35856115c4565b610ea457806001600160a01b0316846001600160a01b0316866001600160a01b03167ff0f7f88a2991a6158382b346b3ddf4e0ad1e5330d9e34fb81081137afd97adf3866040518082815260200191505060405180910390a4610c9785611607565b151560011415610ea457600080610caf87600061140a565b6001600160a01b0382166000908152600b60205260409020549193509150610cd7908261148d565b6001600160a01b0383166000818152600b6020908152604091829020939093558051848152905191927f72d368a22163d085e9875cde36e52b33d11186bc95df5b28e6fa87a87c4b315e92918290030190a2610d34600c836112f1565b158015610d5857506001600160a01b0382166000908152600b602052604090205415155b15610d6857610d68600c83611198565b60015b84811015610ea057600080610d808a8461140a565b90925090506001600160a01b03821615610e96576001600160a01b038216600090815260066020526040902054610db890600161148d565b6001600160a01b038316600090815260066020526040812091909155610ddd8361164a565b6001600160a01b0381166000908152600b6020526040902054909150610e03908361148d565b6001600160a01b0382166000818152600b6020908152604091829020939093558051858152905191927f72d368a22163d085e9875cde36e52b33d11186bc95df5b28e6fa87a87c4b315e92918290030190a2610e60600c826112f1565b158015610e8457506001600160a01b0381166000908152600b602052604090205415155b15610e9457610e94600c82611198565b505b5050600101610d6b565b5050505b5050505050565b610eb3610894565b1515600114610ef35760405162461bcd60e51b815260040180806020018281038252602281526020018061198e6022913960400191505060405180910390fd5b6001600160a01b038116610f385760405162461bcd60e51b8152600401808060200182810382526027815260200180611a556027913960400191505060405180910390fd5b600080546040516001600160a01b03808516939216917f8be0079c531659141344cd1fd0a4f28419497f9722a3daafe3b4186f6b6457e091a3600080546001600160a01b0319166001600160a01b0392909216919091179055565b6001600160a01b0380821660009081526003840160205260409020541692915050565b5490565b600101546001600160a01b031690565b6001600160a01b03811661100f5760405162461bcd60e51b8152600401808060200182810382526029815260200180611a006029913960400191505060405180910390fd5b61101982826112f1565b6110545760405162461bcd60e51b81526004018080602001828103825260298152602001806119d76029913960400191505060405180910390fd5b6001600160a01b03808216600081815260038501602052604090208054600191820154918601549084169391821692911614156110a9576001840180546001600160a01b0319166001600160a01b0383161790555b60028401546001600160a01b03848116911614156110df576002840180546001600160a01b0319166001600160a01b0384161790555b6001600160a01b03821615611131576001600160a01b03808316600090815260038601602052604080822060010180548486166001600160a01b03199182161790915592861682529020805490911690555b6001600160a01b03811615611183576001600160a01b03808216600090815260038601602052604080822080548487166001600160a01b03199182161790915592861682529020600101805490911690555b83546111909060016112c5565b909355505050565b6001600160a01b0381166111dd5760405162461bcd60e51b8152600401808060200182810382526029815260200180611a006029913960400191505060405180910390fd5b6111e782826112f1565b156112235760405162461bcd60e51b81526004018080602001828103825260278152602001806119b06027913960400191505060405180910390fd5b815461125d576002820180546001600160a01b0383166001600160a01b0319918216811790925560018401805490911690911790556112b2565b6002820180546001600160a01b03838116600081815260038701602052604080822080549585166001600160a01b03199687161790558554909316815291909120600101805483168217905582549091161790555b81546112bf90600161148d565b90915550565b60006112ea8383604051806060016040528060218152602001611a7c6021913961168d565b9392505050565b81546000906001148015611314575060018301546001600160a01b038381169116145b801561132f575060028301546001600160a01b038381169116145b1561133c57506001610592565b6001600160a01b0382811660009081526003850160205260409020541615801561138357506001600160a01b03828116600090815260038501602052604090206001015416155b61138e576001611391565b60005b9050610592565b600201546001600160a01b031690565b6040805160048152602481019091526020810180516001600160e01b031662a34d7760e31b1790526000906060906113ea906001600160a01b03851690611724565b905080806020019051602081101561140157600080fd5b50519392505050565b6040805160248082018490528251808303909101815260449091019091526020810180516001600160e01b03166399c4acef60e01b179052600090819060609061145e906001600160a01b03871690611724565b905080806020019051608081101561147557600080fd5b50602081015160609091015190969095509350505050565b6000828201838110156112ea576040805162461bcd60e51b815260206004820152601e60248201527f536166654d6174683235363a206164646974696f6e206f766572666c6f770000604482015290519081900360640190fd5b6040805160248082018490528251808303909101815260449091019091526020810180516001600160e01b0316630c6cc80b60e21b1790526115326001600160a01b03841682611818565b50505050565b6040805160048152602481019091526020810180516001600160e01b031663c265aaa160e01b17905260009060609061157b906001600160a01b03851690611724565b905080806020019051608081101561159257600080fd5b50602001519392505050565b6001600160a01b0380821660009081526003840160205260409020600101541692915050565b6040805160048152602481019091526020810180516001600160e01b03166303d058cd60e61b1790526000906060906113ea906001600160a01b03851690611724565b6040805160048152602481019091526020810180516001600160e01b031663597d0e4f60e11b1790526000906060906113ea906001600160a01b03851690611724565b6040805160048152602481019091526020810180516001600160e01b03166319b400eb60e21b1790526000906060906113ea906001600160a01b03851690611724565b6000818484111561171c5760405162461bcd60e51b81526004018080602001828103825283818151815260200191508051906020019080838360005b838110156116e15781810151838201526020016116c9565b50505050905090810190601f16801561170e5780820380516001836020036101000a031916815260200191505b509250505060405180910390fd5b505050900390565b606060006060846001600160a01b0316846040518082805190602001908083835b602083106117645780518252601f199092019160209182019101611745565b6001836020036101000a038019825116818451168082178552505050505050905001915050600060405180830381855afa9150503d80600081146117c4576040519150601f19603f3d011682016040523d82523d6000602084013e6117c9565b606091505b5090925090506001821515146118105760405162461bcd60e51b81526004018080602001828103825260298152602001806119386029913960400191505060405180910390fd5b949350505050565b606060006060846001600160a01b0316846040518082805190602001908083835b602083106118585780518252601f199092019160209182019101611839565b6001836020036101000a0380198251168184511680821785525050505050509050019150506000604051808303816000865af19150503d80600081146118ba576040519150601f19603f3d011682016040523d82523d6000602084013e6118bf565b606091505b5090925090506001821515146118105760405162461bcd60e51b8152600401808060200182810382526023815260200180611a9d6023913960400191505060405180910390fdfe446b6172676f536572766963653a20746865206f726465722068617320756e7265676973746572656420636f6d70616e79416464726573733a2066756e6374696f6e2873746174696363616c6c292063616c6c206661696c6564446b6172676f536572766963653a206f6e6c7920746865206f7264657220697473656c662063616e2063616c6c4f776e6572736869703a206f6e6c7920746865206f776e65722063616e2063616c6c436861696e416464726573733a20746865206e6f646520697320616c65616479206c696e6b6564436861696e416464726573733a20746865206e6f646520697320616c6561647920756e6c696e6b6564436861696e416464726573733a20746865206e6f64652063616e6e6f7420626520746865207a65726f446b6172676f536572766963653a20746865206f726465722068617320746f6f20666577206d656d626572734f776e6572736869703a206e6577206f776e65722063616e6e6f7420626520746865207a65726f536166654d6174683235363a207375627472616374696f6e206f766572666c6f77416464726573733a2066756e6374696f6e2863616c6c292063616c6c206661696c6564a2646970667358221220eae6fa860db63cb121c033bbf2d4571f80b41efa0ba987c01e7c109f367484b764736f6c63430007000033",
  "immutableReferences": {},
  "source": "// SPDX-License-Identifier: MIT\npragma solidity >=0.6.0;\n\nimport \"./DkargoPrefix.sol\";\nimport \"./authority/Ownership.sol\";\nimport \"./introspection/ERC165/ERC165.sol\";\nimport \"./libs/Address.sol\";\nimport \"./libs/chain/ChainAddress.sol\";\nimport \"./libs/chain/Typedef.sol\";\nimport \"./libs/math/SafeMath256.sol\";\n\n/// @title DkargoService\n/// @notice   \n/// @author jhhong\ncontract DkargoService is Ownership, ERC165, DkargoPrefix {\n    using Address for address;\n    using ChainAddress for Typedef.AddressList;\n    using SafeMath256 for uint256;\n\n    /// @dev  \n    struct Degree { //        \n        uint256 success; //  \n    }\n    struct Incentive { //  \n        uint256 totals; //      \n        uint256 settlements; //       \n    }\n\n    /// @dev  ()\n    uint256 private _ordercnt; //    \n    mapping(uint256 => address) private _orders; // \"\" <-> \"  \" \n    mapping(address => bool) private _payment; // \"  \" <-> \"\" \n\n    /// @dev  ()\n    mapping(address => Degree) private _degree; // \"\" <-> \"\" \n    Typedef.AddressList private _companychain; //  \n\n    /// @dev  ()\n    mapping(address => Incentive) private _incentives; // \"\" <-> \" \"  (:   (+))\n    Typedef.AddressList private _recipientchain; //    \n\n    /// @notice   \n    /// @param company   \n    event CompanyRegistered(address indexed company);\n\n    /// @notice   \n    /// @param company   \n    event CompanyUnregistered(address indexed company);\n\n    /// @notice   ,       .\n    /// @param order   \n    /// @param id \n    event OrderCreated(address indexed order, uint256 id);\n\n    /// @notice   \n    /// @dev    launch    \n    /// @param order   \n    /// @param from     \n    /// @param to    \n    /// @param transportid  ()\n    event OrderTransferred(address indexed order, address indexed from, address indexed to, uint256 transportid);\n\n    /// @notice   \n    /// @param addr   \n    /// @param value  \n    event IncentiveUpdated(address indexed addr, uint256 value);\n\n    /// @notice   \n    /// @param addr   \n    /// @param value \n    /// @param rests  \n    event Settled(address indexed addr, uint256 value, uint256 rests);\n\n    /// @notice  .\n    constructor() {\n        _setDkargoPrefix(\"service\"); //  \n        _registerInterface(0x946edbed); // INTERFACE ID  (getDkargoPrefix)\n    }\n\n    /// @notice   .\n    /// @dev              .\n    /// @dev :   (DkargoOrder)\n    /// @param order   \n    /// @param reporter  ()\n    function approveOrderCreate(address order, address reporter) public {\n        uint256 trackingcnt = _getTrackingCount(order);\n        require(trackingcnt > 1, \"DkargoService: the order has too few members\"); //    2!!(+1)\n        require(msg.sender == order, \"DkargoService: only the order itself can call\");\n        for(uint256 idx = 1; idx < trackingcnt; idx++) { //     validation \n            (address company,) = _getTracking(order, idx);\n            if(_companychain.isLinked(company) == false) { //    \n                revert(\"DkargoService: the order has unregistered company\");\n            }\n        }\n        _ordercnt = _ordercnt.add(1); //    ,     \"\" \n        _orders[_ordercnt] = order; // \"\"      \n        _setOrderId(order, _ordercnt); //    \n        emit OrderCreated(order, _ordercnt); //  : \n        address nextMember = _getCurrentTracking(order); //      \n        emit OrderTransferred(order, reporter, nextMember, 1); //  :  \n    }\n\n    /// @notice   .\n    /// @dev    ,    :  ,   \n    /// :  (DkargoOrder):  .updateOrderCode ->  .submitOrderUpdate -> approveOrderUpdate\n    /// :      \n    /// @param order   \n    /// @param reporter  ()\n    /// @param transportid  ()\n    function approveOrderUpdate(address order, address reporter, uint256 transportid) public {\n        require(msg.sender == order, \"DkargoService: only the order itself can call\");\n        uint256 trackingcnt = _getTrackingCount(order);\n        require(trackingcnt > 1, \"DkargoService: the order has too few members\"); //    2!!(+1)\n        address nextMember = _getCurrentTracking(order); //      \n        if(_isOrderFailed(order) == false) { //        _isOrderFailed(order) == true     \n            emit OrderTransferred(order, reporter, nextMember, transportid); //  :  \n            if(_isOrderComplete(order) == true) { //   :   +   \n                ////   \n                (address shipper, uint256 incentive) = _getTracking(order, 0); //     \n                _incentives[shipper].totals = (_incentives[shipper].totals).add(incentive); //   \n                emit IncentiveUpdated(shipper, incentive); //  :   ()\n                if(_recipientchain.isLinked(shipper) == false && _incentives[shipper].totals > 0) {\n                    _recipientchain.linkChain(shipper); //    \n                }\n                ////    +   \n                for(uint256 idx = 1; idx < trackingcnt; idx++) { //     \n                    (address company, uint256 incentivee) = _getTracking(order, idx); //     \n                    if(company != address(0)) {\n                        _degree[company].success = _degree[company].success.add(1); //   \n                        address recipient = _getRecipient(company); //    \n                        _incentives[recipient].totals = (_incentives[recipient].totals).add(incentivee); //   \n                        emit IncentiveUpdated(recipient, incentivee); //  :   ()\n                        if(_recipientchain.isLinked(recipient) == false && _incentives[recipient].totals > 0) {\n                            _recipientchain.linkChain(recipient); //    \n                        }\n                    }\n                }\n            }\n        }\n    }\n\n    /// @notice   .\n    /// @dev onlyOwner\n    /// @param order   \n    function markOrderPayed(address order) onlyOwner public {\n        _payment[order] = true;\n    }\n\n    /// @notice     .\n    /// @dev     /  ,  onlyOwner...\n    ///  DkargoCompany  staking          (DkargoOrder   approve ..)\n    /// @param company   \n    function register(address company) onlyOwner public {\n        //// Staking  : AUGUR   /  \n        _companychain.linkChain(company); //  \n        emit CompanyRegistered(company); //  :  \n    }\n\n    /// @notice     .\n    /// @dev     /  ,  onlyOwner...\n    ///  DkargoCompany  staking          (DkargoOrder   approve ..)\n    /// @param company   \n    function unregister(address company) onlyOwner public {\n        //// Staking  : AUGUR   /  \n        _companychain.unlinkChain(company); //  \n        emit CompanyUnregistered(company); //  :  \n    }\n\n    /// @notice ()    .\n    /// @dev onlyOwner,  settle   settlements  totals = totals-settlements \n    /// @param addr    (,  )\n    function settle(address addr) onlyOwner public {\n        uint256 value = _incentives[addr].settlements;\n        _incentives[addr].totals = _incentives[addr].totals.sub(_incentives[addr].settlements); // totals \n        _incentives[addr].settlements = _incentives[addr].totals; // settlements \n        emit Settled(addr, value, _incentives[addr].totals);\n    }\n\n    /// @notice       .\n    /// @dev  success ,    array type return   \n    /// @param company   \n    /// @return    (uint256)\n    function degree(address company) public view returns(uint256) {\n        return _degree[company].success;\n    }\n\n    /// @notice     . (totals, settlements)\n    /// @dev totals:   , settlements:  settle   \n    /// @param addr   \n    /// @return totals:   , settlements:  settle    (uint256,uint256)\n    function incentives(address addr) public view returns(uint256, uint256) {\n        return (_incentives[addr].totals, _incentives[addr].settlements);\n    }\n\n    /// @notice      .\n    /// @param company   \n    /// @return     (bool)\n    function isMember(address company) public view returns(bool) {\n        return _companychain.isLinked(company);\n    }\n\n    /// @notice      .\n    /// @param order   \n    /// @return     (bool)\n    function isPayed(address order) public view returns(bool) {\n        return _payment[order];\n    }\n\n    /// @notice      .\n    /// @return      (address)\n    function firstCompany() public view returns(address) {\n        return _companychain.first();\n    }\n\n    /// @notice      .\n    /// @return      (address)\n    function lastCompany() public view returns(address) {\n        return _companychain.last();\n    }\n\n    /// @notice       .\n    /// @return    (uint256)\n    function companyCount() public view returns(uint256) {\n        return _companychain.size();\n    }\n\n    /// @notice    company      .\n    /// @param company   \n    /// @return company      (address)\n    function nextCompany(address company) public view returns(address) {\n        return _companychain.nextOf(company);\n    }\n\n    /// @notice    company      .\n    /// @param company   \n    /// @return company      (address)\n    function prevCompany(address company) public view returns(address) {\n        return _companychain.prevOf(company);\n    }\n\n    /// @notice     .\n    /// @return     (address)\n    function firstRecipient() public view returns(address) {\n        return _recipientchain.first();\n    }\n\n    /// @notice     .\n    /// @return     (address)\n    function lastRecipient() public view returns(address) {\n        return _recipientchain.last();\n    }\n\n    /// @notice    .\n    /// @return    (uint256)\n    function recipientCount() public view returns(uint256) {\n        return _recipientchain.size();\n    }\n\n    /// @notice recipient      .\n    /// @param recipient   \n    /// @return recipient      (address)\n    function nextRecipient(address recipient) public view returns(address) {\n        return _recipientchain.nextOf(recipient);\n    }\n\n    /// @notice recipient      .\n    /// @param recipient   \n    /// @return recipient      (address)\n    function prevRecipient(address recipient) public view returns(address) {\n        return _recipientchain.prevOf(recipient);\n    }\n\n    /// @notice      .\n    /// @return      (address)\n    function orders(uint256 id) public view returns(address) {\n        return _orders[id];\n    }\n\n    /// @notice       .\n    /// @return    (uint256)\n    function orderCount() public view returns(uint256) {\n        return _ordercnt;\n    }\n\n    /// @notice      .\n    /// @dev      addr \n    /// @param order   \n    /// @return addr    \n    function _getCurrentTracking(address order) private view returns(address addr) {\n        bytes memory data = address(order)._vcall(abi.encodeWithSignature(\"currentTracking()\"));\n        (,addr,,) = abi.decode(data, (uint64, address, uint256, uint256));\n    }\n\n    /// @notice      .\n    /// @return   (address)\n    function _getRecipient(address company) private view returns(address) {\n        bytes memory data = address(company)._vcall(abi.encodeWithSignature(\"recipient()\"));\n        return abi.decode(data, (address));\n    }\n\n    /// @notice      index    .\n    /// @dev      addr, incentive \n    /// @param order   \n    /// @param index  \n    /// @return addr   (address)\n    /// @return incentive (uint256)\n    function _getTracking(address order, uint256 index) private view returns(address addr, uint256 incentive) {\n        bytes memory data = address(order)._vcall(abi.encodeWithSignature(\"tracking(uint256)\", index));\n        (,addr,, incentive) = abi.decode(data, (uint64, address, uint256, uint256));\n    }\n\n    /// @notice       .\n    /// @param order   \n    /// @return   \n    function _getTrackingCount(address order) private view returns(uint256) {\n        bytes memory data = address(order)._vcall(abi.encodeWithSignature(\"trackingCount()\"));\n        return abi.decode(data, (uint256));\n    }\n\n    /// @notice      \n    /// @param order   \n    /// @return    \n    function _isOrderComplete(address order) private view returns(bool) {\n        bytes memory data = address(order)._vcall(abi.encodeWithSignature(\"isComplete()\"));\n        return abi.decode(data, (bool));\n    }\n\n    /// @notice     \n    /// @param order   \n    /// @return    \n    function _isOrderFailed(address order) private view returns(bool) {\n        bytes memory data = address(order)._vcall(abi.encodeWithSignature(\"isFailed()\"));\n        return abi.decode(data, (bool));\n    }\n\n    /// @notice    .\n    /// @dev   setOrderId     Revert.\n    /// @param order   \n    /// @param id  \n    function _setOrderId(address order, uint256 id) private {\n        bytes memory cmd = abi.encodeWithSignature(\"setOrderId(uint256)\", id);\n        address(order)._call(cmd); //    \n    }\n}",
  "sourcePath": "/home/jhhong/work/renewal/dkargo-scm/contracts/DkargoService.sol",
  "compiler": {
    "name": "solc",
    "version": "0.7.0+commit.9e61f92b.Emscripten.clang"
  },
  "schemaVersion": "3.2.3",
  "updatedAt": "2020-09-08T02:08:21.865Z",
  "devdoc": {
    "author": "jhhong",
    "events": {
      "CompanyRegistered(address)": {
        "params": {
          "company": "  "
        }
      },
      "CompanyUnregistered(address)": {
        "params": {
          "company": "  "
        }
      },
      "IncentiveUpdated(address,uint256)": {
        "params": {
          "addr": "  ",
          "value": " "
        }
      },
      "OrderCreated(address,uint256)": {
        "params": {
          "id": "",
          "order": "  "
        }
      },
      "OrderTransferred(address,address,address,uint256)": {
        "details": "   launch    ",
        "params": {
          "from": "    ",
          "order": "  ",
          "to": "   ",
          "transportid": " ()"
        }
      },
      "Settled(address,uint256,uint256)": {
        "params": {
          "addr": "  ",
          "rests": " ",
          "value": ""
        }
      }
    },
    "kind": "dev",
    "methods": {
      "approveOrderCreate(address,address)": {
        "details": "             .:   (DkargoOrder)",
        "params": {
          "order": "  ",
          "reporter": " ()"
        }
      },
      "approveOrderUpdate(address,address,uint256)": {
        "details": "   ,    :  ,    :  (DkargoOrder):  .updateOrderCode ->  .submitOrderUpdate -> approveOrderUpdate :      ",
        "params": {
          "order": "  ",
          "reporter": " ()",
          "transportid": " ()"
        }
      },
      "companyCount()": {
        "returns": {
          "_0": "   (uint256)"
        }
      },
      "degree(address)": {
        "details": " success ,    array type return   ",
        "params": {
          "company": "  "
        },
        "returns": {
          "_0": "   (uint256)"
        }
      },
      "firstCompany()": {
        "returns": {
          "_0": "     (address)"
        }
      },
      "firstRecipient()": {
        "returns": {
          "_0": "    (address)"
        }
      },
      "getDkargoPrefix()": {
        "returns": {
          "_0": "  (string)"
        }
      },
      "incentives(address)": {
        "details": "totals:   , settlements:  settle   ",
        "params": {
          "addr": "  "
        },
        "returns": {
          "_0": "totals:   , settlements:  settle    (uint256,uint256)"
        }
      },
      "isMember(address)": {
        "params": {
          "company": "  "
        },
        "returns": {
          "_0": "    (bool)"
        }
      },
      "isOwner()": {
        "returns": {
          "_0": "  (boolean)"
        }
      },
      "isPayed(address)": {
        "params": {
          "order": "  "
        },
        "returns": {
          "_0": "    (bool)"
        }
      },
      "lastCompany()": {
        "returns": {
          "_0": "     (address)"
        }
      },
      "lastRecipient()": {
        "returns": {
          "_0": "    (address)"
        }
      },
      "markOrderPayed(address)": {
        "details": "onlyOwner",
        "params": {
          "order": "  "
        }
      },
      "nextCompany(address)": {
        "params": {
          "company": "  "
        },
        "returns": {
          "_0": "company      (address)"
        }
      },
      "nextRecipient(address)": {
        "params": {
          "recipient": "  "
        },
        "returns": {
          "_0": "recipient      (address)"
        }
      },
      "orderCount()": {
        "returns": {
          "_0": "   (uint256)"
        }
      },
      "orders(uint256)": {
        "returns": {
          "_0": "     (address)"
        }
      },
      "owner()": {
        "returns": {
          "_0": " "
        }
      },
      "prevCompany(address)": {
        "params": {
          "company": "  "
        },
        "returns": {
          "_0": "company      (address)"
        }
      },
      "prevRecipient(address)": {
        "params": {
          "recipient": "  "
        },
        "returns": {
          "_0": "recipient      (address)"
        }
      },
      "recipientCount()": {
        "returns": {
          "_0": "   (uint256)"
        }
      },
      "register(address)": {
        "details": "    /  ,  onlyOwner...  DkargoCompany  staking          (DkargoOrder   approve ..)",
        "params": {
          "company": "  "
        }
      },
      "settle(address)": {
        "details": "onlyOwner,  settle   settlements  totals = totals-settlements ",
        "params": {
          "addr": "   (,  )"
        }
      },
      "supportsInterface(bytes4)": {
        "params": {
          "infcid": "  INTERFACE ID (Function Selector)"
        },
        "returns": {
          "_0": " (boolean)"
        }
      },
      "transferOwnership(address)": {
        "params": {
          "expected": "  "
        }
      },
      "unregister(address)": {
        "details": "    /  ,  onlyOwner...  DkargoCompany  staking          (DkargoOrder   approve ..)",
        "params": {
          "company": "  "
        }
      }
    },
    "stateVariables": {
      "_degree": {
        "details": " ()"
      },
      "_incentives": {
        "details": " ()"
      },
      "_ordercnt": {
        "details": " ()"
      }
    },
    "title": "DkargoService",
    "version": 1
  },
  "userdoc": {
    "events": {
      "CompanyRegistered(address)": {
        "notice": "  "
      },
      "CompanyUnregistered(address)": {
        "notice": "  "
      },
      "IncentiveUpdated(address,uint256)": {
        "notice": "  "
      },
      "OrderCreated(address,uint256)": {
        "notice": "  ,       ."
      },
      "OrderTransferred(address,address,address,uint256)": {
        "notice": "  "
      },
      "OwnershipTransferred(address,address)": {
        "notice": "  "
      },
      "Settled(address,uint256,uint256)": {
        "notice": "  "
      }
    },
    "kind": "user",
    "methods": {
      "approveOrderCreate(address,address)": {
        "notice": "  ."
      },
      "approveOrderUpdate(address,address,uint256)": {
        "notice": "  ."
      },
      "companyCount()": {
        "notice": "      ."
      },
      "constructor": {
        "notice": " ."
      },
      "degree(address)": {
        "notice": "      ."
      },
      "firstCompany()": {
        "notice": "     ."
      },
      "firstRecipient()": {
        "notice": "    ."
      },
      "getDkargoPrefix()": {
        "notice": "  ."
      },
      "incentives(address)": {
        "notice": "    . (totals, settlements)"
      },
      "isMember(address)": {
        "notice": "     ."
      },
      "isOwner()": {
        "notice": " ."
      },
      "isPayed(address)": {
        "notice": "     ."
      },
      "lastCompany()": {
        "notice": "     ."
      },
      "lastRecipient()": {
        "notice": "    ."
      },
      "markOrderPayed(address)": {
        "notice": "  ."
      },
      "nextCompany(address)": {
        "notice": "   company      ."
      },
      "nextRecipient(address)": {
        "notice": "recipient      ."
      },
      "orderCount()": {
        "notice": "      ."
      },
      "orders(uint256)": {
        "notice": "     ."
      },
      "owner()": {
        "notice": "  ."
      },
      "prevCompany(address)": {
        "notice": "   company      ."
      },
      "prevRecipient(address)": {
        "notice": "recipient      ."
      },
      "recipientCount()": {
        "notice": "   ."
      },
      "register(address)": {
        "notice": "    ."
      },
      "settle(address)": {
        "notice": "()    ."
      },
      "supportsInterface(bytes4)": {
        "notice": " INTERFACE ID   ."
      },
      "transferOwnership(address)": {
        "notice": " ."
      },
      "unregister(address)": {
        "notice": "    ."
      }
    },
    "notice": "  ",
    "version": 1
  }
}