{
  "contractName": "DkargoCompany",
  "abi": [
    {
      "inputs": [
        {
          "internalType": "string",
          "name": "name",
          "type": "string"
        },
        {
          "internalType": "string",
          "name": "url",
          "type": "string"
        },
        {
          "internalType": "address",
          "name": "recipient",
          "type": "address"
        },
        {
          "internalType": "address",
          "name": "service",
          "type": "address"
        }
      ],
      "stateMutability": "nonpayable",
      "type": "constructor"
    },
    {
      "anonymous": false,
      "inputs": [
        {
          "indexed": false,
          "internalType": "string",
          "name": "oldName",
          "type": "string"
        },
        {
          "indexed": false,
          "internalType": "string",
          "name": "newName",
          "type": "string"
        }
      ],
      "name": "CompanyNameSet",
      "type": "event"
    },
    {
      "anonymous": false,
      "inputs": [
        {
          "indexed": false,
          "internalType": "address",
          "name": "oldRecipient",
          "type": "address"
        },
        {
          "indexed": false,
          "internalType": "address",
          "name": "newRecipient",
          "type": "address"
        }
      ],
      "name": "CompanyRecipientSet",
      "type": "event"
    },
    {
      "anonymous": false,
      "inputs": [
        {
          "indexed": false,
          "internalType": "string",
          "name": "oldUrl",
          "type": "string"
        },
        {
          "indexed": false,
          "internalType": "string",
          "name": "newUrl",
          "type": "string"
        }
      ],
      "name": "CompanyUrlSet",
      "type": "event"
    },
    {
      "anonymous": false,
      "inputs": [
        {
          "indexed": true,
          "internalType": "address",
          "name": "account",
          "type": "address"
        }
      ],
      "name": "OperatorAdded",
      "type": "event"
    },
    {
      "anonymous": false,
      "inputs": [
        {
          "indexed": true,
          "internalType": "address",
          "name": "account",
          "type": "address"
        }
      ],
      "name": "OperatorRemoved",
      "type": "event"
    },
    {
      "anonymous": false,
      "inputs": [
        {
          "indexed": true,
          "internalType": "address",
          "name": "old",
          "type": "address"
        },
        {
          "indexed": true,
          "internalType": "address",
          "name": "expected",
          "type": "address"
        }
      ],
      "name": "OwnershipTransferred",
      "type": "event"
    },
    {
      "inputs": [
        {
          "internalType": "address",
          "name": "account",
          "type": "address"
        }
      ],
      "name": "addOperator",
      "outputs": [],
      "stateMutability": "nonpayable",
      "type": "function"
    },
    {
      "inputs": [],
      "name": "getDkargoPrefix",
      "outputs": [
        {
          "internalType": "string",
          "name": "",
          "type": "string"
        }
      ],
      "stateMutability": "view",
      "type": "function"
    },
    {
      "inputs": [
        {
          "internalType": "address",
          "name": "account",
          "type": "address"
        }
      ],
      "name": "isOperator",
      "outputs": [
        {
          "internalType": "bool",
          "name": "",
          "type": "bool"
        }
      ],
      "stateMutability": "view",
      "type": "function"
    },
    {
      "inputs": [],
      "name": "isOwner",
      "outputs": [
        {
          "internalType": "bool",
          "name": "",
          "type": "bool"
        }
      ],
      "stateMutability": "view",
      "type": "function"
    },
    {
      "inputs": [],
      "name": "owner",
      "outputs": [
        {
          "internalType": "address",
          "name": "",
          "type": "address"
        }
      ],
      "stateMutability": "view",
      "type": "function"
    },
    {
      "inputs": [
        {
          "internalType": "address",
          "name": "account",
          "type": "address"
        }
      ],
      "name": "removeOperator",
      "outputs": [],
      "stateMutability": "nonpayable",
      "type": "function"
    },
    {
      "inputs": [
        {
          "internalType": "bytes4",
          "name": "infcid",
          "type": "bytes4"
        }
      ],
      "name": "supportsInterface",
      "outputs": [
        {
          "internalType": "bool",
          "name": "",
          "type": "bool"
        }
      ],
      "stateMutability": "view",
      "type": "function"
    },
    {
      "inputs": [
        {
          "internalType": "address",
          "name": "expected",
          "type": "address"
        }
      ],
      "name": "transferOwnership",
      "outputs": [],
      "stateMutability": "nonpayable",
      "type": "function"
    },
    {
      "inputs": [
        {
          "internalType": "address",
          "name": "order",
          "type": "address"
        },
        {
          "internalType": "uint256",
          "name": "transportid",
          "type": "uint256"
        }
      ],
      "name": "launch",
      "outputs": [],
      "stateMutability": "nonpayable",
      "type": "function"
    },
    {
      "inputs": [
        {
          "internalType": "address",
          "name": "order",
          "type": "address"
        },
        {
          "internalType": "uint256",
          "name": "transportid",
          "type": "uint256"
        },
        {
          "internalType": "uint256",
          "name": "code",
          "type": "uint256"
        }
      ],
      "name": "updateOrderCode",
      "outputs": [],
      "stateMutability": "nonpayable",
      "type": "function"
    },
    {
      "inputs": [
        {
          "internalType": "string",
          "name": "name",
          "type": "string"
        }
      ],
      "name": "setName",
      "outputs": [],
      "stateMutability": "nonpayable",
      "type": "function"
    },
    {
      "inputs": [
        {
          "internalType": "string",
          "name": "url",
          "type": "string"
        }
      ],
      "name": "setUrl",
      "outputs": [],
      "stateMutability": "nonpayable",
      "type": "function"
    },
    {
      "inputs": [
        {
          "internalType": "address",
          "name": "recipient",
          "type": "address"
        }
      ],
      "name": "setRecipient",
      "outputs": [],
      "stateMutability": "nonpayable",
      "type": "function"
    },
    {
      "inputs": [
        {
          "internalType": "address",
          "name": "order",
          "type": "address"
        },
        {
          "internalType": "uint256",
          "name": "transportid",
          "type": "uint256"
        }
      ],
      "name": "isLaunched",
      "outputs": [
        {
          "internalType": "bool",
          "name": "",
          "type": "bool"
        }
      ],
      "stateMutability": "view",
      "type": "function"
    },
    {
      "inputs": [],
      "name": "name",
      "outputs": [
        {
          "internalType": "string",
          "name": "",
          "type": "string"
        }
      ],
      "stateMutability": "view",
      "type": "function"
    },
    {
      "inputs": [],
      "name": "recipient",
      "outputs": [
        {
          "internalType": "address",
          "name": "",
          "type": "address"
        }
      ],
      "stateMutability": "view",
      "type": "function"
    },
    {
      "inputs": [],
      "name": "service",
      "outputs": [
        {
          "internalType": "address",
          "name": "",
          "type": "address"
        }
      ],
      "stateMutability": "view",
      "type": "function"
    },
    {
      "inputs": [],
      "name": "url",
      "outputs": [
        {
          "internalType": "string",
          "name": "",
          "type": "string"
        }
      ],
      "stateMutability": "view",
      "type": "function"
    }
  ],
  "bytecode": "0x60806040523480156200001157600080fd5b5060405162001bb538038062001bb5833981810160405260808110156200003757600080fd5b81019080805160405193929190846401000000008211156200005857600080fd5b9083019060208201858111156200006e57600080fd5b82516401000000008111828201881017156200008957600080fd5b82525081516020918201929091019080838360005b83811015620000b85781810151838201526020016200009e565b50505050905090810190601f168015620000e65780820380516001836020036101000a031916815260200191505b50604052602001805160405193929190846401000000008211156200010a57600080fd5b9083019060208201858111156200012057600080fd5b82516401000000008111828201881017156200013b57600080fd5b82525081516020918201929091019080838360005b838110156200016a57818101518382015260200162000150565b50505050905090810190601f168015620001985780820380516001836020036101000a031916815260200191505b50604081815260208301519201516000805493955090935033926001600160a01b0316917f8be0079c531659141344cd1fd0a4f28419497f9722a3daafe3b4186f6b6457e09190a360008054336001600160a01b03199091168117909155620002109060019062000331602090811b62000e4417901c565b60405133907fac6fa858e9350a46cec16539926e0fde25b7629f84b5a72bffaae4df888ae86d90600090a2620002667f01ffc9a700000000000000000000000000000000000000000000000000000000620003ba565b60408051808201909152600781527f636f6d70616e79000000000000000000000000000000000000000000000000006020820152620002a59062000489565b620002d07f946edbed00000000000000000000000000000000000000000000000000000000620003ba565b8351620002e590600490602087019062000525565b508251620002fb90600590602086019062000525565b50600680546001600160a01b039384166001600160a01b0319918216179091556007805492909316911617905550620005c19050565b6200033d8282620004a2565b1562000395576040517f08c379a000000000000000000000000000000000000000000000000000000000815260040180806020018281038252602381526020018062001b926023913960400191505060405180910390fd5b6001600160a01b0316600090815260209190915260409020805460ff19166001179055565b7fffffffff0000000000000000000000000000000000000000000000000000000080821614156200044c57604080517f08c379a000000000000000000000000000000000000000000000000000000000815260206004820152601c60248201527f4552433136353a20696e76616c696420696e7465726661636520696400000000604482015290519081900360640190fd5b7fffffffff00000000000000000000000000000000000000000000000000000000166000908152600260205260409020805460ff19166001179055565b80516200049e90600390602084019062000525565b5050565b60006001600160a01b03821662000505576040517f08c379a000000000000000000000000000000000000000000000000000000000815260040180806020018281038252602581526020018062001b6d6025913960400191505060405180910390fd5b506001600160a01b03166000908152602091909152604090205460ff1690565b828054600181600116156101000203166002900490600052602060002090601f016020900481019282601f106200056857805160ff191683800117855562000598565b8280016001018555821562000598579182015b82811115620005985782518255916020019190600101906200057b565b50620005a6929150620005aa565b5090565b5b80821115620005a65760008155600101620005ab565b61159c80620005d16000396000f3fe608060405234801561001057600080fd5b50600436106101165760003560e01c8063946edbed116100a2578063c47f002711610071578063c47f002714610383578063d598d4c914610429578063e50097a914610431578063edfb651614610463578063f2fde38b1461048f57610116565b8063946edbed146103035780639870d7fe1461030b578063a71e1a4714610331578063ac8a584a1461035d57610116565b80635600f04f116100e95780635600f04f146102a157806366d003ac146102a95780636d70f7ae146102cd5780638da5cb5b146102f35780638f32d59b146102fb57610116565b806301ffc9a71461011b57806306fdde0314610156578063252498a2146101d35780633bbed4a01461027b575b600080fd5b6101426004803603602081101561013157600080fd5b50356001600160e01b0319166104b5565b604080519115158252519081900360200190f35b61015e6104d4565b6040805160208082528351818301528351919283929083019185019080838360005b83811015610198578181015183820152602001610180565b50505050905090810190601f1680156101c55780820380516001836020036101000a031916815260200191505b509250505060405180910390f35b610279600480360360208110156101e957600080fd5b81019060208101813564010000000081111561020457600080fd5b82018360208201111561021657600080fd5b8035906020019184600183028401116401000000008311171561023857600080fd5b91908080601f01602080910402602001604051908101604052809392919081815260200183838082843760009201919091525092955061056a945050505050565b005b6102796004803603602081101561029157600080fd5b50356001600160a01b03166106de565b61015e610790565b6102b16107f1565b604080516001600160a01b039092168252519081900360200190f35b610142600480360360208110156102e357600080fd5b50356001600160a01b0316610800565b6102b1610813565b610142610822565b61015e610833565b6102796004803603602081101561032157600080fd5b50356001600160a01b0316610894565b6101426004803603604081101561034757600080fd5b506001600160a01b038135169060200135610963565b6102796004803603602081101561037357600080fd5b50356001600160a01b031661098e565b6102796004803603602081101561039957600080fd5b8101906020810181356401000000008111156103b457600080fd5b8201836020820111156103c657600080fd5b803590602001918460018302840111640100000000831117156103e857600080fd5b91908080601f016020809104026020016040519081016040528093929190818152602001838380828437600092019190915250929550610aa5945050505050565b6102b1610c15565b6102796004803603606081101561044757600080fd5b506001600160a01b038135169060208101359060400135610c24565b6102796004803603604081101561047957600080fd5b506001600160a01b038135169060200135610d41565b610279600480360360208110156104a557600080fd5b50356001600160a01b0316610db5565b6001600160e01b03191660009081526002602052604090205460ff1690565b60048054604080516020601f60026000196101006001881615020190951694909404938401819004810282018101909252828152606093909290918301828280156105605780601f1061053557610100808354040283529160200191610560565b820191906000526020600020905b81548152906001019060200180831161054357829003601f168201915b5050505050905090565b610572610822565b15156001146105b25760405162461bcd60e51b81526004018080602001828103825260228152602001806114296022913960400191505060405180910390fd5b6040805181815260058054600260001961010060018416150201909116049282018390527f654f0b2a4c472f26255e2824959a193c4f37b1e39495860f545a580e143e11ad9290918491819060208201906060830190869080156106575780601f1061062c57610100808354040283529160200191610657565b820191906000526020600020905b81548152906001019060200180831161063a57829003601f168201915b5050838103825284518152845160209182019186019080838360005b8381101561068b578181015183820152602001610673565b50505050905090810190601f1680156106b85780820380516001836020036101000a031916815260200191505b5094505050505060405180910390a180516106da906005906020840190611344565b5050565b6106e6610822565b15156001146107265760405162461bcd60e51b81526004018080602001828103825260228152602001806114296022913960400191505060405180910390fd5b600654604080516001600160a01b039283168152918316602083015280517f784991f7fa183a56bf3ebe860dfb8846f1cf2431bc21600e76cad66f3b84c86a9281900390910190a1600680546001600160a01b0319166001600160a01b0392909216919091179055565b60058054604080516020601f60026000196101006001881615020190951694909404938401819004810282018101909252828152606093909290918301828280156105605780601f1061053557610100808354040283529160200191610560565b6006546001600160a01b031690565b600061080d600183610eaf565b92915050565b6000546001600160a01b031690565b6000546001600160a01b0316331490565b60038054604080516020601f60026000196101006001881615020190951694909404938401819004810282018101909252828152606093909290918301828280156105605780601f1061053557610100808354040283529160200191610560565b61089c610822565b15156001146108dc5760405162461bcd60e51b81526004018080602001828103825260228152602001806114296022913960400191505060405180910390fd5b6001600160a01b0381166109215760405162461bcd60e51b81526004018080602001828103825260288152602001806113d86028913960400191505060405180910390fd5b61092c600182610e44565b6040516001600160a01b038216907fac6fa858e9350a46cec16539926e0fde25b7629f84b5a72bffaae4df888ae86d90600090a250565b6001600160a01b03919091166000908152600860209081526040808320938352929052205460ff1690565b610996610822565b15156001146109d65760405162461bcd60e51b81526004018080602001828103825260228152602001806114296022913960400191505060405180910390fd5b6001600160a01b038116610a1b5760405162461bcd60e51b81526004018080602001828103825260288152602001806113d86028913960400191505060405180910390fd5b336001600160a01b0382161415610a635760405162461bcd60e51b815260040180806020018281038252603d815260200180611470603d913960400191505060405180910390fd5b610a6e600182610f16565b6040516001600160a01b038216907f80c0b871b97b595b16a7741c1b06fed0c6f6f558639f18ccbce50724325dc40d90600090a250565b610aad610822565b1515600114610aed5760405162461bcd60e51b81526004018080602001828103825260228152602001806114296022913960400191505060405180910390fd5b6040805181815260048054600260001961010060018416150201909116049282018390527f1b0e657c7cde4e75b1e30aeab9b777efdf8b859363ca65aa855ba4cdbf792c21929091849181906020820190606083019086908015610b925780601f10610b6757610100808354040283529160200191610b92565b820191906000526020600020905b815481529060010190602001808311610b7557829003601f168201915b5050838103825284518152845160209182019186019080838360005b83811015610bc6578181015183820152602001610bae565b50505050905090810190601f168015610bf35780820380516001836020036101000a031916815260200191505b5094505050505060405180910390a180516106da906004906020840190611344565b6007546001600160a01b031690565b610c2d33610800565b610c685760405162461bcd60e51b815260040180806020018281038252602881526020018061151c6028913960400191505060405180910390fd5b6001600160a01b038316600090815260086020908152604080832085845290915290205460ff161515600114610ce5576040805162461bcd60e51b815260206004820152601f60248201527f446b6172676f436f6d70616e793a20756e6c61756e63686564206f7264657200604482015290519081900360640190fd5b610cef8382610f7d565b610cf883610fd4565b151560011415610d3c576000610d0d84611037565b6001600160a01b038516600090815260086020908152604080832093835292905220805460ff19166001179055505b505050565b610d4a33610800565b610d855760405162461bcd60e51b815260040180806020018281038252602881526020018061151c6028913960400191505060405180910390fd5b6001600160a01b03909116600090815260086020908152604080832093835292905220805460ff19166001179055565b610dbe8161107a565b610dc781610800565b610e0b57610dd6600182610e44565b6040516001600160a01b038216907fac6fa858e9350a46cec16539926e0fde25b7629f84b5a72bffaae4df888ae86d90600090a25b610e16600133610f16565b60405133907f80c0b871b97b595b16a7741c1b06fed0c6f6f558639f18ccbce50724325dc40d90600090a250565b610e4e8282610eaf565b15610e8a5760405162461bcd60e51b81526004018080602001828103825260238152602001806114d26023913960400191505060405180910390fd5b6001600160a01b0316600090815260209190915260409020805460ff19166001179055565b60006001600160a01b038216610ef65760405162461bcd60e51b81526004018080602001828103825260258152602001806114ad6025913960400191505060405180910390fd5b506001600160a01b03166000908152602091909152604090205460ff1690565b610f208282610eaf565b610f5b5760405162461bcd60e51b815260040180806020018281038252602581526020018061144b6025913960400191505060405180910390fd5b6001600160a01b0316600090815260209190915260409020805460ff19169055565b6040805142602482015260448082018490528251808303909101815260649091019091526020810180516001600160e01b0316636133273360e01b179052610fce6001600160a01b03841682611162565b50505050565b6040805160048152602481019091526020810180516001600160e01b03166343e2fcf760e11b179052600090606090611017906001600160a01b03851690611258565b905080806020019051602081101561102e57600080fd5b50519392505050565b6040805160048152602481019091526020810180516001600160e01b0316635bc34f7160e01b179052600090606090611017906001600160a01b03851690611258565b611082610822565b15156001146110c25760405162461bcd60e51b81526004018080602001828103825260228152602001806114296022913960400191505060405180910390fd5b6001600160a01b0381166111075760405162461bcd60e51b81526004018080602001828103825260278152602001806114f56027913960400191505060405180910390fd5b600080546040516001600160a01b03808516939216917f8be0079c531659141344cd1fd0a4f28419497f9722a3daafe3b4186f6b6457e091a3600080546001600160a01b0319166001600160a01b0392909216919091179055565b606060006060846001600160a01b0316846040518082805190602001908083835b602083106111a25780518252601f199092019160209182019101611183565b6001836020036101000a0380198251168184511680821785525050505050509050019150506000604051808303816000865af19150503d8060008114611204576040519150601f19603f3d011682016040523d82523d6000602084013e611209565b606091505b5090925090506001821515146112505760405162461bcd60e51b81526004018080602001828103825260238152602001806115446023913960400191505060405180910390fd5b949350505050565b606060006060846001600160a01b0316846040518082805190602001908083835b602083106112985780518252601f199092019160209182019101611279565b6001836020036101000a038019825116818451168082178552505050505050905001915050600060405180830381855afa9150503d80600081146112f8576040519150601f19603f3d011682016040523d82523d6000602084013e6112fd565b606091505b5090925090506001821515146112505760405162461bcd60e51b81526004018080602001828103825260298152602001806114006029913960400191505060405180910390fd5b828054600181600116156101000203166002900490600052602060002090601f016020900481019282601f1061138557805160ff19168380011785556113b2565b828001600101855582156113b2579182015b828111156113b2578251825591602001919060010190611397565b506113be9291506113c2565b5090565b5b808211156113be57600081556001016113c356fe4f70657261746f72736869703a2074686520616464726573732063616e6e6f74206265207a65726f416464726573733a2066756e6374696f6e2873746174696363616c6c292063616c6c206661696c65644f776e6572736869703a206f6e6c7920746865206f776e65722063616e2063616c6c526f6c65733a20746865206163636f756e7420646f6573206e6f74206861766520726f6c654f70657261746f72736869703a20746865206f776e65722063616e6e6f742062652072656d6f7665642066726f6d206f70657261746f722067726f7570526f6c65733a20746865206163636f756e742063616e6e6f7420626520746865207a65726f526f6c65733a20746865206163636f756e7420616c72656164792068617320726f6c654f776e6572736869703a206e6577206f776e65722063616e6e6f7420626520746865207a65726f4f70657261746f72736869703a206f6e6c7920746865206f70657261746f722063616e2063616c6c416464726573733a2066756e6374696f6e2863616c6c292063616c6c206661696c6564a264697066735822122079225a8389a0d0dae0c67d44348e9c5f4cbd7b1b2fa2644ff0fbd59e1dd0169d64736f6c63430007000033526f6c65733a20746865206163636f756e742063616e6e6f7420626520746865207a65726f526f6c65733a20746865206163636f756e7420616c72656164792068617320726f6c65",
  "immutableReferences": {},
  "source": "// SPDX-License-Identifier: MIT\npragma solidity >=0.6.0;\n\nimport \"./DkargoPrefix.sol\";\nimport \"./authority/Operatorship.sol\";\nimport \"./introspection/ERC165/ERC165.sol\";\nimport \"./libs/Address.sol\";\nimport \"./libs/math/SafeMath256.sol\";\n\n/// @title DkargoCompany\n/// @notice   \n/// @author jhhong\ncontract DkargoCompany is Operatorship, ERC165, DkargoPrefix {\n    using Address for address;\n    using SafeMath256 for uint256;\n\n    /// @dev  \n    string private _name; //  \n    string private _url; //   URL\n    address private _recipient; //   \n    address private _service; //   \n    mapping(address => mapping(uint256 => bool)) private _todolist; //    \n\n    /// @notice   \n    /// @param oldName   \n    /// @param newName   \n    event CompanyNameSet(string oldName, string newName);\n\n    /// @notice  URL \n    /// @param oldUrl   URL\n    /// @param newUrl   URL\n    event CompanyUrlSet(string oldUrl, string newUrl);\n\n    /// @notice    \n    /// @param oldRecipient   \n    /// @param newRecipient   \n    event CompanyRecipientSet(address oldRecipient, address newRecipient);\n\n    /// @notice  .\n    /// @param name  \n    /// @param url    URL (string)\n    /// @param recipient   \n    /// @param service   \n    constructor(string memory name, string memory url, address recipient, address service) {\n        _setDkargoPrefix(\"company\"); //  \n        _registerInterface(0x946edbed); // INTERFACE ID  (getDkargoPrefix)\n        _name = name;\n        _url = url;\n        _recipient = recipient;\n        _service = service;\n    }\n\n    /// @notice  .\n    /// @dev (todolist ),     \n    /// @param order   \n    /// @param transportid  ()\n    function launch(address order, uint256 transportid) onlyOperator public {\n        _todolist[order][transportid] = true; // (todolist )\n    }\n\n    /// @notice   .\n    /// @dev    (/) ->    \n    /// @param order   \n    /// @param transportid  ()\n    /// @param code   \n    function updateOrderCode(address order, uint256 transportid, uint256 code) onlyOperator public {\n        ////      ( launch   revert )\n        require(_todolist[order][transportid] == true, \"DkargoCompany: unlaunched order\");\n        _submitUpdate(order, code);\n        if(_isOrderLastMile(order) == true) { // \"LastMile  -> \"     Launch  .\n            uint256 tidLastmile = _getOrderCurTransportId(order);\n            _todolist[order][tidLastmile] = true;\n        }\n    }\n\n    /// @notice   .\n    /// @dev onlyOwner\n    /// @param name  \n    function setName(string memory name) onlyOwner public {\n        emit CompanyNameSet(_name, name);\n        _name = name;\n    }\n\n    /// @notice  URL .\n    /// @dev onlyOwner\n    /// @param url  URL\n    function setUrl(string memory url) onlyOwner public {\n        emit CompanyUrlSet(_url, url);\n        _url = url;\n    }\n\n    /// @notice    .\n    /// @dev onlyOwner\n    /// @param recipient   \n    function setRecipient(address recipient) onlyOwner public {\n        emit CompanyRecipientSet(_recipient, recipient);\n        _recipient = recipient;\n    }\n\n    /// @notice     .\n    /// @param order   \n    /// @param transportid  ()\n    /// @return   (bool)\n    function isLaunched(address order, uint256 transportid) public view returns(bool) {\n        return _todolist[order][transportid];\n    }\n\n    /// @notice   .\n    /// @return   (string)\n    function name() public view returns(string memory) {\n        return _name;\n    }\n\n    /// @notice    .\n    /// @return    (address)\n    function recipient() public view returns(address) {\n        return _recipient;\n    }\n\n    /// @notice    .\n    /// @return    (address)\n    function service() public view returns(address) {\n        return _service;\n    }\n\n    /// @notice  URL .\n    /// @return  URL (string)\n    function url() public view returns(string memory) {\n        return _url;\n    }\n\n    /// @notice    LastMile   .\n    /// @param order   \n    /// @return LastMile   (Boolean)\n    function _isOrderLastMile(address order) private view returns(bool) {\n        bytes memory data = address(order)._vcall(abi.encodeWithSignature(\"isLastMile()\"));\n        return abi.decode(data, (bool));\n    }\n\n    /// @notice     .\n    /// @dev     ==     \n    /// @param order   \n    /// @return     (uint256)\n    function _getOrderCurTransportId(address order) private view returns(uint256) {\n        bytes memory data = address(order)._vcall(abi.encodeWithSignature(\"currentStep()\"));\n        return abi.decode(data, (uint256));\n    }\n\n    /// @notice       submitUpdate .\n    /// @param order   \n    /// @param code   \n    function _submitUpdate(address order, uint256 code) private {\n        bytes memory cmd = abi.encodeWithSignature(\"submitOrderUpdate(uint64,uint256)\", block.timestamp, code);\n        address(order)._call(cmd); //     \n    }\n}",
  "sourcePath": "/home/jhhong/work/renewal/dkargo-scm/contracts/DkargoCompany.sol",
  "compiler": {
    "name": "solc",
    "version": "0.7.0+commit.9e61f92b.Emscripten.clang"
  },
  "schemaVersion": "3.2.3",
  "updatedAt": "2020-11-19T06:14:42.968Z",
  "devdoc": {
    "author": "jhhong",
    "events": {
      "CompanyNameSet(string,string)": {
        "params": {
          "newName": "  ",
          "oldName": "  "
        }
      },
      "CompanyRecipientSet(address,address)": {
        "params": {
          "newRecipient": "  ",
          "oldRecipient": "  "
        }
      },
      "CompanyUrlSet(string,string)": {
        "params": {
          "newUrl": "  URL",
          "oldUrl": "  URL"
        }
      }
    },
    "kind": "dev",
    "methods": {
      "addOperator(address)": {
        "details": "   ",
        "params": {
          "account": "  "
        }
      },
      "constructor": {
        "params": {
          "name": " ",
          "recipient": "  ",
          "service": "  ",
          "url": "   URL (string)"
        }
      },
      "getDkargoPrefix()": {
        "returns": {
          "_0": "  (string)"
        }
      },
      "isLaunched(address,uint256)": {
        "params": {
          "order": "  ",
          "transportid": " ()"
        },
        "returns": {
          "_0": "  (bool)"
        }
      },
      "isOperator(address)": {
        "params": {
          "account": " "
        },
        "returns": {
          "_0": "  (boolean)"
        }
      },
      "isOwner()": {
        "returns": {
          "_0": "  (boolean)"
        }
      },
      "launch(address,uint256)": {
        "details": "(todolist ),     ",
        "params": {
          "order": "  ",
          "transportid": " ()"
        }
      },
      "name()": {
        "returns": {
          "_0": "  (string)"
        }
      },
      "owner()": {
        "returns": {
          "_0": " "
        }
      },
      "recipient()": {
        "returns": {
          "_0": "   (address)"
        }
      },
      "removeOperator(address)": {
        "details": "   ",
        "params": {
          "account": "  "
        }
      },
      "service()": {
        "returns": {
          "_0": "   (address)"
        }
      },
      "setName(string)": {
        "details": "onlyOwner",
        "params": {
          "name": " "
        }
      },
      "setRecipient(address)": {
        "details": "onlyOwner",
        "params": {
          "recipient": "  "
        }
      },
      "setUrl(string)": {
        "details": "onlyOwner",
        "params": {
          "url": " URL"
        }
      },
      "supportsInterface(bytes4)": {
        "params": {
          "infcid": "  INTERFACE ID (Function Selector)"
        },
        "returns": {
          "_0": " (boolean)"
        }
      },
      "transferOwnership(address)": {
        "details": "    ,      .",
        "params": {
          "expected": "  "
        }
      },
      "updateOrderCode(address,uint256,uint256)": {
        "details": "   (/) ->    ",
        "params": {
          "code": "  ",
          "order": "  ",
          "transportid": " ()"
        }
      },
      "url()": {
        "returns": {
          "_0": " URL (string)"
        }
      }
    },
    "stateVariables": {
      "_name": {
        "details": " "
      }
    },
    "title": "DkargoCompany",
    "version": 1
  },
  "userdoc": {
    "events": {
      "CompanyNameSet(string,string)": {
        "notice": "  "
      },
      "CompanyRecipientSet(address,address)": {
        "notice": "   "
      },
      "CompanyUrlSet(string,string)": {
        "notice": " URL "
      },
      "OperatorAdded(address)": {
        "notice": "  "
      },
      "OperatorRemoved(address)": {
        "notice": "  "
      },
      "OwnershipTransferred(address,address)": {
        "notice": "  "
      }
    },
    "kind": "user",
    "methods": {
      "addOperator(address)": {
        "notice": " ."
      },
      "constructor": {
        "notice": " ."
      },
      "getDkargoPrefix()": {
        "notice": "  ."
      },
      "isLaunched(address,uint256)": {
        "notice": "    ."
      },
      "isOperator(address)": {
        "notice": " ."
      },
      "isOwner()": {
        "notice": " ."
      },
      "launch(address,uint256)": {
        "notice": " ."
      },
      "name()": {
        "notice": "  ."
      },
      "owner()": {
        "notice": "  ."
      },
      "recipient()": {
        "notice": "   ."
      },
      "removeOperator(address)": {
        "notice": " ."
      },
      "service()": {
        "notice": "   ."
      },
      "setName(string)": {
        "notice": "  ."
      },
      "setRecipient(address)": {
        "notice": "   ."
      },
      "setUrl(string)": {
        "notice": " URL ."
      },
      "supportsInterface(bytes4)": {
        "notice": " INTERFACE ID   ."
      },
      "transferOwnership(address)": {
        "notice": " ."
      },
      "updateOrderCode(address,uint256,uint256)": {
        "notice": "  ."
      },
      "url()": {
        "notice": " URL ."
      }
    },
    "notice": "  ",
    "version": 1
  }
}