{
  "contractName": "DkargoFund",
  "abi": [
    {
      "inputs": [
        {
          "internalType": "address",
          "name": "token",
          "type": "address"
        },
        {
          "internalType": "address",
          "name": "beneficier",
          "type": "address"
        }
      ],
      "stateMutability": "nonpayable",
      "type": "constructor"
    },
    {
      "anonymous": false,
      "inputs": [
        {
          "indexed": true,
          "internalType": "address",
          "name": "beneficier",
          "type": "address"
        }
      ],
      "name": "BeneficierUpdated",
      "type": "event"
    },
    {
      "anonymous": false,
      "inputs": [
        {
          "indexed": true,
          "internalType": "address",
          "name": "old",
          "type": "address"
        },
        {
          "indexed": true,
          "internalType": "address",
          "name": "expected",
          "type": "address"
        }
      ],
      "name": "OwnershipTransferred",
      "type": "event"
    },
    {
      "anonymous": false,
      "inputs": [
        {
          "indexed": false,
          "internalType": "uint64",
          "name": "time",
          "type": "uint64"
        },
        {
          "indexed": false,
          "internalType": "uint256",
          "name": "amount",
          "type": "uint256"
        }
      ],
      "name": "PlanSet",
      "type": "event"
    },
    {
      "anonymous": false,
      "inputs": [
        {
          "indexed": false,
          "internalType": "uint256",
          "name": "amount",
          "type": "uint256"
        }
      ],
      "name": "Withdraw",
      "type": "event"
    },
    {
      "inputs": [],
      "name": "getDkargoPrefix",
      "outputs": [
        {
          "internalType": "string",
          "name": "",
          "type": "string"
        }
      ],
      "stateMutability": "view",
      "type": "function"
    },
    {
      "inputs": [],
      "name": "isOwner",
      "outputs": [
        {
          "internalType": "bool",
          "name": "",
          "type": "bool"
        }
      ],
      "stateMutability": "view",
      "type": "function"
    },
    {
      "inputs": [],
      "name": "owner",
      "outputs": [
        {
          "internalType": "address",
          "name": "",
          "type": "address"
        }
      ],
      "stateMutability": "view",
      "type": "function"
    },
    {
      "inputs": [
        {
          "internalType": "bytes4",
          "name": "infcid",
          "type": "bytes4"
        }
      ],
      "name": "supportsInterface",
      "outputs": [
        {
          "internalType": "bool",
          "name": "",
          "type": "bool"
        }
      ],
      "stateMutability": "view",
      "type": "function"
    },
    {
      "inputs": [
        {
          "internalType": "address",
          "name": "expected",
          "type": "address"
        }
      ],
      "name": "transferOwnership",
      "outputs": [],
      "stateMutability": "nonpayable",
      "type": "function"
    },
    {
      "inputs": [
        {
          "internalType": "address",
          "name": "beneficier",
          "type": "address"
        }
      ],
      "name": "setBeneficier",
      "outputs": [],
      "stateMutability": "nonpayable",
      "type": "function"
    },
    {
      "inputs": [
        {
          "internalType": "uint64",
          "name": "time",
          "type": "uint64"
        },
        {
          "internalType": "uint256",
          "name": "amount",
          "type": "uint256"
        }
      ],
      "name": "setPlan",
      "outputs": [],
      "stateMutability": "nonpayable",
      "type": "function"
    },
    {
      "inputs": [
        {
          "internalType": "uint64",
          "name": "index",
          "type": "uint64"
        }
      ],
      "name": "withdraw",
      "outputs": [],
      "stateMutability": "nonpayable",
      "type": "function"
    },
    {
      "inputs": [],
      "name": "fundAmount",
      "outputs": [
        {
          "internalType": "uint256",
          "name": "",
          "type": "uint256"
        }
      ],
      "stateMutability": "view",
      "type": "function"
    },
    {
      "inputs": [],
      "name": "totalPlannedAmount",
      "outputs": [
        {
          "internalType": "uint256",
          "name": "",
          "type": "uint256"
        }
      ],
      "stateMutability": "view",
      "type": "function"
    },
    {
      "inputs": [
        {
          "internalType": "uint64",
          "name": "index",
          "type": "uint64"
        }
      ],
      "name": "plannedAmountOf",
      "outputs": [
        {
          "internalType": "uint256",
          "name": "",
          "type": "uint256"
        }
      ],
      "stateMutability": "view",
      "type": "function"
    },
    {
      "inputs": [],
      "name": "beneficier",
      "outputs": [
        {
          "internalType": "address",
          "name": "",
          "type": "address"
        }
      ],
      "stateMutability": "view",
      "type": "function"
    },
    {
      "inputs": [],
      "name": "token",
      "outputs": [
        {
          "internalType": "address",
          "name": "",
          "type": "address"
        }
      ],
      "stateMutability": "view",
      "type": "function"
    }
  ],
  "bytecode": "0x60806040523480156200001157600080fd5b506040516200165438038062001654833981810160405260408110156200003757600080fd5b5080516020909101516000805460405133926001600160a01b03909216917f8be0079c531659141344cd1fd0a4f28419497f9722a3daafe3b4186f6b6457e091a3600080546001600160a01b03191633179055620000b57f01ffc9a7000000000000000000000000000000000000000000000000000000006200023d565b6001600160a01b0382166200012b57604080517f08c379a000000000000000000000000000000000000000000000000000000000815260206004820152601960248201527f446b6172676f46756e643a20746f6b656e206973206e756c6c00000000000000604482015290519081900360640190fd5b6001600160a01b038116620001a157604080517f08c379a000000000000000000000000000000000000000000000000000000000815260206004820152601e60248201527f446b6172676f46756e643a2062656e65666963696572206973206e756c6c0000604482015290519081900360640190fd5b60408051808201909152600481527f66756e64000000000000000000000000000000000000000000000000000000006020820152620001e0906200030f565b6200020b7f946edbed000000000000000000000000000000000000000000000000000000006200023d565b600480546001600160a01b039384166001600160a01b03199182161790915560038054929093169116179055620003c4565b7fffffffff000000000000000000000000000000000000000000000000000000008082161415620002cf57604080517f08c379a000000000000000000000000000000000000000000000000000000000815260206004820152601c60248201527f4552433136353a20696e76616c696420696e7465726661636520696400000000604482015290519081900360640190fd5b7fffffffff00000000000000000000000000000000000000000000000000000000166000908152600160208190526040909120805460ff19169091179055565b80516200032490600290602084019062000328565b5050565b828054600181600116156101000203166002900490600052602060002090601f016020900481019282601f106200036b57805160ff19168380011785556200039b565b828001600101855582156200039b579182015b828111156200039b5782518255916020019190600101906200037e565b50620003a9929150620003ad565b5090565b5b80821115620003a95760008155600101620003ae565b61128080620003d46000396000f3fe608060405234801561001057600080fd5b50600436106100cf5760003560e01c8063946edbed1161008c578063bbfb474411610066578063bbfb474414610254578063f0abf9211461025c578063f2fde38b14610282578063fc0c546a146102a8576100cf565b8063946edbed146101a3578063aaf7e70414610220578063b33bf30214610228576100cf565b806301ffc9a7146100d4578063117d03131461010f5780633bb5eadf14610147578063750f0acc1461014f5780638da5cb5b146101775780638f32d59b1461019b575b600080fd5b6100fb600480360360208110156100ea57600080fd5b50356001600160e01b0319166102b0565b604080519115158252519081900360200190f35b6101356004803603602081101561012557600080fd5b50356001600160401b03166102cf565b60408051918252519081900360200190f35b6101356102ea565b6101756004803603602081101561016557600080fd5b50356001600160401b03166102f0565b005b61017f610574565b604080516001600160a01b039092168252519081900360200190f35b6100fb610583565b6101ab610594565b6040805160208082528351818301528351919283929083019185019080838360005b838110156101e55781810151838201526020016101cd565b50505050905090810190601f1680156102125780820380516001836020036101000a031916815260200191505b509250505060405180910390f35b610135610627565b6101756004803603604081101561023e57600080fd5b506001600160401b03813516906020013561069f565b61017f610862565b6101756004803603602081101561027257600080fd5b50356001600160a01b0316610871565b6101756004803603602081101561029857600080fd5b50356001600160a01b03166109c1565b61017f610aa9565b6001600160e01b03191660009081526001602052604090205460ff1690565b6001600160401b031660009081526006602052604090205490565b60055490565b6102f8610583565b15156001146103385760405162461bcd60e51b815260040180806020018281038252602281526020018061114a6022913960400191505060405180910390fd5b42816001600160401b03161115610396576040805162461bcd60e51b815260206004820152601d60248201527f446b6172676f46756e643a20616e20756e6578706972656420706c616e000000604482015290519081900360640190fd5b6001600160401b038116600090815260066020526040902054610400576040805162461bcd60e51b815260206004820152601b60248201527f446b6172676f46756e643a20706c616e206973206e6f74207365740000000000604482015290519081900360640190fd5b6003546001600160401b0382166000908152600660209081526040918290205482516001600160a01b03948516602482015260448082019290925283518082039092018252606401909252810180516001600160e01b031663a9059cbb60e01b1790526004549091606091610476911683610ab8565b9050600081806020019051602081101561048f57600080fd5b505190506001811515146104d45760405162461bcd60e51b81526004018080602001828103825260268152602001806111946026913960400191505060405180910390fd5b6001600160401b0384166000908152600660205260409020546005546104f991610bb0565b6005556001600160401b03841660009081526006602090815260409182902054825190815291517f5b6b431d4476a211bb7d41c20d1aab9ae2321deee0d20be3d9fc9b1093fa6e3d9281900390910190a16001600160401b03841660009081526006602052604081205561056e600785610bdc565b50505050565b6000546001600160a01b031690565b6000546001600160a01b0316331490565b60028054604080516020601f600019610100600187161502019094168590049384018190048102820181019092528281526060939092909183018282801561061d5780601f106105f25761010080835404028352916020019161061d565b820191906000526020600020905b81548152906001019060200180831161060057829003601f168201915b5050505050905090565b60408051306024808301919091528251808303909101815260449091019091526020810180516001600160e01b03166370a0823160e01b179052600454600091606091610680916001600160a01b039190911690610d88565b905080806020019051602081101561069757600080fd5b505191505090565b6106a7610583565b15156001146106e75760405162461bcd60e51b815260040180806020018281038252602281526020018061114a6022913960400191505060405180910390fd5b42826001600160401b031611610744576040805162461bcd60e51b815260206004820152601860248201527f446b6172676f46756e643a20696e76616c69642074696d650000000000000000604482015290519081900360640190fd5b6005546107519082610e74565b60058190556001600160401b0383166000908152600660205260409020546107799190610bb0565b600555610784610627565b60055411156107da576040805162461bcd60e51b815260206004820152601a60248201527f446b6172676f46756e643a206f76657220746865206c696d6974000000000000604482015290519081900360640190fd5b6001600160401b0382166000818152600660209081526040918290208490558151928352820183905280517fc58d755db2c447bfe0e77e07f197d5d2f27678b5924522ca5e25bf93568980759281900390910190a1806108445761083f600783610bdc565b61085e565b61084f600783610ece565b61085e5761085e600783610f80565b5050565b6003546001600160a01b031690565b610879610583565b15156001146108b95760405162461bcd60e51b815260040180806020018281038252602281526020018061114a6022913960400191505060405180910390fd5b6001600160a01b038116610914576040805162461bcd60e51b815260206004820152601e60248201527f446b6172676f46756e643a2062656e65666963696572206973206e756c6c0000604482015290519081900360640190fd5b6003546001600160a01b0382811691161415610977576040805162461bcd60e51b815260206004820152601f60248201527f446b6172676f46756e643a2073686f756c64206265206e6f7420657175616c00604482015290519081900360640190fd5b600380546001600160a01b0319166001600160a01b0383169081179091556040517f33148f35f29a2ca994dd1d169445867d3aeb413b72e44e0f878bc412d3df5ead90600090a250565b6109c9610583565b1515600114610a095760405162461bcd60e51b815260040180806020018281038252602281526020018061114a6022913960400191505060405180910390fd5b6001600160a01b038116610a4e5760405162461bcd60e51b81526004018080602001828103825260278152602001806111e06027913960400191505060405180910390fd5b600080546040516001600160a01b03808516939216917f8be0079c531659141344cd1fd0a4f28419497f9722a3daafe3b4186f6b6457e091a3600080546001600160a01b0319166001600160a01b0392909216919091179055565b6004546001600160a01b031690565b606060006060846001600160a01b0316846040518082805190602001908083835b60208310610af85780518252601f199092019160209182019101610ad9565b6001836020036101000a0380198251168184511680821785525050505050509050019150506000604051808303816000865af19150503d8060008114610b5a576040519150601f19603f3d011682016040523d82523d6000602084013e610b5f565b606091505b509092509050600182151514610ba65760405162461bcd60e51b81526004018080602001828103825260238152602001806112286023913960400191505060405180910390fd5b9150505b92915050565b6000610bd5838360405180606001604052806021815260200161120760219139611089565b9392505050565b610be68282610ece565b610c215760405162461bcd60e51b815260040180806020018281038252602881526020018061116c6028913960400191505060405180910390fd5b6001600160401b038082166000818152600285016020526040902054600185015481841693600160401b90920482169291161415610c785760018401805467ffffffffffffffff19166001600160401b0383161790555b60018401546001600160401b03848116600160401b909204161415610cbf5760018401805467ffffffffffffffff60401b1916600160401b6001600160401b038516021790555b6001600160401b03821615610d1c576001600160401b038281166000908152600286016020526040808220805467ffffffffffffffff60401b1916600160401b86861602179055918516815220805467ffffffffffffffff191690555b6001600160401b03811615610d73576001600160401b038181166000908152600286016020526040808220805467ffffffffffffffff1916868516179055918516815220805467ffffffffffffffff60401b191690555b8354610d80906001610bb0565b909355505050565b606060006060846001600160a01b0316846040518082805190602001908083835b60208310610dc85780518252601f199092019160209182019101610da9565b6001836020036101000a038019825116818451168082178552505050505050905001915050600060405180830381855afa9150503d8060008114610e28576040519150601f19603f3d011682016040523d82523d6000602084013e610e2d565b606091505b509092509050600182151514610ba65760405162461bcd60e51b81526004018080602001828103825260298152602001806111216029913960400191505060405180910390fd5b600082820183811015610bd5576040805162461bcd60e51b815260206004820152601e60248201527f536166654d6174683235363a206164646974696f6e206f766572666c6f770000604482015290519081900360640190fd5b81546000906001148015610ef1575060018301546001600160401b038381169116145b8015610f13575060018301546001600160401b03838116600160401b90920416145b15610f2057506001610baa565b6001600160401b03828116600090815260028501602052604090205416158015610f6b57506001600160401b038281166000908152600285016020526040902054600160401b900416155b610f76576001610f79565b60005b9050610baa565b610f8a8282610ece565b15610fc65760405162461bcd60e51b81526004018080602001828103825260268152602001806111ba6026913960400191505060405180910390fd5b81546110095760018201805467ffffffffffffffff60401b1916600160401b6001600160401b0384169081029190911767ffffffffffffffff1916179055611076565b6001820180546001600160401b038381166000818152600287016020526040808220805467ffffffffffffffff1916600160401b968790048616179055855485900490931681529190912080549190920267ffffffffffffffff60401b1991821681179092558254161790555b8154611083906001610e74565b90915550565b600081848411156111185760405162461bcd60e51b81526004018080602001828103825283818151815260200191508051906020019080838360005b838110156110dd5781810151838201526020016110c5565b50505050905090810190601f16801561110a5780820380516001836020036101000a031916815260200191505b509250505060405180910390fd5b50505090039056fe416464726573733a2066756e6374696f6e2873746174696363616c6c292063616c6c206661696c65644f776e6572736869703a206f6e6c7920746865206f776e65722063616e2063616c6c436861696e55696e7436343a20746865206e6f646520697320616c6561647920756e6c696e6b6564446b6172676f46756e643a206661696c656420746f2070726f63656564207261772d64617461436861696e55696e7436343a20746865206e6f646520697320616c65616479206c696e6b65644f776e6572736869703a206e6577206f776e65722063616e6e6f7420626520746865207a65726f536166654d6174683235363a207375627472616374696f6e206f766572666c6f77416464726573733a2066756e6374696f6e2863616c6c292063616c6c206661696c6564a264697066735822122024596d13a9fbe5c6762b9782ae2c8571b04463c4890ebb176d3831b06f55439964736f6c63430007000033",
  "immutableReferences": {},
  "source": "// SPDX-License-Identifier: MIT\npragma solidity >=0.6.0;\n\nimport \"./DkargoPrefix.sol\";\nimport \"./authority/Ownership.sol\";\nimport \"./introspection/ERC165/ERC165.sol\";\nimport \"./libs/Address.sol\";\nimport \"./libs/chain/ChainUint64.sol\";\nimport \"./libs/chain/Typedef.sol\";\nimport \"./libs/math/SafeMath256.sol\";\n\n/// @title DkargoFund\n/// @notice 디카르고 펀드 컨트랙트 정의\n/// @author jhhong\ncontract DkargoFund is Ownership, ERC165, DkargoPrefix {\n    using Address for address;\n    using SafeMath256 for uint256;\n    using ChainUint64 for Typedef.Uint64List;\n\n    /// @dev 변수 선언\n    address private _beneficier; // 수취인 주소\n    address private _token; // 토큰 컨트랙트 주소\n    uint256 private _totals; // 플랜에 기록된 총 인출량, 펀드의 보유 토큰량을 초과할 수 없다.\n    mapping(uint64 => uint256) private _plans; // 락업 플랜\n    Typedef.Uint64List private _planchain; // 락업 플랜 체인\n\n    /// @notice 수취인 주소 업데이트 이벤트\n    /// @param beneficier 수취인 주소\n    event BeneficierUpdated(address indexed beneficier);\n\n    /// @notice lock-up 플랜 설정 이벤트\n    /// @dev amount = 0이면 lock-up 플랜 제거 이벤트이다.\n    /// @param time unlock될 시각 (epoch time)\n    /// @param amount unlock될 양\n    event PlanSet(uint64 time, uint256 amount);\n\n    /// @notice 인출 이벤트\n    /// @param amount 인출 금액\n    event Withdraw(uint256 amount);\n\n    /// @notice 컨트랙트 생성자이다.\n    /// @param token 토큰 컨트랙트 주소\n    /// @param beneficier 수취인 주소\n    constructor(address token, address beneficier) {\n        require(token != address(0), \"DkargoFund: token is null\");\n        require(beneficier != address(0), \"DkargoFund: beneficier is null\");\n        _setDkargoPrefix(\"fund\"); // 프리픽스 설정 (fund)\n        _registerInterface(0x946edbed); // INTERFACE ID 등록 (getDkargoPrefix)\n        _token = token;\n        _beneficier = beneficier;\n    }\n\n    /// @notice 인출금액 수취인을 설정한다.\n    /// @dev 수취인 주소로 EOA, CA 다 설정 가능하다.\n    /// @param beneficier 설정할 수취인 주소 (address)\n    function setBeneficier(address beneficier) onlyOwner public {\n        require(beneficier != address(0), \"DkargoFund: beneficier is null\");\n        require(beneficier != _beneficier, \"DkargoFund: should be not equal\");\n        _beneficier = beneficier;\n        emit BeneficierUpdated(beneficier);\n    }\n\n    /// @notice 인출 플랜을 추가한다.\n    /// @dev amount!=0이면 새 플랜을 추가한다는 의미이다. linkChain 과정이 수행된다. 기존에 설정된 플랜이 있을 경우 덮어쓴다.\n    /// amount=0이면 플랜을 삭제한다는 의미이다. unlinkChain 과정이 수행된다. 기존에 설정된 플랜이 없을 경우 revert된다.\n    /// time은 현재 시각(block.timestamp)보다 큰 값이어야 한다.\n    /// 설정된 플랜들의 모든 amount의 합은 balanceOf(fundCA)를 초과할 수 없다.\n    /// @param time 인출 가능한 시각\n    /// @param amount 인출 가능한 금액\n    function setPlan(uint64 time, uint256 amount) onlyOwner public {\n        require(time > block.timestamp, \"DkargoFund: invalid time\");\n        _totals = _totals.add(amount); // 추가될 플랜 금액을 총 플랜금액에 합산\n        _totals = _totals.sub(_plans[time]); // 총 플랜금액에서 기존 설정된 금액을 차감\n        require(_totals <= fundAmount(), \"DkargoFund: over the limit\"); // 총 플랜금액 체크\n        _plans[time] = amount; // 플랜 금액 갱신\n        emit PlanSet(time, amount); // 이벤트 발생\n        if(amount == 0) { // 체인정보 갱신\n            _planchain.unlinkChain(time); // 기존에 설정되지 않았을 경우, revert(\"AddressChain: the node is aleady unlinked\")\n        } else if(_planchain.isLinked(time) == false) { // 새 설정일 경우에만 체인추가, 기존 설정이 있을 경우, 값만 갱신하고 체인 정보는 갱신하지 않음\n            _planchain.linkChain(time);\n        }\n    }\n\n    /// @notice 토큰을 지정된 수취인에게로 인출한다.\n    /// @dev 만료되지 않은 index는 인출 불가능하다. revert!\n    /// 설정되지 않은 (혹은 해제된) 플랜 인덱스에 대해서는 revert!\n    /// @param index 플랜 인덱스, setPlan에서 넣어줬던 인출 가능 시각이다.\n    function withdraw(uint64 index) onlyOwner public {\n        require(index <= block.timestamp, \"DkargoFund: an unexpired plan\");\n        require(_plans[index] > 0, \"DkargoFund: plan is not set\");\n        bytes memory cmd = abi.encodeWithSignature(\"transfer(address,uint256)\", _beneficier, _plans[index]);\n        bytes memory data = address(_token)._call(cmd);\n        bool result = abi.decode(data, (bool));\n        require(result == true, \"DkargoFund: failed to proceed raw-data\");\n        _totals = _totals.sub(_plans[index]); // 총 플랜금액에서 기존 설정된 금액을 차감\n        emit Withdraw(_plans[index]);\n        _plans[index] = 0;\n        _planchain.unlinkChain(index);\n    }\n\n    /// @notice Fund 컨트랙트의 밸런스를 확인한다.\n    /// @return Fund 컨트랙트의 밸런스 (uint256)\n    function fundAmount() public view returns(uint256) {\n        bytes memory data = address(_token)._vcall(abi.encodeWithSignature(\"balanceOf(address)\", address(this)));\n        return abi.decode(data, (uint256));\n    }\n\n    /// @notice 플랜에 기록된 총 금액을 확인한다.\n    /// @return 플랜에 기록된 총 금액 (uint256)\n    function totalPlannedAmount() public view returns(uint256) {\n        return _totals;\n    }\n\n    /// @notice 플랜 인덱스에 해당하는 인출 금액을 확인한다.\n    /// @param index 플랜 인덱스, setPlan에서 넣어줬던 인출 가능 시각이다.\n    /// @return 플랜 인덱스에 해당하는 인출 금액 (uint256)\n    function plannedAmountOf(uint64 index) public view returns(uint256) {\n        return _plans[index];\n    }\n\n    /// @notice 수취인 주소를 확인한다.\n    /// @return 수취인 주소 (address)\n    function beneficier() public view returns(address) {\n        return _beneficier;\n    }\n\n    /// @notice 토큰(ERC-20) 주소를 확인한다.\n    /// @return 토큰 주소 (address)\n    function token() public view returns(address) {\n        return _token;\n    }\n}",
  "sourcePath": "/home/jhhong/work/renewal/dkargo-scm/contracts/DkargoFund.sol",
  "compiler": {
    "name": "solc",
    "version": "0.7.0+commit.9e61f92b.Emscripten.clang"
  },
  "schemaVersion": "3.2.3",
  "updatedAt": "2020-11-04T09:32:53.767Z",
  "devdoc": {
    "author": "jhhong",
    "events": {
      "BeneficierUpdated(address)": {
        "params": {
          "beneficier": "수취인 주소"
        }
      },
      "PlanSet(uint64,uint256)": {
        "details": "amount = 0이면 lock-up 플랜 제거 이벤트이다.",
        "params": {
          "amount": "unlock될 양",
          "time": "unlock될 시각 (epoch time)"
        }
      },
      "Withdraw(uint256)": {
        "params": {
          "amount": "인출 금액"
        }
      }
    },
    "kind": "dev",
    "methods": {
      "beneficier()": {
        "returns": {
          "_0": "수취인 주소 (address)"
        }
      },
      "constructor": {
        "params": {
          "beneficier": "수취인 주소",
          "token": "토큰 컨트랙트 주소"
        }
      },
      "fundAmount()": {
        "returns": {
          "_0": "Fund 컨트랙트의 밸런스 (uint256)"
        }
      },
      "getDkargoPrefix()": {
        "returns": {
          "_0": "디카르고 프리픽스 (string)"
        }
      },
      "isOwner()": {
        "returns": {
          "_0": "확인 결과 (boolean)"
        }
      },
      "owner()": {
        "returns": {
          "_0": "오너 주소"
        }
      },
      "plannedAmountOf(uint64)": {
        "params": {
          "index": "플랜 인덱스, setPlan에서 넣어줬던 인출 가능 시각이다."
        },
        "returns": {
          "_0": "플랜 인덱스에 해당하는 인출 금액 (uint256)"
        }
      },
      "setBeneficier(address)": {
        "details": "수취인 주소로 EOA, CA 다 설정 가능하다.",
        "params": {
          "beneficier": "설정할 수취인 주소 (address)"
        }
      },
      "setPlan(uint64,uint256)": {
        "details": "amount!=0이면 새 플랜을 추가한다는 의미이다. linkChain 과정이 수행된다. 기존에 설정된 플랜이 있을 경우 덮어쓴다. amount=0이면 플랜을 삭제한다는 의미이다. unlinkChain 과정이 수행된다. 기존에 설정된 플랜이 없을 경우 revert된다. time은 현재 시각(block.timestamp)보다 큰 값이어야 한다. 설정된 플랜들의 모든 amount의 합은 balanceOf(fundCA)를 초과할 수 없다.",
        "params": {
          "amount": "인출 가능한 금액",
          "time": "인출 가능한 시각"
        }
      },
      "supportsInterface(bytes4)": {
        "params": {
          "infcid": "지원여부를 확인할 INTERFACE ID (Function Selector)"
        },
        "returns": {
          "_0": "지원여부 (boolean)"
        }
      },
      "token()": {
        "returns": {
          "_0": "토큰 주소 (address)"
        }
      },
      "totalPlannedAmount()": {
        "returns": {
          "_0": "플랜에 기록된 총 금액 (uint256)"
        }
      },
      "transferOwnership(address)": {
        "params": {
          "expected": "새로운 오너 계정"
        }
      },
      "withdraw(uint64)": {
        "details": "만료되지 않은 index는 인출 불가능하다. revert! 설정되지 않은 (혹은 해제된) 플랜 인덱스에 대해서는 revert!",
        "params": {
          "index": "플랜 인덱스, setPlan에서 넣어줬던 인출 가능 시각이다."
        }
      }
    },
    "stateVariables": {
      "_beneficier": {
        "details": "변수 선언"
      }
    },
    "title": "DkargoFund",
    "version": 1
  },
  "userdoc": {
    "events": {
      "BeneficierUpdated(address)": {
        "notice": "수취인 주소 업데이트 이벤트"
      },
      "OwnershipTransferred(address,address)": {
        "notice": "소유권 양도 이벤트"
      },
      "PlanSet(uint64,uint256)": {
        "notice": "lock-up 플랜 설정 이벤트"
      },
      "Withdraw(uint256)": {
        "notice": "인출 이벤트"
      }
    },
    "kind": "user",
    "methods": {
      "beneficier()": {
        "notice": "수취인 주소를 확인한다."
      },
      "constructor": {
        "notice": "컨트랙트 생성자이다."
      },
      "fundAmount()": {
        "notice": "Fund 컨트랙트의 밸런스를 확인한다."
      },
      "getDkargoPrefix()": {
        "notice": "디카르고 프리픽스를 반환한다."
      },
      "isOwner()": {
        "notice": "소유자인지 확인한다."
      },
      "owner()": {
        "notice": "오너 주소를 반환한다."
      },
      "plannedAmountOf(uint64)": {
        "notice": "플랜 인덱스에 해당하는 인출 금액을 확인한다."
      },
      "setBeneficier(address)": {
        "notice": "인출금액 수취인을 설정한다."
      },
      "setPlan(uint64,uint256)": {
        "notice": "인출 플랜을 추가한다."
      },
      "supportsInterface(bytes4)": {
        "notice": "컨트랙트가 INTERFACE ID를 지원하는지의 여부를 반환한다."
      },
      "token()": {
        "notice": "토큰(ERC-20) 주소를 확인한다."
      },
      "totalPlannedAmount()": {
        "notice": "플랜에 기록된 총 금액을 확인한다."
      },
      "transferOwnership(address)": {
        "notice": "소유권을 넘겨준다."
      },
      "withdraw(uint64)": {
        "notice": "토큰을 지정된 수취인에게로 인출한다."
      }
    },
    "notice": "디카르고 펀드 컨트랙트 정의",
    "version": 1
  }
}