{
  "contractName": "DkargoToken",
  "abi": [
    {
      "inputs": [
        {
          "internalType": "string",
          "name": "name",
          "type": "string"
        },
        {
          "internalType": "string",
          "name": "symbol",
          "type": "string"
        },
        {
          "internalType": "uint256",
          "name": "supply",
          "type": "uint256"
        }
      ],
      "stateMutability": "nonpayable",
      "type": "constructor"
    },
    {
      "anonymous": false,
      "inputs": [
        {
          "indexed": true,
          "internalType": "address",
          "name": "owner",
          "type": "address"
        },
        {
          "indexed": true,
          "internalType": "address",
          "name": "spender",
          "type": "address"
        },
        {
          "indexed": false,
          "internalType": "uint256",
          "name": "value",
          "type": "uint256"
        }
      ],
      "name": "Approval",
      "type": "event"
    },
    {
      "anonymous": false,
      "inputs": [
        {
          "indexed": true,
          "internalType": "address",
          "name": "old",
          "type": "address"
        },
        {
          "indexed": true,
          "internalType": "address",
          "name": "expected",
          "type": "address"
        }
      ],
      "name": "OwnershipTransferred",
      "type": "event"
    },
    {
      "anonymous": false,
      "inputs": [
        {
          "indexed": true,
          "internalType": "address",
          "name": "from",
          "type": "address"
        },
        {
          "indexed": true,
          "internalType": "address",
          "name": "to",
          "type": "address"
        },
        {
          "indexed": false,
          "internalType": "uint256",
          "name": "value",
          "type": "uint256"
        }
      ],
      "name": "Transfer",
      "type": "event"
    },
    {
      "inputs": [
        {
          "internalType": "address",
          "name": "approver",
          "type": "address"
        },
        {
          "internalType": "address",
          "name": "spender",
          "type": "address"
        }
      ],
      "name": "allowance",
      "outputs": [
        {
          "internalType": "uint256",
          "name": "",
          "type": "uint256"
        }
      ],
      "stateMutability": "view",
      "type": "function"
    },
    {
      "inputs": [
        {
          "internalType": "address",
          "name": "spender",
          "type": "address"
        },
        {
          "internalType": "uint256",
          "name": "amount",
          "type": "uint256"
        }
      ],
      "name": "approve",
      "outputs": [
        {
          "internalType": "bool",
          "name": "",
          "type": "bool"
        }
      ],
      "stateMutability": "nonpayable",
      "type": "function"
    },
    {
      "inputs": [
        {
          "internalType": "address",
          "name": "account",
          "type": "address"
        }
      ],
      "name": "balanceOf",
      "outputs": [
        {
          "internalType": "uint256",
          "name": "",
          "type": "uint256"
        }
      ],
      "stateMutability": "view",
      "type": "function"
    },
    {
      "inputs": [
        {
          "internalType": "address",
          "name": "spender",
          "type": "address"
        },
        {
          "internalType": "uint256",
          "name": "subtractedValue",
          "type": "uint256"
        }
      ],
      "name": "decreaseAllowance",
      "outputs": [
        {
          "internalType": "bool",
          "name": "",
          "type": "bool"
        }
      ],
      "stateMutability": "nonpayable",
      "type": "function"
    },
    {
      "inputs": [],
      "name": "getDkargoPrefix",
      "outputs": [
        {
          "internalType": "string",
          "name": "",
          "type": "string"
        }
      ],
      "stateMutability": "view",
      "type": "function"
    },
    {
      "inputs": [
        {
          "internalType": "address",
          "name": "spender",
          "type": "address"
        },
        {
          "internalType": "uint256",
          "name": "addedValue",
          "type": "uint256"
        }
      ],
      "name": "increaseAllowance",
      "outputs": [
        {
          "internalType": "bool",
          "name": "",
          "type": "bool"
        }
      ],
      "stateMutability": "nonpayable",
      "type": "function"
    },
    {
      "inputs": [],
      "name": "isOwner",
      "outputs": [
        {
          "internalType": "bool",
          "name": "",
          "type": "bool"
        }
      ],
      "stateMutability": "view",
      "type": "function"
    },
    {
      "inputs": [],
      "name": "owner",
      "outputs": [
        {
          "internalType": "address",
          "name": "",
          "type": "address"
        }
      ],
      "stateMutability": "view",
      "type": "function"
    },
    {
      "inputs": [
        {
          "internalType": "bytes4",
          "name": "infcid",
          "type": "bytes4"
        }
      ],
      "name": "supportsInterface",
      "outputs": [
        {
          "internalType": "bool",
          "name": "",
          "type": "bool"
        }
      ],
      "stateMutability": "view",
      "type": "function"
    },
    {
      "inputs": [],
      "name": "totalSupply",
      "outputs": [
        {
          "internalType": "uint256",
          "name": "",
          "type": "uint256"
        }
      ],
      "stateMutability": "view",
      "type": "function"
    },
    {
      "inputs": [
        {
          "internalType": "address",
          "name": "expected",
          "type": "address"
        }
      ],
      "name": "transferOwnership",
      "outputs": [],
      "stateMutability": "nonpayable",
      "type": "function"
    },
    {
      "inputs": [
        {
          "internalType": "uint256",
          "name": "amount",
          "type": "uint256"
        }
      ],
      "name": "burn",
      "outputs": [],
      "stateMutability": "nonpayable",
      "type": "function"
    },
    {
      "inputs": [
        {
          "internalType": "address",
          "name": "to",
          "type": "address"
        },
        {
          "internalType": "uint256",
          "name": "value",
          "type": "uint256"
        }
      ],
      "name": "transfer",
      "outputs": [
        {
          "internalType": "bool",
          "name": "",
          "type": "bool"
        }
      ],
      "stateMutability": "nonpayable",
      "type": "function"
    },
    {
      "inputs": [
        {
          "internalType": "address",
          "name": "from",
          "type": "address"
        },
        {
          "internalType": "address",
          "name": "to",
          "type": "address"
        },
        {
          "internalType": "uint256",
          "name": "value",
          "type": "uint256"
        }
      ],
      "name": "transferFrom",
      "outputs": [
        {
          "internalType": "bool",
          "name": "",
          "type": "bool"
        }
      ],
      "stateMutability": "nonpayable",
      "type": "function"
    },
    {
      "inputs": [],
      "name": "name",
      "outputs": [
        {
          "internalType": "string",
          "name": "",
          "type": "string"
        }
      ],
      "stateMutability": "view",
      "type": "function"
    },
    {
      "inputs": [],
      "name": "symbol",
      "outputs": [
        {
          "internalType": "string",
          "name": "",
          "type": "string"
        }
      ],
      "stateMutability": "view",
      "type": "function"
    },
    {
      "inputs": [],
      "name": "decimals",
      "outputs": [
        {
          "internalType": "uint256",
          "name": "",
          "type": "uint256"
        }
      ],
      "stateMutability": "pure",
      "type": "function"
    },
    {
      "inputs": [],
      "name": "count",
      "outputs": [
        {
          "internalType": "uint256",
          "name": "",
          "type": "uint256"
        }
      ],
      "stateMutability": "view",
      "type": "function"
    },
    {
      "inputs": [],
      "name": "head",
      "outputs": [
        {
          "internalType": "address",
          "name": "",
          "type": "address"
        }
      ],
      "stateMutability": "view",
      "type": "function"
    },
    {
      "inputs": [],
      "name": "tail",
      "outputs": [
        {
          "internalType": "address",
          "name": "",
          "type": "address"
        }
      ],
      "stateMutability": "view",
      "type": "function"
    },
    {
      "inputs": [
        {
          "internalType": "address",
          "name": "addr",
          "type": "address"
        }
      ],
      "name": "isLinked",
      "outputs": [
        {
          "internalType": "bool",
          "name": "",
          "type": "bool"
        }
      ],
      "stateMutability": "view",
      "type": "function"
    },
    {
      "inputs": [
        {
          "internalType": "address",
          "name": "addr",
          "type": "address"
        }
      ],
      "name": "nextOf",
      "outputs": [
        {
          "internalType": "address",
          "name": "",
          "type": "address"
        }
      ],
      "stateMutability": "view",
      "type": "function"
    },
    {
      "inputs": [
        {
          "internalType": "address",
          "name": "addr",
          "type": "address"
        }
      ],
      "name": "prevOf",
      "outputs": [
        {
          "internalType": "address",
          "name": "",
          "type": "address"
        }
      ],
      "stateMutability": "view",
      "type": "function"
    }
  ],
  "bytecode": "0x60806040523480156200001157600080fd5b5060405162001d3d38038062001d3d833981810160405260608110156200003757600080fd5b81019080805160405193929190846401000000008211156200005857600080fd5b9083019060208201858111156200006e57600080fd5b82516401000000008111828201881017156200008957600080fd5b82525081516020918201929091019080838360005b83811015620000b85781810151838201526020016200009e565b50505050905090810190601f168015620000e65780820380516001836020036101000a031916815260200191505b50604052602001805160405193929190846401000000008211156200010a57600080fd5b9083019060208201858111156200012057600080fd5b82516401000000008111828201881017156200013b57600080fd5b82525081516020918201929091019080838360005b838110156200016a57818101518382015260200162000150565b50505050905090810190601f168015620001985780820380516001836020036101000a031916815260200191505b5060408190526020919091015160008054919450849350839233926001600160a01b0316917f8be0079c531659141344cd1fd0a4f28419497f9722a3daafe3b4186f6b6457e091a3600080546001600160a01b03191633908117909155620002019082620002e9565b506200022f90507f01ffc9a70000000000000000000000000000000000000000000000000000000062000408565b60408051808201909152600581527f746f6b656e00000000000000000000000000000000000000000000000000000060208201526200026e90620004d7565b620002997f946edbed0000000000000000000000000000000000000000000000000000000062000408565b8251620002ae90600690602086019062000798565b508151620002c490600790602085019062000798565b50620002e0336008620004f060201b620009371790919060201c565b50505062000834565b6001600160a01b0382166200035f57604080517f08c379a000000000000000000000000000000000000000000000000000000000815260206004820152601f60248201527f45524332303a206d696e7420746f20746865207a65726f206164647265737300604482015290519081900360640190fd5b6200037b816001546200066b60201b62000a641790919060201c565b6001556001600160a01b038216600090815260026020908152604090912054620003b091839062000a646200066b821b17901c565b6001600160a01b03831660008181526002602090815260408083209490945583518581529351929391927fddf252ad1be2c89b69c2b068fc378daa952ba7f163c4a11628f55a4df523b3ef9281900390910190a35050565b7fffffffff0000000000000000000000000000000000000000000000000000000080821614156200049a57604080517f08c379a000000000000000000000000000000000000000000000000000000000815260206004820152601c60248201527f4552433136353a20696e76616c696420696e7465726661636520696400000000604482015290519081900360640190fd5b7fffffffff00000000000000000000000000000000000000000000000000000000166000908152600460205260409020805460ff19166001179055565b8051620004ec90600590602084019062000798565b5050565b6001600160a01b03811662000551576040517f08c379a000000000000000000000000000000000000000000000000000000000815260040180806020018281038252602981526020018062001d146029913960400191505060405180910390fd5b6200055d8282620006e9565b15620005b5576040517f08c379a000000000000000000000000000000000000000000000000000000000815260040180806020018281038252602781526020018062001ced6027913960400191505060405180910390fd5b8154620005f1576002820180546001600160a01b0383166001600160a01b03199182168117909255600184018054909116909117905562000646565b6002820180546001600160a01b03838116600081815260038701602052604080822080549585166001600160a01b03199687161790558554909316815291909120600101805483168217905582549091161790555b62000665600183600001546200066b60201b62000a641790919060201c565b90915550565b600082820183811015620006e057604080517f08c379a000000000000000000000000000000000000000000000000000000000815260206004820152601e60248201527f536166654d6174683235363a206164646974696f6e206f766572666c6f770000604482015290519081900360640190fd5b90505b92915050565b815460009060011480156200070d575060018301546001600160a01b038381169116145b801562000729575060028301546001600160a01b038381169116145b156200073857506001620006e3565b6001600160a01b038281166000908152600385016020526040902054161580156200078057506001600160a01b03828116600090815260038501602052604090206001015416155b6200078d57600162000790565b60005b9050620006e3565b828054600181600116156101000203166002900490600052602060002090601f016020900481019282601f10620007db57805160ff19168380011785556200080b565b828001600101855582156200080b579182015b828111156200080b578251825591602001919060010190620007ee565b50620008199291506200081d565b5090565b5b808211156200081957600081556001016200081e565b6114a980620008446000396000f3fe608060405234801561001057600080fd5b506004361061014d5760003560e01c80638da5cb5b116100c3578063a9059cbb1161007c578063a9059cbb1461037f578063c68c8feb146103ab578063dd62ed3e146103d1578063f2fde38b146103ff578063f32ca66014610425578063fb1afbd71461044b5761014d565b80638da5cb5b1461032b5780638f32d59b146103335780638f7dcfa31461033b578063946edbed1461034357806395d89b411461034b578063a457c2d7146103535761014d565b806318160ddd1161011557806318160ddd1461027457806323b872dd1461027c578063313ce567146102b257806339509351146102ba57806342966c68146102e657806370a08231146103055761014d565b806301ffc9a71461015257806306661abd1461018d57806306fdde03146101a7578063095ea7b31461022457806313d8c84014610250575b600080fd5b6101796004803603602081101561016857600080fd5b50356001600160e01b031916610471565b604080519115158252519081900360200190f35b610195610490565b60408051918252519081900360200190f35b6101af6104a1565b6040805160208082528351818301528351919283929083019185019080838360005b838110156101e95781810151838201526020016101d1565b50505050905090810190601f1680156102165780820380516001836020036101000a031916815260200191505b509250505060405180910390f35b6101796004803603604081101561023a57600080fd5b506001600160a01b038135169060200135610537565b61025861059b565b604080516001600160a01b039092168252519081900360200190f35b6101956105a7565b6101796004803603606081101561029257600080fd5b506001600160a01b038135811691602081013590911690604001356105ad565b610195610622565b610179600480360360408110156102d057600080fd5b506001600160a01b038135169060200135610627565b610303600480360360208110156102fc57600080fd5b503561064a565b005b6101956004803603602081101561031b57600080fd5b50356001600160a01b0316610657565b610258610672565b610179610681565b610258610692565b6101af61069e565b6101af6106ff565b6101796004803603604081101561036957600080fd5b506001600160a01b038135169060200135610760565b6101796004803603604081101561039557600080fd5b506001600160a01b038135169060200135610791565b610258600480360360208110156103c157600080fd5b50356001600160a01b03166107fd565b610195600480360360408110156103e757600080fd5b506001600160a01b038135811691602001351661080a565b6103036004803603602081101561041557600080fd5b50356001600160a01b0316610835565b6102586004803603602081101561043b57600080fd5b50356001600160a01b031661091d565b6101796004803603602081101561046157600080fd5b50356001600160a01b031661092a565b6001600160e01b03191660009081526004602052604090205460ff1690565b600061049c6008610abe565b905090565b60068054604080516020601f600260001961010060018816150201909516949094049384018190048102820181019092528281526060939092909183018282801561052d5780601f106105025761010080835404028352916020019161052d565b820191906000526020600020905b81548152906001019060200180831161051057829003601f168201915b5050505050905090565b600081158061054d575061054b338461080a565b155b6105885760405162461bcd60e51b81526004018080602001828103825260368152602001806114196036913960400191505060405180910390fd5b6105928383610ac2565b90505b92915050565b600061049c6008610ad8565b60015490565b6000806105bb858585610ae8565b90506105c8600886610b51565b80156105da57506105d885610657565b155b156105ea576105ea600886610bf8565b6105f5600885610b51565b15801561060a5750600061060885610657565b115b1561061a5761061a600885610937565b949350505050565b601290565b60008061063e83610638338761080a565b90610a64565b905061061a8482610ac2565b6106543382610dc6565b50565b6001600160a01b031660009081526002602052604090205490565b6000546001600160a01b031690565b6000546001600160a01b0316331490565b600061049c6008610eb6565b60058054604080516020601f600260001961010060018816150201909516949094049384018190048102820181019092528281526060939092909183018282801561052d5780601f106105025761010080835404028352916020019161052d565b60078054604080516020601f600260001961010060018816150201909516949094049384018190048102820181019092528281526060939092909183018282801561052d5780601f106105025761010080835404028352916020019161052d565b60008061063e8360405180606001604052806025815260200161144f6025913961078a338861080a565b9190610ec6565b60008061079e8484610f5d565b90506107ab600833610b51565b80156107bd57506107bb33610657565b155b156107cd576107cd600833610bf8565b6107d8600885610b51565b1580156107ed575060006107eb85610657565b115b1561059257610592600885610937565b6000610595600883610f6a565b6001600160a01b03918216600090815260036020908152604080832093909416825291909152205490565b61083d610681565b151560011461087d5760405162461bcd60e51b81526004018080602001828103825260228152602001806112a46022913960400191505060405180910390fd5b6001600160a01b0381166108c25760405162461bcd60e51b81526004018080602001828103825260278152602001806113d16027913960400191505060405180910390fd5b600080546040516001600160a01b03808516939216917f8be0079c531659141344cd1fd0a4f28419497f9722a3daafe3b4186f6b6457e091a3600080546001600160a01b0319166001600160a01b0392909216919091179055565b6000610595600883610f90565b6000610595600883610b51565b6001600160a01b03811661097c5760405162461bcd60e51b81526004018080602001828103825260298152602001806113166029913960400191505060405180910390fd5b6109868282610b51565b156109c25760405162461bcd60e51b81526004018080602001828103825260278152602001806112c66027913960400191505060405180910390fd5b81546109fc576002820180546001600160a01b0383166001600160a01b031991821681179092556001840180549091169091179055610a51565b6002820180546001600160a01b03838116600081815260038701602052604080822080549585166001600160a01b03199687161790558554909316815291909120600101805483168217905582549091161790555b8154610a5e906001610a64565b90915550565b600082820183811015610592576040805162461bcd60e51b815260206004820152601e60248201527f536166654d6174683235363a206164646974696f6e206f766572666c6f770000604482015290519081900360640190fd5b5490565b6000610acf338484610fb3565b50600192915050565b600201546001600160a01b031690565b6000610af584848461109f565b610b478433610b428560405180606001604052806028815260200161133f602891396001600160a01b038a1660009081526003602090815260408083203384529091529020549190610ec6565b610fb3565b5060019392505050565b81546000906001148015610b74575060018301546001600160a01b038381169116145b8015610b8f575060028301546001600160a01b038381169116145b15610b9c57506001610595565b6001600160a01b03828116600090815260038501602052604090205416158015610be357506001600160a01b03828116600090815260038501602052604090206001015416155b610bee576001610bf1565b60005b9050610595565b6001600160a01b038116610c3d5760405162461bcd60e51b81526004018080602001828103825260298152602001806113166029913960400191505060405180910390fd5b610c478282610b51565b610c825760405162461bcd60e51b81526004018080602001828103825260298152602001806112ed6029913960400191505060405180910390fd5b6001600160a01b0380821660008181526003850160205260409020805460019182015491860154908416939182169291161415610cd7576001840180546001600160a01b0319166001600160a01b0383161790555b60028401546001600160a01b0384811691161415610d0d576002840180546001600160a01b0319166001600160a01b0384161790555b6001600160a01b03821615610d5f576001600160a01b03808316600090815260038601602052604080822060010180548486166001600160a01b03199182161790915592861682529020805490911690555b6001600160a01b03811615610db1576001600160a01b03808216600090815260038601602052604080822080548487166001600160a01b03199182161790915592861682529020600101805490911690555b8354610dbe9060016111f1565b909355505050565b6001600160a01b038216610e0b5760405162461bcd60e51b81526004018080602001828103825260218152602001806113676021913960400191505060405180910390fd5b610e488160405180606001604052806022815260200161123a602291396001600160a01b0385166000908152600260205260409020549190610ec6565b6001600160a01b038316600090815260026020526040902055600154610e6e90826111f1565b6001556040805182815290516000916001600160a01b038516917fddf252ad1be2c89b69c2b068fc378daa952ba7f163c4a11628f55a4df523b3ef9181900360200190a35050565b600101546001600160a01b031690565b60008184841115610f555760405162461bcd60e51b81526004018080602001828103825283818151815260200191508051906020019080838360005b83811015610f1a578181015183820152602001610f02565b50505050905090810190601f168015610f475780820380516001836020036101000a031916815260200191505b509250505060405180910390fd5b505050900390565b6000610acf33848461109f565b6001600160a01b0380821660009081526003840160205260409020600101541692915050565b6001600160a01b0380821660009081526003840160205260409020541692915050565b6001600160a01b038316610ff85760405162461bcd60e51b81526004018080602001828103825260248152602001806113ad6024913960400191505060405180910390fd5b6001600160a01b03821661103d5760405162461bcd60e51b815260040180806020018281038252602281526020018061125c6022913960400191505060405180910390fd5b6001600160a01b03808416600081815260036020908152604080832094871680845294825291829020859055815185815291517f8c5be1e5ebec7d5bd14f71427d1e84f3dd0314c0f7b2291e5b200ac8c7c3b9259281900390910190a3505050565b6001600160a01b0383166110e45760405162461bcd60e51b81526004018080602001828103825260258152602001806113886025913960400191505060405180910390fd5b6001600160a01b0382166111295760405162461bcd60e51b81526004018080602001828103825260238152602001806112176023913960400191505060405180910390fd5b6111668160405180606001604052806026815260200161127e602691396001600160a01b0386166000908152600260205260409020549190610ec6565b6001600160a01b0380851660009081526002602052604080822093909355908416815220546111959082610a64565b6001600160a01b0380841660008181526002602090815260409182902094909455805185815290519193928716927fddf252ad1be2c89b69c2b068fc378daa952ba7f163c4a11628f55a4df523b3ef92918290030190a3505050565b600061059283836040518060600160405280602181526020016113f860219139610ec656fe45524332303a207472616e7366657220746f20746865207a65726f206164647265737345524332303a206275726e20616d6f756e7420657863656564732062616c616e636545524332303a20617070726f766520746f20746865207a65726f206164647265737345524332303a207472616e7366657220616d6f756e7420657863656564732062616c616e63654f776e6572736869703a206f6e6c7920746865206f776e65722063616e2063616c6c436861696e416464726573733a20746865206e6f646520697320616c65616479206c696e6b6564436861696e416464726573733a20746865206e6f646520697320616c6561647920756e6c696e6b6564436861696e416464726573733a20746865206e6f64652063616e6e6f7420626520746865207a65726f45524332303a207472616e7366657220616d6f756e74206578636565647320616c6c6f77616e636545524332303a206275726e2066726f6d20746865207a65726f206164647265737345524332303a207472616e736665722066726f6d20746865207a65726f206164647265737345524332303a20617070726f76652066726f6d20746865207a65726f20616464726573734f776e6572736869703a206e6577206f776e65722063616e6e6f7420626520746865207a65726f536166654d6174683235363a207375627472616374696f6e206f766572666c6f774552433230536166653a20617070726f76652066726f6d206e6f6e2d7a65726f20746f206e6f6e2d7a65726f20616c6c6f77616e636545524332303a2064656372656173656420616c6c6f77616e63652062656c6f77207a65726fa2646970667358221220d3762884273fb5fd27d8ea6f274a5b12b9af120bc1b1783998bbdb7e3bd0505264736f6c63430007000033436861696e416464726573733a20746865206e6f646520697320616c65616479206c696e6b6564436861696e416464726573733a20746865206e6f64652063616e6e6f7420626520746865207a65726f",
  "immutableReferences": {},
  "source": "// SPDX-License-Identifier: MIT\npragma solidity >=0.6.0;\n\nimport \"./DkargoPrefix.sol\";\nimport \"./authority/Ownership.sol\";\nimport \"./introspection/ERC165/ERC165.sol\";\nimport \"./libs/chain/ChainAddress.sol\";\nimport \"./libs/chain/Typedef.sol\";\nimport \"./token/ERC20/ERC20Safe.sol\";\n\n/// @title DkargoToken\n/// @notice     ( deploy)\n/// @dev burn   (public)\n/// @author jhhong\ncontract DkargoToken is Ownership, ERC20Safe, ERC165, DkargoPrefix {\n    using ChainAddress for Typedef.AddressList;\n\n    string private _name; //  \n    string private _symbol; //  \n    Typedef.AddressList private _holderchain; //   \n\n    /// @notice  .\n    /// @dev    , msg.sender   .\n    /// @param name  \n    /// @param symbol  \n    /// @param supply  \n    constructor(string memory name, string memory symbol, uint256 supply) ERC20Safe(supply) {\n        _setDkargoPrefix(\"token\"); //   (token)\n        _registerInterface(0x946edbed); // INTERFACE ID  (getDkargoPrefix)\n        _name = name;\n        _symbol = symbol;\n        _holderchain.linkChain(msg.sender);\n    }\n\n    /// @notice      .\n    /// @param amount  \n    function burn(uint256 amount) external {\n        _burn(msg.sender, amount);\n    }\n\n    /// @notice  . (: msg.sender)\n    /// @dev        .\n    /// @param to   \n    /// @param value   ()\n    function transfer(address to, uint256 value) public override returns (bool) {\n        bool ret = super.transfer(to, value);\n        if(_holderchain.isLinked(msg.sender) && balanceOf(msg.sender) == 0) {\n            _holderchain.unlinkChain(msg.sender);\n        }\n        if(!_holderchain.isLinked(to) && balanceOf(to) > 0) {\n            _holderchain.linkChain(to);\n        }\n        return ret;\n    }\n\n    /// @notice  . (: from)\n    /// @dev        .\n    /// @param from   \n    /// @param to   \n    /// @param value   ()\n    function transferFrom(address from, address to, uint256 value) public override returns (bool) {\n        bool ret = super.transferFrom(from, to, value);\n        if(_holderchain.isLinked(from) && balanceOf(from) == 0) {\n            _holderchain.unlinkChain(from);\n        }\n        if(!_holderchain.isLinked(to) && balanceOf(to) > 0) {\n            _holderchain.linkChain(to);\n        }\n        return ret;\n    }\n\n    /// @notice   .\n    /// @return  \n    function name() public view returns(string memory) {\n        return _name;\n    }\n\n    /// @notice   .\n    /// @return  \n    function symbol() public view returns(string memory) {\n        return _symbol;\n    }\n\n    /// @notice   .\n    /// @dev   18 (peb)  .\n    /// @return   (uint256)\n    function decimals() public pure returns(uint256) {\n        return 18;\n    }\n\n    /// @notice    .\n    /// @dev       \n    /// @return    (uint256)\n    function count() public view returns(uint256) {\n        return _holderchain.size();\n    }\n\n    /// @notice    .\n    /// @dev       \n    /// @return    (address)\n    function head() public view returns(address) {\n        return _holderchain.first();\n    }\n\n    /// @notice    .\n    /// @dev       \n    /// @return    (address)\n    function tail() public view returns(address) {\n        return _holderchain.last();\n    }\n\n    /// @notice addr    .\n    /// @dev       \n    /// @param addr  \n    /// @return    (bool)\n    function isLinked(address addr) public view returns(bool) {\n        return _holderchain.isLinked(addr);\n    }\n\n    /// @notice addr   .\n    /// @dev       \n    /// @param addr  \n    /// @return addr   (address)\n    function nextOf(address addr) public view returns(address) {\n        return _holderchain.nextOf(addr);\n    }\n\n    /// @notice addr   .\n    /// @dev       \n    /// @param addr  \n    /// @return addr   (address)\n    function prevOf(address addr) public view returns(address) {\n        return _holderchain.prevOf(addr);\n    }\n}",
  "sourcePath": "/home/jhhong/work/renewal/dkargo-scm/contracts/DkargoToken.sol",
  "compiler": {
    "name": "solc",
    "version": "0.7.0+commit.9e61f92b.Emscripten.clang"
  },
  "schemaVersion": "3.2.3",
  "updatedAt": "2020-11-19T06:14:43.042Z",
  "devdoc": {
    "author": "jhhong",
    "details": "burn   (public)",
    "kind": "dev",
    "methods": {
      "allowance(address,address)": {
        "params": {
          "approver": " ",
          "spender": " "
        },
        "returns": {
          "_0": "(approver) (spender)  "
        }
      },
      "approve(address,uint256)": {
        "details": "       0   .",
        "params": {
          "amount": " ",
          "spender": " "
        },
        "returns": {
          "_0": "  true"
        }
      },
      "balanceOf(address)": {
        "params": {
          "account": ""
        },
        "returns": {
          "_0": "(account)  "
        }
      },
      "burn(uint256)": {
        "params": {
          "amount": " "
        }
      },
      "constructor": {
        "details": "   , msg.sender   .",
        "params": {
          "name": " ",
          "supply": " ",
          "symbol": " "
        }
      },
      "count()": {
        "details": "      ",
        "returns": {
          "_0": "   (uint256)"
        }
      },
      "decimals()": {
        "details": "  18 (peb)  .",
        "returns": {
          "_0": "  (uint256)"
        }
      },
      "decreaseAllowance(address,uint256)": {
        "details": "   ,      ",
        "params": {
          "spender": " ",
          "subtractedValue": " "
        },
        "returns": {
          "_0": "  true"
        }
      },
      "getDkargoPrefix()": {
        "returns": {
          "_0": "  (string)"
        }
      },
      "head()": {
        "details": "      ",
        "returns": {
          "_0": "   (address)"
        }
      },
      "increaseAllowance(address,uint256)": {
        "details": "   ,      ",
        "params": {
          "addedValue": " ",
          "spender": " "
        },
        "returns": {
          "_0": "  true"
        }
      },
      "isLinked(address)": {
        "details": "      ",
        "params": {
          "addr": " "
        },
        "returns": {
          "_0": "   (bool)"
        }
      },
      "isOwner()": {
        "returns": {
          "_0": "  (boolean)"
        }
      },
      "name()": {
        "returns": {
          "_0": " "
        }
      },
      "nextOf(address)": {
        "details": "      ",
        "params": {
          "addr": " "
        },
        "returns": {
          "_0": "addr   (address)"
        }
      },
      "owner()": {
        "returns": {
          "_0": " "
        }
      },
      "prevOf(address)": {
        "details": "      ",
        "params": {
          "addr": " "
        },
        "returns": {
          "_0": "addr   (address)"
        }
      },
      "supportsInterface(bytes4)": {
        "params": {
          "infcid": "  INTERFACE ID (Function Selector)"
        },
        "returns": {
          "_0": " (boolean)"
        }
      },
      "symbol()": {
        "returns": {
          "_0": " "
        }
      },
      "tail()": {
        "details": "      ",
        "returns": {
          "_0": "   (address)"
        }
      },
      "totalSupply()": {
        "returns": {
          "_0": " "
        }
      },
      "transfer(address,uint256)": {
        "details": "       .",
        "params": {
          "to": "  ",
          "value": "  ()"
        }
      },
      "transferFrom(address,address,uint256)": {
        "details": "       .",
        "params": {
          "from": "  ",
          "to": "  ",
          "value": "  ()"
        }
      },
      "transferOwnership(address)": {
        "params": {
          "expected": "  "
        }
      }
    },
    "title": "DkargoToken",
    "version": 1
  },
  "userdoc": {
    "events": {
      "OwnershipTransferred(address,address)": {
        "notice": "  "
      }
    },
    "kind": "user",
    "methods": {
      "allowance(address,address)": {
        "notice": "(approver) (spender)   ."
      },
      "approve(address,uint256)": {
        "notice": "(spender) (amount) ."
      },
      "balanceOf(address)": {
        "notice": "(account)   ."
      },
      "burn(uint256)": {
        "notice": "     ."
      },
      "constructor": {
        "notice": " ."
      },
      "count()": {
        "notice": "   ."
      },
      "decimals()": {
        "notice": "  ."
      },
      "decreaseAllowance(address,uint256)": {
        "notice": "(spender)   (subtractedValue)  ."
      },
      "getDkargoPrefix()": {
        "notice": "  ."
      },
      "head()": {
        "notice": "   ."
      },
      "increaseAllowance(address,uint256)": {
        "notice": "(spender)   (addedValue)  ."
      },
      "isLinked(address)": {
        "notice": "addr    ."
      },
      "isOwner()": {
        "notice": " ."
      },
      "name()": {
        "notice": "  ."
      },
      "nextOf(address)": {
        "notice": "addr   ."
      },
      "owner()": {
        "notice": "  ."
      },
      "prevOf(address)": {
        "notice": "addr   ."
      },
      "supportsInterface(bytes4)": {
        "notice": " INTERFACE ID   ."
      },
      "symbol()": {
        "notice": "  ."
      },
      "tail()": {
        "notice": "   ."
      },
      "totalSupply()": {
        "notice": "   ."
      },
      "transfer(address,uint256)": {
        "notice": " . (: msg.sender)"
      },
      "transferFrom(address,address,uint256)": {
        "notice": " . (: from)"
      },
      "transferOwnership(address)": {
        "notice": " ."
      }
    },
    "notice": "    ( deploy)",
    "version": 1
  }
}