{
  "contractName": "DkargoOrder",
  "abi": [
    {
      "inputs": [
        {
          "internalType": "string",
          "name": "url",
          "type": "string"
        },
        {
          "internalType": "address",
          "name": "service",
          "type": "address"
        },
        {
          "internalType": "address[]",
          "name": "members",
          "type": "address[]"
        },
        {
          "internalType": "uint256[]",
          "name": "codes",
          "type": "uint256[]"
        },
        {
          "internalType": "uint256[]",
          "name": "incentives",
          "type": "uint256[]"
        }
      ],
      "stateMutability": "nonpayable",
      "type": "constructor"
    },
    {
      "anonymous": false,
      "inputs": [
        {
          "indexed": false,
          "internalType": "string",
          "name": "oldUrl",
          "type": "string"
        },
        {
          "indexed": false,
          "internalType": "string",
          "name": "newUrl",
          "type": "string"
        }
      ],
      "name": "OrderUrlSet",
      "type": "event"
    },
    {
      "inputs": [],
      "name": "getDkargoPrefix",
      "outputs": [
        {
          "internalType": "string",
          "name": "",
          "type": "string"
        }
      ],
      "stateMutability": "view",
      "type": "function"
    },
    {
      "inputs": [
        {
          "internalType": "bytes4",
          "name": "infcid",
          "type": "bytes4"
        }
      ],
      "name": "supportsInterface",
      "outputs": [
        {
          "internalType": "bool",
          "name": "",
          "type": "bool"
        }
      ],
      "stateMutability": "view",
      "type": "function"
    },
    {
      "inputs": [
        {
          "internalType": "uint256",
          "name": "id",
          "type": "uint256"
        }
      ],
      "name": "setOrderId",
      "outputs": [],
      "stateMutability": "nonpayable",
      "type": "function"
    },
    {
      "inputs": [
        {
          "internalType": "string",
          "name": "url",
          "type": "string"
        }
      ],
      "name": "setUrl",
      "outputs": [],
      "stateMutability": "nonpayable",
      "type": "function"
    },
    {
      "inputs": [],
      "name": "submitOrderCreate",
      "outputs": [],
      "stateMutability": "nonpayable",
      "type": "function"
    },
    {
      "inputs": [
        {
          "internalType": "uint64",
          "name": "time",
          "type": "uint64"
        },
        {
          "internalType": "uint256",
          "name": "code",
          "type": "uint256"
        }
      ],
      "name": "submitOrderUpdate",
      "outputs": [],
      "stateMutability": "nonpayable",
      "type": "function"
    },
    {
      "inputs": [],
      "name": "isFailed",
      "outputs": [
        {
          "internalType": "bool",
          "name": "",
          "type": "bool"
        }
      ],
      "stateMutability": "view",
      "type": "function"
    },
    {
      "inputs": [],
      "name": "isComplete",
      "outputs": [
        {
          "internalType": "bool",
          "name": "",
          "type": "bool"
        }
      ],
      "stateMutability": "view",
      "type": "function"
    },
    {
      "inputs": [],
      "name": "isLastMile",
      "outputs": [
        {
          "internalType": "bool",
          "name": "",
          "type": "bool"
        }
      ],
      "stateMutability": "view",
      "type": "function"
    },
    {
      "inputs": [],
      "name": "currentStep",
      "outputs": [
        {
          "internalType": "uint256",
          "name": "",
          "type": "uint256"
        }
      ],
      "stateMutability": "view",
      "type": "function"
    },
    {
      "inputs": [],
      "name": "currentTracking",
      "outputs": [
        {
          "internalType": "uint64",
          "name": "time",
          "type": "uint64"
        },
        {
          "internalType": "address",
          "name": "addr",
          "type": "address"
        },
        {
          "internalType": "uint256",
          "name": "code",
          "type": "uint256"
        },
        {
          "internalType": "uint256",
          "name": "incentive",
          "type": "uint256"
        }
      ],
      "stateMutability": "view",
      "type": "function"
    },
    {
      "inputs": [],
      "name": "orderid",
      "outputs": [
        {
          "internalType": "uint256",
          "name": "",
          "type": "uint256"
        }
      ],
      "stateMutability": "view",
      "type": "function"
    },
    {
      "inputs": [],
      "name": "service",
      "outputs": [
        {
          "internalType": "address",
          "name": "",
          "type": "address"
        }
      ],
      "stateMutability": "view",
      "type": "function"
    },
    {
      "inputs": [],
      "name": "totalIncentive",
      "outputs": [
        {
          "internalType": "uint256",
          "name": "",
          "type": "uint256"
        }
      ],
      "stateMutability": "view",
      "type": "function"
    },
    {
      "inputs": [
        {
          "internalType": "uint256",
          "name": "index",
          "type": "uint256"
        }
      ],
      "name": "tracking",
      "outputs": [
        {
          "internalType": "uint64",
          "name": "time",
          "type": "uint64"
        },
        {
          "internalType": "address",
          "name": "addr",
          "type": "address"
        },
        {
          "internalType": "uint256",
          "name": "code",
          "type": "uint256"
        },
        {
          "internalType": "uint256",
          "name": "incentive",
          "type": "uint256"
        }
      ],
      "stateMutability": "view",
      "type": "function"
    },
    {
      "inputs": [],
      "name": "trackingCount",
      "outputs": [
        {
          "internalType": "uint256",
          "name": "",
          "type": "uint256"
        }
      ],
      "stateMutability": "view",
      "type": "function"
    },
    {
      "inputs": [],
      "name": "url",
      "outputs": [
        {
          "internalType": "string",
          "name": "",
          "type": "string"
        }
      ],
      "stateMutability": "view",
      "type": "function"
    }
  ],
  "bytecode": "0x60806040523480156200001157600080fd5b5060405162001af138038062001af1833981810160405260a08110156200003757600080fd5b81019080805160405193929190846401000000008211156200005857600080fd5b9083019060208201858111156200006e57600080fd5b82516401000000008111828201881017156200008957600080fd5b82525081516020918201929091019080838360005b83811015620000b85781810151838201526020016200009e565b50505050905090810190601f168015620000e65780820380516001836020036101000a031916815260200191505b506040818152602083015192018051929491939192846401000000008211156200010f57600080fd5b9083019060208201858111156200012557600080fd5b82518660208202830111640100000000821117156200014357600080fd5b82525081516020918201928201910280838360005b838110156200017257818101518382015260200162000158565b50505050905001604052602001805160405193929190846401000000008211156200019c57600080fd5b908301906020820185811115620001b257600080fd5b8251866020820283011164010000000082111715620001d057600080fd5b82525081516020918201928201910280838360005b83811015620001ff578181015183820152602001620001e5565b50505050905001604052602001805160405193929190846401000000008211156200022957600080fd5b9083019060208201858111156200023f57600080fd5b82518660208202830111640100000000821117156200025d57600080fd5b82525081516020918201928201910280838360005b838110156200028c57818101518382015260200162000272565b50505050905001604052505050620002b16301ffc9a760e01b6200084460201b60201c565b6001600160a01b03841662000312576040517f08c379a000000000000000000000000000000000000000000000000000000000815260040180806020018281038252602b81526020018062001a74602b913960400191505060405180910390fd5b62000331846001600160a01b03166200091360201b62000ba41760201c565b15156001146200038d576040517f08c379a000000000000000000000000000000000000000000000000000000000815260040180806020018281038252602881526020018062001a9f6028913960400191505060405180910390fd5b6001835111620003fe57604080517f08c379a000000000000000000000000000000000000000000000000000000000815260206004820152601c60248201527f446b6172676f4f726465723a20746f6f20666577206d656d6265727300000000604482015290519081900360640190fd5b81518351146200046f57604080517f08c379a000000000000000000000000000000000000000000000000000000000815260206004820152601b60248201527f446b6172676f4f726465723a206f7574206f662073796e632831290000000000604482015290519081900360640190fd5b8051835114620004e057604080517f08c379a000000000000000000000000000000000000000000000000000000000815260206004820152601b60248201527f446b6172676f4f726465723a206f7574206f662073796e632832290000000000604482015290519081900360640190fd5b82600081518110620004ee57fe5b60200260200101516001600160a01b0316336001600160a01b03161462000561576040517f08c379a000000000000000000000000000000000000000000000000000000000815260040180806020018281038252602a81526020018062001ac7602a913960400191505060405180910390fd5b60408051808201909152600581527f6f726465720000000000000000000000000000000000000000000000000000006020820152620005a09062000919565b620005cb7f946edbed0000000000000000000000000000000000000000000000000000000062000844565b8451620005e0906006906020880190620009ae565b50600780546001600160a01b0319166001600160a01b0386161790556040805160808101909152600080825284516008929160208301918791906200062157fe5b60200260200101516001600160a01b03168152602001846000815181106200064557fe5b60200260200101518152602001836000815181106200066057fe5b602090810291909101810151909152825460018181018555600094855282852084516003909302018054938501516001600160a01b03166801000000000000000002600160401b600160e01b03196001600160401b039094166001600160401b0319909516949094179290921692909217815560408301519181019190915560609091015160029091015581516200071a918391620006fb57fe5b60200260200101516005546200093260201b62000baa1790919060201c565b60055560015b835181101562000838576008604051806080016040528060006001600160401b031681526020018684815181106200075457fe5b60200260200101516001600160a01b031681526020018584815181106200077757fe5b602002602001015181526020018484815181106200079157fe5b602090810291909101810151909152825460018181018555600094855282852084516003909302018054938501516001600160a01b03166801000000000000000002600160401b600160e01b03196001600160401b039094166001600160401b0319909516949094179290921692909217815560408301519181019190915560609091015160029091015582516200082c918491620006fb57fe5b60055560010162000720565b50505050505062000a4a565b7fffffffff000000000000000000000000000000000000000000000000000000008082161415620008d657604080517f08c379a000000000000000000000000000000000000000000000000000000000815260206004820152601c60248201527f4552433136353a20696e76616c696420696e7465726661636520696400000000604482015290519081900360640190fd5b7fffffffff00000000000000000000000000000000000000000000000000000000166000908152602081905260409020805460ff19166001179055565b3b151590565b80516200092e906001906020840190620009ae565b5050565b600082820183811015620009a757604080517f08c379a000000000000000000000000000000000000000000000000000000000815260206004820152601e60248201527f536166654d6174683235363a206164646974696f6e206f766572666c6f770000604482015290519081900360640190fd5b9392505050565b828054600181600116156101000203166002900490600052602060002090601f016020900481019282601f10620009f157805160ff191683800117855562000a21565b8280016001018555821562000a21579182015b8281111562000a2157825182559160200191906001019062000a04565b5062000a2f92915062000a33565b5090565b5b8082111562000a2f576000815560010162000a34565b61101a8062000a5a6000396000f3fe608060405234801561001057600080fd5b506004361061010b5760003560e01c8063786643c0116100a2578063abde286611610071578063abde286614610352578063b2fa1c9e1461035a578063c265aaa114610362578063d598d4c91461036a578063f41633401461038e5761010b565b8063786643c0146102e457806387c5f9ee146102ec578063946edbed146102f457806399c4acef146102fc5761010b565b80635600f04f116100de5780635600f04f1461022a5780635bc34f71146102a7578063609406b2146102af57806361332733146102b75761010b565b806301ffc9a714610110578063051a6bb81461014b578063252498a21461016557806331b3202c1461020d575b600080fd5b6101376004803603602081101561012657600080fd5b50356001600160e01b031916610396565b604080519115158252519081900360200190f35b6101536103b5565b60408051918252519081900360200190f35b61020b6004803603602081101561017b57600080fd5b81019060208101813564010000000081111561019657600080fd5b8201836020820111156101a857600080fd5b803590602001918460018302840111640100000000831117156101ca57600080fd5b91908080601f0160208091040260200160405190810160405280939291908181526020018383808284376000920191909152509295506103bb945050505050565b005b61020b6004803603602081101561022357600080fd5b5035610553565b6102326105a1565b6040805160208082528351818301528351919283929083019185019080838360005b8381101561026c578181015183820152602001610254565b50505050905090810190601f1680156102995780820380516001836020036101000a031916815260200191505b509250505060405180910390f35b610153610637565b61015361063d565b61020b600480360360408110156102cd57600080fd5b5067ffffffffffffffff8135169060200135610643565b61020b610829565b6101376108f0565b610232610939565b6103196004803603602081101561031257600080fd5b5035610999565b6040805167ffffffffffffffff90951685526001600160a01b039093166020850152838301919091526060830152519081900360800190f35b610153610a69565b610137610a6f565b610319610a96565b610372610b6e565b604080516001600160a01b039092168252519081900360200190f35b610137610b7d565b6001600160e01b03191660009081526020819052604090205460ff1690565b60085490565b60086000815481106103c957fe5b6000918252602090912060039091020154600160401b90046001600160a01b031633146104275760405162461bcd60e51b8152600401808060200182810382526022815260200180610fa06022913960400191505060405180910390fd5b6040805181815260068054600260001961010060018416150201909116049282018390527fc8ecbec60036ecf82c2f8f0d43861182b9250c9d90fe4463390d0611b21085fc9290918491819060208201906060830190869080156104cc5780601f106104a1576101008083540402835291602001916104cc565b820191906000526020600020905b8154815290600101906020018083116104af57829003601f168201915b5050838103825284518152845160209182019186019080838360005b838110156105005781810151838201526020016104e8565b50505050905090810190601f16801561052d5780820380516001836020036101000a031916815260200191505b5094505050505060405180910390a1805161054f906006906020840190610e76565b5050565b6007546001600160a01b0316331461059c5760405162461bcd60e51b8152600401808060200182810382526022815260200180610f0a6022913960400191505060405180910390fd5b600355565b60068054604080516020601f600260001961010060018816150201909516949094049384018190048102820181019092528281526060939092909183018282801561062d5780601f106106025761010080835404028352916020019161062d565b820191906000526020600020905b81548152906001019060200180831161061057829003601f168201915b5050505050905090565b60045490565b60035490565b60086004548154811061065257fe5b6000918252602090912060039091020154600160401b90046001600160a01b031633146106c6576040805162461bcd60e51b815260206004820181905260248201527f446b6172676f4f726465723a20756e617574686f72697a65642063616c6c6572604482015290519081900360640190fd5b60025460ff16156107085760405162461bcd60e51b8152600401808060200182810382526031815260200180610f6f6031913960400191505060405180910390fd5b61071181610c0b565b606381141561075557606360086004548154811061072b57fe5b6000918252602090912060016003909202018101919091556002805460ff1916909117905561081d565b8060086004548154811061076557fe5b906000526020600020906003020160010154146107b35760405162461bcd60e51b8152600401808060200182810382526021815260200180610f2c6021913960400191505060405180910390fd5b816008600454815481106107c357fe5b60009182526020909120600390910201805467ffffffffffffffff191667ffffffffffffffff92909216919091179055600454610801906001610baa565b6004819055600854141561081d576002805460ff191660011790555b61054f33600454610cbd565b600860008154811061083757fe5b6000918252602090912060039091020154600160401b90046001600160a01b031633146108955760405162461bcd60e51b8152600401808060200182810382526022815260200180610fa06022913960400191505060405180910390fd5b4260086000815481106108a457fe5b60009182526020909120600390910201805467ffffffffffffffff191667ffffffffffffffff929092169190911790556004546108e2906001610baa565b6004556108ee33610d21565b565b60025460009060ff161580156109265750604660086004548154811061091257fe5b906000526020600020906003020160010154145b610931576000610934565b60015b905090565b60018054604080516020601f6002600019610100878916150201909516949094049384018190048102820181019092528281526060939092909183018282801561062d5780601f106106025761010080835404028352916020019161062d565b600080600080600880549050851015610a5557600885815481106109b957fe5b60009182526020909120600390910201546008805467ffffffffffffffff909216955090869081106109e757fe5b906000526020600020906003020160000160089054906101000a90046001600160a01b0316925060088581548110610a1b57fe5b906000526020600020906003020160010154915060088581548110610a3c57fe5b9060005260206000209060030201600201549050610a62565b5060009250829150819050805b9193509193565b60055490565b60025460009060ff1615156001148015610926575060085460045414610931576000610934565b6000806000806008805490506004541015610b5b57600860045481548110610aba57fe5b60009182526020909120600390910201546004546008805467ffffffffffffffff9093169650918110610ae957fe5b906000526020600020906003020160000160089054906101000a90046001600160a01b03169250600860045481548110610b1f57fe5b9060005260206000209060030201600101549150600860045481548110610b4257fe5b9060005260206000209060030201600201549050610b68565b5060009250829150819050805b90919293565b6007546001600160a01b031690565b60025460009060ff1615156001148015610926575060085460045410610931576000610934565b3b151590565b600082820183811015610c04576040805162461bcd60e51b815260206004820152601e60248201527f536166654d6174683235363a206164646974696f6e206f766572666c6f770000604482015290519081900360640190fd5b9392505050565b6001600a821415610c1b57610c81565b600e821415610c2957610c81565b600f821415610c3757610c81565b6014821415610c4557610c81565b601e821415610c5357610c81565b6028821415610c6157610c81565b603c821415610c6f57610c81565b6046821415610c7d57610c81565b5060005b8061054f5760405162461bcd60e51b8152600401808060200182810382526022815260200180610f4d6022913960400191505060405180910390fd5b604080513060248201526001600160a01b03808516604483015260648083018590528351808403909101815260849092019092526020810180516001600160e01b03166372c5a56160e11b1790526007549091610d1b911682610d80565b50505050565b604080513060248201526001600160a01b038084166044808401919091528351808403909101815260649092019092526020810180516001600160e01b031663ba79251f60e01b1790526007549091610d7b911682610d80565b505050565b606060006060846001600160a01b0316846040518082805190602001908083835b60208310610dc05780518252601f199092019160209182019101610da1565b6001836020036101000a0380198251168184511680821785525050505050509050019150506000604051808303816000865af19150503d8060008114610e22576040519150601f19603f3d011682016040523d82523d6000602084013e610e27565b606091505b509092509050600182151514610e6e5760405162461bcd60e51b8152600401808060200182810382526023815260200180610fc26023913960400191505060405180910390fd5b949350505050565b828054600181600116156101000203166002900490600052602060002090601f016020900481019282601f10610eb757805160ff1916838001178555610ee4565b82800160010185558215610ee4579182015b82811115610ee4578251825591602001919060010190610ec9565b50610ef0929150610ef4565b5090565b5b80821115610ef05760008155600101610ef556fe446b6172676f4f726465723a206f6e6c7920736572766963652063616e2063616c6c446b6172676f4f726465723a20636f6465206973206f7574206f66206f72646572446b6172676f4f726465723a2074686520636f6465206973206e6f742076616c6964446b6172676f4f726465723a20746865206f726465722068617320616c65616479206265656e20636f6d706c657465642e446b6172676f4f726465723a206f6e6c7920736869707065722063616e2063616c6c416464726573733a2066756e6374696f6e2863616c6c292063616c6c206661696c6564a2646970667358221220e68631837c627db0b90d09f8431eca6eff5b1b8b2f5e73f7979fe74fc5f3aae464736f6c63430007000033446b6172676f4f726465723a2074686520736572766963652063616e6e6f7420626520746865207a65726f446b6172676f4f726465723a207468652073657276696365206973206e6f7420636f6e7472616374446b6172676f4f726465723a206f6e6c7920736869707065722063616e20637265617465206f72646572",
  "immutableReferences": {},
  "source": "// SPDX-License-Identifier: MIT\npragma solidity >=0.6.0;\n\nimport \"./DkargoPrefix.sol\";\nimport \"./introspection/ERC165/ERC165.sol\";\nimport \"./libs/Address.sol\";\nimport \"./libs/math/SafeMath256.sol\";\n\n/// @title DkargoOrder\n/// @notice   \n/// @dev to-do.list\n/// 1.        /   (   /     )\n/// 2.     multi-signature    (     ,    multi-signature  )\n/// 3.         (     )\n/// @author jhhong\ncontract DkargoOrder is ERC165, DkargoPrefix {\n    using Address for address;\n    using SafeMath256 for uint256;\n\n    /// @dev Tracking  \n    struct Tracking {\n        uint64 time; //  \n        address member; //   \n        uint256 code; //  \n        uint256 incentive; // \n    }\n\n    /// @dev  \n    bool private _done; //  \n    uint256 private _orderid; // \n    uint256 private _curstep; //   step\n    uint256 private _totalIncentives; //    \n    string private _url; //  URL \n    address private _service; //   \n    Tracking[] private _tracking; //     \n\n    /// @dev    \n    uint256 constant private TRACKCODE_INIT = 10; //  \n    uint256 constant private TRACKCODE_CANCEL = 14; //  \n    uint256 constant private TRACKCODE_LAUNCH = 15; //   \n    uint256 constant private TRACKCODE_WAREHOUSING = 20; //  \n    uint256 constant private TRACKCODE_RELEASED = 30; //  \n    uint256 constant private TRACKCODE_FLIGHT = 40; // \n    uint256 constant private TRACKCODE_LASTMILE = 60; //   \n    uint256 constant private TRACKCODE_COMPLETE = 70; //  \n    uint256 constant private TRACKCODE_FAILED = 99; //   (      )\n\n    /// @notice   URL \n    /// @param oldUrl    URL\n    /// @param newUrl    URL\n    event OrderUrlSet(string oldUrl, string newUrl);\n\n    /// @notice  .\n    /// @param url    URL (string)\n    /// @param service   \n    /// @param members    \n    /// @param codes    \n    /// @param incentives        \n    constructor(string memory url,\n                address service,\n                address[] memory members,\n                uint256[] memory codes,\n                uint256[] memory incentives) {\n        require(service != address(0), \"DkargoOrder: the service cannot be the zero\");\n        require(service.isContract() == true, \"DkargoOrder: the service is not contract\");\n        require(members.length > 1, \"DkargoOrder: too few members\");\n        require(members.length == codes.length, \"DkargoOrder: out of sync(1)\");\n        require(members.length == incentives.length, \"DkargoOrder: out of sync(2)\");\n        require(msg.sender == members[0], \"DkargoOrder: only shipper can create order\");\n        _setDkargoPrefix(\"order\"); //  \n        _registerInterface(0x946edbed); // INTERFACE ID  (getDkargoPrefix)\n        _url = url; // URL \n        _service = service; //    \n        _tracking.push(Tracking({time: 0, member: members[0], code: codes[0], incentive: incentives[0]})); //   \n        _totalIncentives = _totalIncentives.add(incentives[0]);\n        for(uint256 i = 1; i < members.length; i++) { //   \n            _tracking.push(Tracking({time: 0, member: members[i], code: codes[i], incentive: incentives[i]})); //   \n            _totalIncentives = _totalIncentives.add(incentives[0]);\n        }\n    }\n\n    /// @notice   .\n    /// @dev submitOrderCreate   service.approveOrderCreate  \n    /// @param id  \n    function setOrderId(uint256 id) public {\n        require(msg.sender == _service, \"DkargoOrder: only service can call\"); //   approve()  \n        _orderid = id;\n    }\n\n    /// @notice URL  .\n    /// @dev  : ,   Flow  .(  /    URL  )\n    /// @param url  URL\n    function setUrl(string memory url) public {\n        require(msg.sender == _tracking[0].member, \"DkargoOrder: only shipper can call\");\n        emit OrderUrlSet(_url, url);\n        _url = url;\n    }\n\n    /// @notice       .\n    /// @dev  : \n    function submitOrderCreate() public {\n        require(msg.sender == _tracking[0].member, \"DkargoOrder: only shipper can call\");\n        _tracking[0].time = uint64(block.timestamp); //    (from. )\n        _curstep = _curstep.add(1); //  step   ( step)\n        _approveOrderCreate(msg.sender); //   (approveOrderCreate) \n    }\n\n    /// @notice    .\n    /// @dev  .  (done == true),       .\n    /// @param time   \n    /// @param code  \n    function submitOrderUpdate(uint64 time, uint256 code) public {\n        require(msg.sender == _tracking[_curstep].member, \"DkargoOrder: unauthorized caller\");\n        require(_done == false, \"DkargoOrder: the order has aleady been completed.\");\n        _onlyValidCode(code);\n        if(code == TRACKCODE_FAILED) { //   \n            _tracking[_curstep].code = TRACKCODE_FAILED;\n            _done = true;\n        } else { //   \n            require(_tracking[_curstep].code == code, \"DkargoOrder: code is out of order\");\n            _tracking[_curstep].time = time;\n            _curstep = _curstep.add(1); //  step   ( step)\n            if(_curstep == _tracking.length) { //    \n                _done = true;\n            }\n        }\n        _approveOrderUpdate(msg.sender, _curstep); //   (approveOrderUpdate) \n    }\n\n    /// @notice     .\n    /// @dev (_done == true) ,    TRACKCODE_FAILED  .\n    /// @return    (bool), true: O, false: X\n    function isFailed() public view returns(bool) {\n        return ((_done == true) && (_curstep < _tracking.length))? (true) : (false);\n    }\n\n    /// @notice      .\n    /// @dev (_done == true) ,     . (_curstep == _tracking.length)\n    /// @return     (bool), true: O, false: X\n    function isComplete() public view returns(bool) {\n        return ((_done == true) && (_curstep == _tracking.length))? (true) : (false);\n    }\n\n    /// @notice   LastMile   .\n    /// @dev LastMile:     (  )\n    /// @return LastMile   (bool), true: O, false: X\n    function isLastMile() public view returns(bool) {\n        return ((_done == false) && (_tracking[_curstep].code == TRACKCODE_COMPLETE))? (true) : (false);\n    }\n\n    /// @notice       .\n    /// @return      \n    function currentStep() public view returns(uint256) {\n        return _curstep;\n    }\n\n    /// @notice        .\n    /// @return time  \n    /// @return addr  \n    /// @return code  \n    /// @return incentive  \n    function currentTracking() public view returns(uint64 time, address addr, uint256 code, uint256 incentive) {\n        if(_curstep < _tracking.length) {\n            time = _tracking[_curstep].time;\n            addr = _tracking[_curstep].member;\n            code = _tracking[_curstep].code;\n            incentive = _tracking[_curstep].incentive;\n        } else {\n            time = 0;\n            addr = address(0);\n            code = 0;\n            incentive = 0;\n        }\n    }\n\n    /// @notice  .\n    /// @return  (uint256)\n    function orderid() public view returns(uint256) {\n        return _orderid;\n    }\n\n    /// @notice    .\n    /// @return    (address)\n    function service() public view returns(address) {\n        return _service;\n    }\n\n    /// @notice     .\n    /// @return     (uint256)\n    function totalIncentive() public view returns(uint256) {\n        return _totalIncentives;\n    }\n\n    /// @notice index     .\n    /// @param index Traking \n    /// @return time  \n    /// @return addr  \n    /// @return code  \n    /// @return incentive  \n    function tracking(uint256 index) public view returns(uint64 time, address addr, uint256 code, uint256 incentive) {\n        if(index < _tracking.length) {\n            time = _tracking[index].time;\n            addr = _tracking[index].member;\n            code = _tracking[index].code;\n            incentive = _tracking[index].incentive;\n        } else {\n            time = 0;\n            addr = address(0);\n            code = 0;\n            incentive = 0;\n        }\n    }\n\n    /// @notice   Tracking   .\n    /// @return Tracking   (uint256)\n    function trackingCount() public view returns(uint256) {\n        return _tracking.length;\n    }\n\n    /// @notice URL  .\n    /// @return URL (string)\n    function url() public view returns(string memory) {\n        return _url;\n    }\n\n    /// @notice      .\n    /// @return   (address)\n    function _getRecipient(address company) private view returns(address) {\n        bytes memory data = address(company)._vcall(abi.encodeWithSignature(\"recipient()\"));\n        return abi.decode(data, (address));\n    }\n\n    /// @notice      .\n    /// @return   (address)\n    function _getTokenAddress() private view returns(address) {\n        bytes memory data = address(_service)._vcall(abi.encodeWithSignature(\"token()\"));\n        return abi.decode(data, (address));\n    }\n\n    /// @notice      approveOrderCreate .\n    /// @param reporter  ()\n    function _approveOrderCreate(address reporter) private {\n        bytes memory cmd = abi.encodeWithSignature(\"approveOrderCreate(address,address)\", address(this), reporter);\n        address(_service)._call(cmd); //   \"\"  ->  ,   \n    }\n\n    /// @notice       approveOrderUpdate .\n    /// @param reporter  ()\n    /// @param transportid  ()\n    function _approveOrderUpdate(address reporter, uint256 transportid) private {\n        bytes memory cmd = abi.encodeWithSignature(\"approveOrderUpdate(address,address,uint256)\", address(this), reporter, transportid);\n        address(_service)._call(cmd); //   \"\"  ->   \n    }\n\n    /// @notice          REVERT .\n    /// @param code  \n    function _onlyValidCode(uint256 code) private pure {\n        bool valid = true;\n        do {\n            if(code == TRACKCODE_INIT) break;\n            if(code == TRACKCODE_CANCEL) break;\n            if(code == TRACKCODE_LAUNCH) break;\n            if(code == TRACKCODE_WAREHOUSING) break;\n            if(code == TRACKCODE_RELEASED) break;\n            if(code == TRACKCODE_FLIGHT) break;\n            if(code == TRACKCODE_LASTMILE) break;\n            if(code == TRACKCODE_COMPLETE) break;\n            valid = false;\n        } while(false);\n        if(valid == false) {\n            revert(\"DkargoOrder: the code is not valid\");\n        }\n    }\n}",
  "sourcePath": "/home/jhhong/work/renewal/dkargo-scm/contracts/DkargoOrder.sol",
  "compiler": {
    "name": "solc",
    "version": "0.7.0+commit.9e61f92b.Emscripten.clang"
  },
  "schemaVersion": "3.2.3",
  "updatedAt": "2020-11-19T06:14:42.987Z",
  "devdoc": {
    "author": "jhhong",
    "details": "to-do.list 1.        /   (   /     ) 2.     multi-signature    (     ,    multi-signature  ) 3.         (     )",
    "events": {
      "OrderUrlSet(string,string)": {
        "params": {
          "newUrl": "   URL",
          "oldUrl": "   URL"
        }
      }
    },
    "kind": "dev",
    "methods": {
      "constructor": {
        "params": {
          "codes": "   ",
          "incentives": "       ",
          "members": "   ",
          "service": "  ",
          "url": "   URL (string)"
        }
      },
      "currentStep()": {
        "returns": {
          "_0": "     "
        }
      },
      "currentTracking()": {
        "returns": {
          "addr": " ",
          "code": " ",
          "incentive": " ",
          "time": " "
        }
      },
      "getDkargoPrefix()": {
        "returns": {
          "_0": "  (string)"
        }
      },
      "isComplete()": {
        "details": "(_done == true) ,     . (_curstep == _tracking.length)",
        "returns": {
          "_0": "    (bool), true: O, false: X"
        }
      },
      "isFailed()": {
        "details": "(_done == true) ,    TRACKCODE_FAILED  .",
        "returns": {
          "_0": "   (bool), true: O, false: X"
        }
      },
      "isLastMile()": {
        "details": "LastMile:     (  )",
        "returns": {
          "_0": "LastMile   (bool), true: O, false: X"
        }
      },
      "orderid()": {
        "returns": {
          "_0": " (uint256)"
        }
      },
      "service()": {
        "returns": {
          "_0": "   (address)"
        }
      },
      "setOrderId(uint256)": {
        "details": "submitOrderCreate   service.approveOrderCreate  ",
        "params": {
          "id": " "
        }
      },
      "setUrl(string)": {
        "details": " : ,   Flow  .(  /    URL  )",
        "params": {
          "url": " URL"
        }
      },
      "submitOrderCreate()": {
        "details": " : "
      },
      "submitOrderUpdate(uint64,uint256)": {
        "details": " .  (done == true),       .",
        "params": {
          "code": " ",
          "time": "  "
        }
      },
      "supportsInterface(bytes4)": {
        "params": {
          "infcid": "  INTERFACE ID (Function Selector)"
        },
        "returns": {
          "_0": " (boolean)"
        }
      },
      "totalIncentive()": {
        "returns": {
          "_0": "    (uint256)"
        }
      },
      "tracking(uint256)": {
        "params": {
          "index": "Traking "
        },
        "returns": {
          "addr": " ",
          "code": " ",
          "incentive": " ",
          "time": " "
        }
      },
      "trackingCount()": {
        "returns": {
          "_0": "Tracking   (uint256)"
        }
      },
      "url()": {
        "returns": {
          "_0": "URL (string)"
        }
      }
    },
    "stateVariables": {
      "TRACKCODE_INIT": {
        "details": "   "
      },
      "_done": {
        "details": " "
      }
    },
    "title": "DkargoOrder",
    "version": 1
  },
  "userdoc": {
    "events": {
      "OrderUrlSet(string,string)": {
        "notice": "  URL "
      }
    },
    "kind": "user",
    "methods": {
      "constructor": {
        "notice": " ."
      },
      "currentStep()": {
        "notice": "      ."
      },
      "currentTracking()": {
        "notice": "       ."
      },
      "getDkargoPrefix()": {
        "notice": "  ."
      },
      "isComplete()": {
        "notice": "     ."
      },
      "isFailed()": {
        "notice": "    ."
      },
      "isLastMile()": {
        "notice": "  LastMile   ."
      },
      "orderid()": {
        "notice": " ."
      },
      "service()": {
        "notice": "   ."
      },
      "setOrderId(uint256)": {
        "notice": "  ."
      },
      "setUrl(string)": {
        "notice": "URL  ."
      },
      "submitOrderCreate()": {
        "notice": "      ."
      },
      "submitOrderUpdate(uint64,uint256)": {
        "notice": "   ."
      },
      "supportsInterface(bytes4)": {
        "notice": " INTERFACE ID   ."
      },
      "totalIncentive()": {
        "notice": "    ."
      },
      "tracking(uint256)": {
        "notice": "index     ."
      },
      "trackingCount()": {
        "notice": "  Tracking   ."
      },
      "url()": {
        "notice": "URL  ."
      }
    },
    "notice": "  ",
    "version": 1
  }
}