{
  "contractName": "DkargoPrefix",
  "abi": [
    {
      "inputs": [],
      "name": "getDkargoPrefix",
      "outputs": [
        {
          "internalType": "string",
          "name": "",
          "type": "string"
        }
      ],
      "stateMutability": "view",
      "type": "function"
    }
  ],
  "bytecode": "0x608060405234801561001057600080fd5b50610179806100206000396000f3fe608060405234801561001057600080fd5b506004361061002b5760003560e01c8063946edbed14610030575b600080fd5b6100386100ad565b6040805160208082528351818301528351919283929083019185019080838360005b8381101561007257818101518382015260200161005a565b50505050905090810190601f16801561009f5780820380516001836020036101000a031916815260200191505b509250505060405180910390f35b60008054604080516020601f60026000196101006001881615020190951694909404938401819004810282018101909252828152606093909290918301828280156101395780601f1061010e57610100808354040283529160200191610139565b820191906000526020600020905b81548152906001019060200180831161011c57829003601f168201915b505050505090509056fea264697066735822122098c92ae9b3c480be296ac9e98860ab34cfa3fca5e5241420751bf89ae9ff8e6164736f6c63430007000033",
  "immutableReferences": {},
  "source": "// SPDX-License-Identifier: MIT\npragma solidity >=0.6.0;\n\n/// @title DkargoPrefix\n/// @notice 디카르고 컨트랙트 여부 식별용 prefix 컨트랙트 정의\n/// @author jhhong\ncontract DkargoPrefix {\n\n    /// @dev 변수 선언\n    string internal _dkargoPrefix; // 디카르고-프리픽스\n\n    /// @notice 디카르고 프리픽스를 반환한다.\n    /// @return 디카르고 프리픽스 (string)\n    function getDkargoPrefix() public view returns(string memory) {\n        return _dkargoPrefix;\n    }\n\n    /// @notice 디카르고 프리픽스를 설정한다.\n    /// @param prefix 설정할 프리픽스\n    function _setDkargoPrefix(string memory prefix) internal {\n        _dkargoPrefix = prefix;\n    }\n}",
  "sourcePath": "/home/jhhong/work/temp/dkargo-scm/dkargo-scm/contracts/DkargoPrefix.sol",
  "compiler": {
    "name": "solc",
    "version": "0.7.0+commit.9e61f92b.Emscripten.clang"
  },
  "schemaVersion": "3.2.3",
  "updatedAt": "2020-08-11T09:28:47.281Z",
  "devdoc": {
    "author": "jhhong",
    "kind": "dev",
    "methods": {
      "getDkargoPrefix()": {
        "returns": {
          "_0": "디카르고 프리픽스 (string)"
        }
      }
    },
    "stateVariables": {
      "_dkargoPrefix": {
        "details": "변수 선언"
      }
    },
    "title": "DkargoPrefix",
    "version": 1
  },
  "userdoc": {
    "kind": "user",
    "methods": {
      "getDkargoPrefix()": {
        "notice": "디카르고 프리픽스를 반환한다."
      }
    },
    "notice": "디카르고 컨트랙트 여부 식별용 prefix 컨트랙트 정의",
    "version": 1
  }
}