{
  "contractName": "DkargoCompany",
  "abi": [
    {
      "inputs": [
        {
          "internalType": "string",
          "name": "name",
          "type": "string"
        },
        {
          "internalType": "string",
          "name": "url",
          "type": "string"
        },
        {
          "internalType": "address",
          "name": "recipient",
          "type": "address"
        },
        {
          "internalType": "address",
          "name": "service",
          "type": "address"
        }
      ],
      "stateMutability": "nonpayable",
      "type": "constructor"
    },
    {
      "anonymous": false,
      "inputs": [
        {
          "indexed": true,
          "internalType": "address",
          "name": "account",
          "type": "address"
        }
      ],
      "name": "OperatorAdded",
      "type": "event"
    },
    {
      "anonymous": false,
      "inputs": [
        {
          "indexed": true,
          "internalType": "address",
          "name": "account",
          "type": "address"
        }
      ],
      "name": "OperatorRemoved",
      "type": "event"
    },
    {
      "anonymous": false,
      "inputs": [
        {
          "indexed": true,
          "internalType": "address",
          "name": "old",
          "type": "address"
        },
        {
          "indexed": true,
          "internalType": "address",
          "name": "expected",
          "type": "address"
        }
      ],
      "name": "OwnershipTransferred",
      "type": "event"
    },
    {
      "inputs": [
        {
          "internalType": "address",
          "name": "account",
          "type": "address"
        }
      ],
      "name": "addOperator",
      "outputs": [],
      "stateMutability": "nonpayable",
      "type": "function"
    },
    {
      "inputs": [],
      "name": "getDkargoPrefix",
      "outputs": [
        {
          "internalType": "string",
          "name": "",
          "type": "string"
        }
      ],
      "stateMutability": "view",
      "type": "function"
    },
    {
      "inputs": [
        {
          "internalType": "address",
          "name": "account",
          "type": "address"
        }
      ],
      "name": "isOperator",
      "outputs": [
        {
          "internalType": "bool",
          "name": "",
          "type": "bool"
        }
      ],
      "stateMutability": "view",
      "type": "function"
    },
    {
      "inputs": [],
      "name": "isOwner",
      "outputs": [
        {
          "internalType": "bool",
          "name": "",
          "type": "bool"
        }
      ],
      "stateMutability": "view",
      "type": "function"
    },
    {
      "inputs": [],
      "name": "owner",
      "outputs": [
        {
          "internalType": "address",
          "name": "",
          "type": "address"
        }
      ],
      "stateMutability": "view",
      "type": "function"
    },
    {
      "inputs": [
        {
          "internalType": "address",
          "name": "account",
          "type": "address"
        }
      ],
      "name": "removeOperator",
      "outputs": [],
      "stateMutability": "nonpayable",
      "type": "function"
    },
    {
      "inputs": [
        {
          "internalType": "bytes4",
          "name": "infcid",
          "type": "bytes4"
        }
      ],
      "name": "supportsInterface",
      "outputs": [
        {
          "internalType": "bool",
          "name": "",
          "type": "bool"
        }
      ],
      "stateMutability": "view",
      "type": "function"
    },
    {
      "inputs": [
        {
          "internalType": "address",
          "name": "expected",
          "type": "address"
        }
      ],
      "name": "transferOwnership",
      "outputs": [],
      "stateMutability": "nonpayable",
      "type": "function"
    },
    {
      "inputs": [
        {
          "internalType": "uint256",
          "name": "amount",
          "type": "uint256"
        }
      ],
      "name": "staking",
      "outputs": [],
      "stateMutability": "nonpayable",
      "type": "function"
    },
    {
      "inputs": [],
      "name": "unstaking",
      "outputs": [],
      "stateMutability": "nonpayable",
      "type": "function"
    },
    {
      "inputs": [
        {
          "internalType": "address",
          "name": "order",
          "type": "address"
        },
        {
          "internalType": "uint256",
          "name": "transportid",
          "type": "uint256"
        }
      ],
      "name": "launch",
      "outputs": [],
      "stateMutability": "nonpayable",
      "type": "function"
    },
    {
      "inputs": [
        {
          "internalType": "address",
          "name": "order",
          "type": "address"
        },
        {
          "internalType": "uint256",
          "name": "transportid",
          "type": "uint256"
        },
        {
          "internalType": "uint256",
          "name": "code",
          "type": "uint256"
        }
      ],
      "name": "updateOrderCode",
      "outputs": [],
      "stateMutability": "nonpayable",
      "type": "function"
    },
    {
      "inputs": [
        {
          "internalType": "string",
          "name": "name",
          "type": "string"
        }
      ],
      "name": "setName",
      "outputs": [],
      "stateMutability": "nonpayable",
      "type": "function"
    },
    {
      "inputs": [
        {
          "internalType": "string",
          "name": "url",
          "type": "string"
        }
      ],
      "name": "setUrl",
      "outputs": [],
      "stateMutability": "nonpayable",
      "type": "function"
    },
    {
      "inputs": [
        {
          "internalType": "address",
          "name": "recipient",
          "type": "address"
        }
      ],
      "name": "setRecipient",
      "outputs": [],
      "stateMutability": "nonpayable",
      "type": "function"
    },
    {
      "inputs": [],
      "name": "firstOrder",
      "outputs": [
        {
          "internalType": "address",
          "name": "",
          "type": "address"
        }
      ],
      "stateMutability": "view",
      "type": "function"
    },
    {
      "inputs": [
        {
          "internalType": "address",
          "name": "order",
          "type": "address"
        },
        {
          "internalType": "uint256",
          "name": "transportid",
          "type": "uint256"
        }
      ],
      "name": "isLaunched",
      "outputs": [
        {
          "internalType": "bool",
          "name": "",
          "type": "bool"
        }
      ],
      "stateMutability": "view",
      "type": "function"
    },
    {
      "inputs": [],
      "name": "lastOrder",
      "outputs": [
        {
          "internalType": "address",
          "name": "",
          "type": "address"
        }
      ],
      "stateMutability": "view",
      "type": "function"
    },
    {
      "inputs": [],
      "name": "name",
      "outputs": [
        {
          "internalType": "string",
          "name": "",
          "type": "string"
        }
      ],
      "stateMutability": "view",
      "type": "function"
    },
    {
      "inputs": [
        {
          "internalType": "address",
          "name": "order",
          "type": "address"
        }
      ],
      "name": "nextOrder",
      "outputs": [
        {
          "internalType": "address",
          "name": "",
          "type": "address"
        }
      ],
      "stateMutability": "view",
      "type": "function"
    },
    {
      "inputs": [],
      "name": "orderCount",
      "outputs": [
        {
          "internalType": "uint256",
          "name": "",
          "type": "uint256"
        }
      ],
      "stateMutability": "view",
      "type": "function"
    },
    {
      "inputs": [
        {
          "internalType": "address",
          "name": "order",
          "type": "address"
        }
      ],
      "name": "prevOrder",
      "outputs": [
        {
          "internalType": "address",
          "name": "",
          "type": "address"
        }
      ],
      "stateMutability": "view",
      "type": "function"
    },
    {
      "inputs": [],
      "name": "recipient",
      "outputs": [
        {
          "internalType": "address",
          "name": "",
          "type": "address"
        }
      ],
      "stateMutability": "view",
      "type": "function"
    },
    {
      "inputs": [],
      "name": "service",
      "outputs": [
        {
          "internalType": "address",
          "name": "",
          "type": "address"
        }
      ],
      "stateMutability": "view",
      "type": "function"
    },
    {
      "inputs": [],
      "name": "url",
      "outputs": [
        {
          "internalType": "string",
          "name": "",
          "type": "string"
        }
      ],
      "stateMutability": "view",
      "type": "function"
    }
  ],
  "bytecode": "0x60806040523480156200001157600080fd5b5060405162001c8138038062001c81833981810160405260808110156200003757600080fd5b81019080805160405193929190846401000000008211156200005857600080fd5b9083019060208201858111156200006e57600080fd5b82516401000000008111828201881017156200008957600080fd5b82525081516020918201929091019080838360005b83811015620000b85781810151838201526020016200009e565b50505050905090810190601f168015620000e65780820380516001836020036101000a031916815260200191505b50604052602001805160405193929190846401000000008211156200010a57600080fd5b9083019060208201858111156200012057600080fd5b82516401000000008111828201881017156200013b57600080fd5b82525081516020918201929091019080838360005b838110156200016a57818101518382015260200162000150565b50505050905090810190601f168015620001985780820380516001836020036101000a031916815260200191505b50604081815260208301519201516000805493955090935033926001600160a01b0316917f8be0079c531659141344cd1fd0a4f28419497f9722a3daafe3b4186f6b6457e09190a360008054336001600160a01b03199091168117909155620002109060019062000331602090811b62000db817901c565b60405133907fac6fa858e9350a46cec16539926e0fde25b7629f84b5a72bffaae4df888ae86d90600090a2620002667f01ffc9a700000000000000000000000000000000000000000000000000000000620003ba565b60408051808201909152600781527f636f6d70616e79000000000000000000000000000000000000000000000000006020820152620002a59062000489565b620002d07f946edbed00000000000000000000000000000000000000000000000000000000620003ba565b8351620002e590600490602087019062000525565b508251620002fb90600590602086019062000525565b50600680546001600160a01b039384166001600160a01b0319918216179091556007805492909316911617905550620005c19050565b6200033d8282620004a2565b1562000395576040517f08c379a000000000000000000000000000000000000000000000000000000000815260040180806020018281038252602381526020018062001c5e6023913960400191505060405180910390fd5b6001600160a01b0316600090815260209190915260409020805460ff19166001179055565b7fffffffff0000000000000000000000000000000000000000000000000000000080821614156200044c57604080517f08c379a000000000000000000000000000000000000000000000000000000000815260206004820152601c60248201527f4552433136353a20696e76616c696420696e7465726661636520696400000000604482015290519081900360640190fd5b7fffffffff00000000000000000000000000000000000000000000000000000000166000908152600260205260409020805460ff19166001179055565b80516200049e90600390602084019062000525565b5050565b60006001600160a01b03821662000505576040517f08c379a000000000000000000000000000000000000000000000000000000000815260040180806020018281038252602581526020018062001c396025913960400191505060405180910390fd5b506001600160a01b03166000908152602091909152604090205460ff1690565b828054600181600116156101000203166002900490600052602060002090601f016020900481019282601f106200056857805160ff191683800117855562000598565b8280016001018555821562000598579182015b82811115620005985782518255916020019190600101906200057b565b50620005a6929150620005aa565b5090565b5b80821115620005a65760008155600101620005ab565b61166880620005d16000396000f3fe608060405234801561001057600080fd5b50600436106101735760003560e01c80638da5cb5b116100de578063c47f002711610097578063dfb0968e11610071578063dfb0968e14610503578063e50097a914610529578063edfb65161461055b578063f2fde38b1461058757610173565b8063c47f00271461044d578063d23b7ff6146104f3578063d598d4c9146104fb57610173565b80638da5cb5b146103bd5780638f32d59b146103c5578063946edbed146103cd5780639870d7fe146103d5578063a71e1a47146103fb578063ac8a584a1461042757610173565b80633bbed4a0116101305780633bbed4a014610333578063508956d7146103595780635600f04f1461037f578063630b11461461038757806366d003ac1461038f5780636d70f7ae1461039757610173565b806301ffc9a71461017857806306fdde03146101b35780631dbb2a22146102305780632453ffa81461024f578063252498a21461026957806336770e271461030f575b600080fd5b61019f6004803603602081101561018e57600080fd5b50356001600160e01b0319166105ad565b604080519115158252519081900360200190f35b6101bb6105cc565b6040805160208082528351818301528351919283929083019185019080838360005b838110156101f55781810151838201526020016101dd565b50505050905090810190601f1680156102225780820380516001836020036101000a031916815260200191505b509250505060405180910390f35b61024d6004803603602081101561024657600080fd5b5035610662565b005b6102576106ad565b60408051918252519081900360200190f35b61024d6004803603602081101561027f57600080fd5b81019060208101813564010000000081111561029a57600080fd5b8201836020820111156102ac57600080fd5b803590602001918460018302840111640100000000831117156102ce57600080fd5b91908080601f0160208091040260200160405190810160405280939291908181526020018383808284376000920191909152509295506106be945050505050565b61031761071d565b604080516001600160a01b039092168252519081900360200190f35b61024d6004803603602081101561034957600080fd5b50356001600160a01b0316610729565b6103176004803603602081101561036f57600080fd5b50356001600160a01b0316610793565b6101bb6107a6565b61024d610807565b610317610851565b61019f600480360360208110156103ad57600080fd5b50356001600160a01b0316610860565b61031761086d565b61019f61087c565b6101bb61088d565b61024d600480360360208110156103eb57600080fd5b50356001600160a01b03166108ee565b61019f6004803603604081101561041157600080fd5b506001600160a01b0381351690602001356109bd565b61024d6004803603602081101561043d57600080fd5b50356001600160a01b03166109e8565b61024d6004803603602081101561046357600080fd5b81019060208101813564010000000081111561047e57600080fd5b82018360208201111561049057600080fd5b803590602001918460018302840111640100000000831117156104b257600080fd5b91908080601f016020809104026020016040519081016040528093929190818152602001838380828437600092019190915250929550610aff945050505050565b610317610b5a565b610317610b66565b6103176004803603602081101561051957600080fd5b50356001600160a01b0316610b75565b61024d6004803603606081101561053f57600080fd5b506001600160a01b038135169060208101359060400135610b82565b61024d6004803603604081101561057157600080fd5b506001600160a01b038135169060200135610c9d565b61024d6004803603602081101561059d57600080fd5b50356001600160a01b0316610d29565b6001600160e01b03191660009081526002602052604090205460ff1690565b60048054604080516020601f60026000196101006001881615020190951694909404938401819004810282018101909252828152606093909290918301828280156106585780601f1061062d57610100808354040283529160200191610658565b820191906000526020600020905b81548152906001019060200180831161063b57829003601f168201915b5050505050905090565b61066a61087c565b15156001146106aa5760405162461bcd60e51b81526004018080602001828103825260228152602001806114a56022913960400191505060405180910390fd5b50565b60006106b96009610e23565b905090565b6106c661087c565b15156001146107065760405162461bcd60e51b81526004018080602001828103825260228152602001806114a56022913960400191505060405180910390fd5b80516107199060059060208401906113c8565b5050565b60006106b96009610e27565b61073161087c565b15156001146107715760405162461bcd60e51b81526004018080602001828103825260228152602001806114a56022913960400191505060405180910390fd5b600680546001600160a01b0319166001600160a01b0392909216919091179055565b60006107a0600983610e37565b92915050565b60058054604080516020601f60026000196101006001881615020190951694909404938401819004810282018101909252828152606093909290918301828280156106585780601f1061062d57610100808354040283529160200191610658565b61080f61087c565b151560011461084f5760405162461bcd60e51b81526004018080602001828103825260228152602001806114a56022913960400191505060405180910390fd5b565b6006546001600160a01b031690565b60006107a0600183610e5a565b6000546001600160a01b031690565b6000546001600160a01b0316331490565b60038054604080516020601f60026000196101006001881615020190951694909404938401819004810282018101909252828152606093909290918301828280156106585780601f1061062d57610100808354040283529160200191610658565b6108f661087c565b15156001146109365760405162461bcd60e51b81526004018080602001828103825260228152602001806114a56022913960400191505060405180910390fd5b6001600160a01b03811661097b5760405162461bcd60e51b815260040180806020018281038252602881526020018061145c6028913960400191505060405180910390fd5b610986600182610db8565b6040516001600160a01b038216907fac6fa858e9350a46cec16539926e0fde25b7629f84b5a72bffaae4df888ae86d90600090a250565b6001600160a01b03919091166000908152600860209081526040808320938352929052205460ff1690565b6109f061087c565b1515600114610a305760405162461bcd60e51b81526004018080602001828103825260228152602001806114a56022913960400191505060405180910390fd5b6001600160a01b038116610a755760405162461bcd60e51b815260040180806020018281038252602881526020018061145c6028913960400191505060405180910390fd5b336001600160a01b0382161415610abd5760405162461bcd60e51b815260040180806020018281038252603d81526020018061153c603d913960400191505060405180910390fd5b610ac8600182610ec1565b6040516001600160a01b038216907f80c0b871b97b595b16a7741c1b06fed0c6f6f558639f18ccbce50724325dc40d90600090a250565b610b0761087c565b1515600114610b475760405162461bcd60e51b81526004018080602001828103825260228152602001806114a56022913960400191505060405180910390fd5b80516107199060049060208401906113c8565b60006106b96009610f28565b6007546001600160a01b031690565b60006107a0600983610f38565b610b8b33610860565b610bc65760405162461bcd60e51b81526004018080602001828103825260288152602001806115e86028913960400191505060405180910390fd5b610bd1600984610f5e565b1515600114610c115760405162461bcd60e51b81526004018080602001828103825260218152602001806114846021913960400191505060405180910390fd5b6001600160a01b038316600090815260086020908152604080832085845290915290205460ff161515600114610c8e576040805162461bcd60e51b815260206004820152601f60248201527f446b6172676f436f6d70616e793a20756e6c61756e63686564206f7264657200604482015290519081900360640190fd5b610c988382611005565b505050565b610ca633610860565b610ce15760405162461bcd60e51b81526004018080602001828103825260288152602001806115e86028913960400191505060405180910390fd5b6001600160a01b03821660009081526008602090815260408083208484529091529020805460ff19166001179055610d1a600983610f5e565b6107195761071960098361105c565b610d3281611189565b610d3b81610860565b610d7f57610d4a600182610db8565b6040516001600160a01b038216907fac6fa858e9350a46cec16539926e0fde25b7629f84b5a72bffaae4df888ae86d90600090a25b610d8a600133610ec1565b60405133907f80c0b871b97b595b16a7741c1b06fed0c6f6f558639f18ccbce50724325dc40d90600090a250565b610dc28282610e5a565b15610dfe5760405162461bcd60e51b815260040180806020018281038252602381526020018061159e6023913960400191505060405180910390fd5b6001600160a01b0316600090815260209190915260409020805460ff19166001179055565b5490565b600101546001600160a01b031690565b6001600160a01b0380821660009081526003840160205260409020541692915050565b60006001600160a01b038216610ea15760405162461bcd60e51b81526004018080602001828103825260258152602001806115796025913960400191505060405180910390fd5b506001600160a01b03166000908152602091909152604090205460ff1690565b610ecb8282610e5a565b610f065760405162461bcd60e51b81526004018080602001828103825260258152602001806115176025913960400191505060405180910390fd5b6001600160a01b0316600090815260209190915260409020805460ff19169055565b600201546001600160a01b031690565b6001600160a01b0380821660009081526003840160205260409020600101541692915050565b81546000906001148015610f81575060018301546001600160a01b038381169116145b8015610f9c575060028301546001600160a01b038381169116145b15610fa9575060016107a0565b6001600160a01b03828116600090815260038501602052604090205416158015610ff057506001600160a01b03828116600090815260038501602052604090206001015416155b610ffb576001610ffe565b60005b90506107a0565b6040805142602482015260448082018490528251808303909101815260649091019091526020810180516001600160e01b0316636133273360e01b1790526110566001600160a01b03841682611271565b50505050565b6001600160a01b0381166110a15760405162461bcd60e51b81526004018080602001828103825260298152602001806114ee6029913960400191505060405180910390fd5b6110ab8282610f5e565b156110e75760405162461bcd60e51b81526004018080602001828103825260278152602001806114c76027913960400191505060405180910390fd5b8154611121576002820180546001600160a01b0383166001600160a01b031991821681179092556001840180549091169091179055611176565b6002820180546001600160a01b03838116600081815260038701602052604080822080549585166001600160a01b03199687161790558554909316815291909120600101805483168217905582549091161790555b8154611183906001611367565b90915550565b61119161087c565b15156001146111d15760405162461bcd60e51b81526004018080602001828103825260228152602001806114a56022913960400191505060405180910390fd5b6001600160a01b0381166112165760405162461bcd60e51b81526004018080602001828103825260278152602001806115c16027913960400191505060405180910390fd5b600080546040516001600160a01b03808516939216917f8be0079c531659141344cd1fd0a4f28419497f9722a3daafe3b4186f6b6457e091a3600080546001600160a01b0319166001600160a01b0392909216919091179055565b606060006060846001600160a01b0316846040518082805190602001908083835b602083106112b15780518252601f199092019160209182019101611292565b6001836020036101000a0380198251168184511680821785525050505050509050019150506000604051808303816000865af19150503d8060008114611313576040519150601f19603f3d011682016040523d82523d6000602084013e611318565b606091505b50909250905060018215151461135f5760405162461bcd60e51b81526004018080602001828103825260238152602001806116106023913960400191505060405180910390fd5b949350505050565b6000828201838110156113c1576040805162461bcd60e51b815260206004820152601e60248201527f536166654d6174683235363a206164646974696f6e206f766572666c6f770000604482015290519081900360640190fd5b9392505050565b828054600181600116156101000203166002900490600052602060002090601f016020900481019282601f1061140957805160ff1916838001178555611436565b82800160010185558215611436579182015b8281111561143657825182559160200191906001019061141b565b50611442929150611446565b5090565b5b80821115611442576000815560010161144756fe4f70657261746f72736869703a2074686520616464726573732063616e6e6f74206265207a65726f446b6172676f436f6d70616e793a20756e72656769737465726564206f726465724f776e6572736869703a206f6e6c7920746865206f776e65722063616e2063616c6c436861696e416464726573733a20746865206e6f646520697320616c65616479206c696e6b6564436861696e416464726573733a20746865206e6f64652063616e6e6f7420626520746865207a65726f526f6c65733a20746865206163636f756e7420646f6573206e6f74206861766520726f6c654f70657261746f72736869703a20746865206f776e65722063616e6e6f742062652072656d6f7665642066726f6d206f70657261746f722067726f7570526f6c65733a20746865206163636f756e742063616e6e6f7420626520746865207a65726f526f6c65733a20746865206163636f756e7420616c72656164792068617320726f6c654f776e6572736869703a206e6577206f776e65722063616e6e6f7420626520746865207a65726f4f70657261746f72736869703a206f6e6c7920746865206f70657261746f722063616e2063616c6c416464726573733a2066756e6374696f6e2863616c6c292063616c6c206661696c6564a26469706673582212200b99c0fcec3a01f759011807059e540b5dd2ed136725a9129bdc901c7b4a7e2164736f6c63430007000033526f6c65733a20746865206163636f756e742063616e6e6f7420626520746865207a65726f526f6c65733a20746865206163636f756e7420616c72656164792068617320726f6c65",
  "immutableReferences": {},
  "source": "// SPDX-License-Identifier: MIT\npragma solidity >=0.6.0;\n\nimport \"./DkargoPrefix.sol\";\nimport \"./authority/Operatorship.sol\";\nimport \"./introspection/ERC165/ERC165.sol\";\nimport \"./libs/Address.sol\";\nimport \"./libs/chain/ChainAddress.sol\";\nimport \"./libs/chain/Typedef.sol\";\n\n/// @title DkargoCompany\n/// @notice   \n/// @author jhhong\ncontract DkargoCompany is Operatorship, ERC165, DkargoPrefix {\n    using Address for address;\n    using ChainAddress for Typedef.AddressList;\n\n    /// @dev  \n    string private _name; //  \n    string private _url; //   URL\n    address private _recipient; //   \n    address private _service; //   \n    mapping(address => mapping(uint256 => bool)) private _todolist; //    \n    Typedef.AddressList private _orderchain; //   ( )\n\n    /// @notice  .\n    /// @param name  \n    /// @param url    URL (string)\n    /// @param recipient   \n    /// @param service   \n    constructor(string memory name, string memory url, address recipient, address service) {\n        _setDkargoPrefix(\"company\"); //  \n        _registerInterface(0x946edbed); // INTERFACE ID  (getDkargoPrefix)\n        _name = name;\n        _url = url;\n        _recipient = recipient;\n        _service = service;\n    }\n\n    /// @notice    DKA staking.\n    /// @param amount staking DKA \n    function staking(uint256 amount) onlyOwner public {\n        /* need to design */\n    }\n\n    /// @notice DKA unstaking.\n    function unstaking() onlyOwner public {\n        /* need to design */\n    }\n\n    /// @notice  .\n    /// @dev (todolist ),     \n    /// @param order   \n    /// @param transportid  ()\n    function launch(address order, uint256 transportid) onlyOperator public {\n        _todolist[order][transportid] = true; // (todolist )\n        if(_orderchain.isLinked(order) == false) {\n            _orderchain.linkChain(order); //  \n        }\n    }\n\n    /// @notice   .\n    /// @dev    (/) ->    \n    /// @param order   \n    /// @param transportid  ()\n    /// @param code   \n    function updateOrderCode(address order, uint256 transportid, uint256 code) onlyOperator public {\n        ////      ( launch   revert )\n        require(_orderchain.isLinked(order) == true, \"DkargoCompany: unregistered order\");\n        require(_todolist[order][transportid] == true, \"DkargoCompany: unlaunched order\");\n        _submitUpdate(order, code);\n    }\n\n    /// @notice   .\n    /// @dev onlyOwner\n    /// @param name  \n    function setName(string memory name) onlyOwner public {\n        _name = name;\n    }\n\n    /// @notice  URL .\n    /// @dev onlyOwner\n    /// @param url  URL\n    function setUrl(string memory url) onlyOwner public {\n        _url = url;\n    }\n\n    /// @notice    .\n    /// @dev onlyOwner\n    /// @param recipient   \n    function setRecipient(address recipient) onlyOwner public {\n        _recipient = recipient;\n    }\n\n    /// @notice       .\n    /// @return    (address)\n    function firstOrder() public view returns(address) {\n        return _orderchain.first();\n    }\n\n    /// @notice     .\n    /// @param order   \n    /// @param transportid  ()\n    /// @return   (bool)\n    function isLaunched(address order, uint256 transportid) public view returns(bool) {\n        return _todolist[order][transportid];\n    }\n\n    /// @notice       .\n    /// @return    (address)\n    function lastOrder() public view returns(address) {\n        return _orderchain.last();\n    }\n\n    /// @notice   .\n    /// @return   (string)\n    function name() public view returns(string memory) {\n        return _name;\n    }\n\n    /// @notice     order      .\n    /// @param order   \n    /// @return order     (address)\n    function nextOrder(address order) public view returns(address) {\n        return _orderchain.nextOf(order);\n    }\n\n    /// @notice       .\n    /// @return    (uint256)\n    function orderCount() public view returns(uint256) {\n        return _orderchain.size();\n    }\n\n    /// @notice     order      .\n    /// @param order   \n    /// @return order     (address)\n    function prevOrder(address order) public view returns(address) {\n        return _orderchain.prevOf(order);\n    }\n\n    /// @notice    .\n    /// @return    (address)\n    function recipient() public view returns(address) {\n        return _recipient;\n    }\n\n    /// @notice    .\n    /// @return    (address)\n    function service() public view returns(address) {\n        return _service;\n    }\n\n    /// @notice  URL .\n    /// @return  URL (string)\n    function url() public view returns(string memory) {\n        return _url;\n    }\n\n    /// @notice       submitUpdate .\n    /// @param order   \n    /// @param code   \n    function _submitUpdate(address order, uint256 code) private {\n        bytes memory cmd = abi.encodeWithSignature(\"submitOrderUpdate(uint64,uint256)\", block.timestamp, code);\n        address(order)._call(cmd); //     \n    }\n}",
  "sourcePath": "/home/jhhong/work/dkargo-scm/contracts/DkargoCompany.sol",
  "compiler": {
    "name": "solc",
    "version": "0.7.0+commit.9e61f92b.Emscripten.clang"
  },
  "schemaVersion": "3.2.2",
  "updatedAt": "2020-08-21T02:35:18.750Z",
  "devdoc": {
    "author": "jhhong",
    "kind": "dev",
    "methods": {
      "addOperator(address)": {
        "details": "   ",
        "params": {
          "account": "  "
        }
      },
      "constructor": {
        "params": {
          "name": " ",
          "recipient": "  ",
          "service": "  ",
          "url": "   URL (string)"
        }
      },
      "firstOrder()": {
        "returns": {
          "_0": "   (address)"
        }
      },
      "getDkargoPrefix()": {
        "returns": {
          "_0": "  (string)"
        }
      },
      "isLaunched(address,uint256)": {
        "params": {
          "order": "  ",
          "transportid": " ()"
        },
        "returns": {
          "_0": "  (bool)"
        }
      },
      "isOperator(address)": {
        "params": {
          "account": " "
        },
        "returns": {
          "_0": "  (boolean)"
        }
      },
      "isOwner()": {
        "returns": {
          "_0": "  (boolean)"
        }
      },
      "lastOrder()": {
        "returns": {
          "_0": "   (address)"
        }
      },
      "launch(address,uint256)": {
        "details": "(todolist ),     ",
        "params": {
          "order": "  ",
          "transportid": " ()"
        }
      },
      "name()": {
        "returns": {
          "_0": "  (string)"
        }
      },
      "nextOrder(address)": {
        "params": {
          "order": "  "
        },
        "returns": {
          "_0": "order     (address)"
        }
      },
      "orderCount()": {
        "returns": {
          "_0": "   (uint256)"
        }
      },
      "owner()": {
        "returns": {
          "_0": " "
        }
      },
      "prevOrder(address)": {
        "params": {
          "order": "  "
        },
        "returns": {
          "_0": "order     (address)"
        }
      },
      "recipient()": {
        "returns": {
          "_0": "   (address)"
        }
      },
      "removeOperator(address)": {
        "details": "   ",
        "params": {
          "account": "  "
        }
      },
      "service()": {
        "returns": {
          "_0": "   (address)"
        }
      },
      "setName(string)": {
        "details": "onlyOwner",
        "params": {
          "name": " "
        }
      },
      "setRecipient(address)": {
        "details": "onlyOwner",
        "params": {
          "recipient": "  "
        }
      },
      "setUrl(string)": {
        "details": "onlyOwner",
        "params": {
          "url": " URL"
        }
      },
      "staking(uint256)": {
        "params": {
          "amount": "staking DKA "
        }
      },
      "supportsInterface(bytes4)": {
        "params": {
          "infcid": "  INTERFACE ID (Function Selector)"
        },
        "returns": {
          "_0": " (boolean)"
        }
      },
      "transferOwnership(address)": {
        "details": "    ,      .",
        "params": {
          "expected": "  "
        }
      },
      "updateOrderCode(address,uint256,uint256)": {
        "details": "   (/) ->    ",
        "params": {
          "code": "  ",
          "order": "  ",
          "transportid": " ()"
        }
      },
      "url()": {
        "returns": {
          "_0": " URL (string)"
        }
      }
    },
    "stateVariables": {
      "_name": {
        "details": " "
      }
    },
    "title": "DkargoCompany",
    "version": 1
  },
  "userdoc": {
    "kind": "user",
    "methods": {
      "addOperator(address)": {
        "notice": " ."
      },
      "constructor": {
        "notice": " ."
      },
      "firstOrder()": {
        "notice": "      ."
      },
      "getDkargoPrefix()": {
        "notice": "  ."
      },
      "isLaunched(address,uint256)": {
        "notice": "    ."
      },
      "isOperator(address)": {
        "notice": " ."
      },
      "isOwner()": {
        "notice": " ."
      },
      "lastOrder()": {
        "notice": "      ."
      },
      "launch(address,uint256)": {
        "notice": " ."
      },
      "name()": {
        "notice": "  ."
      },
      "nextOrder(address)": {
        "notice": "    order      ."
      },
      "orderCount()": {
        "notice": "      ."
      },
      "owner()": {
        "notice": "  ."
      },
      "prevOrder(address)": {
        "notice": "    order      ."
      },
      "recipient()": {
        "notice": "   ."
      },
      "removeOperator(address)": {
        "notice": " ."
      },
      "service()": {
        "notice": "   ."
      },
      "setName(string)": {
        "notice": "  ."
      },
      "setRecipient(address)": {
        "notice": "   ."
      },
      "setUrl(string)": {
        "notice": " URL ."
      },
      "staking(uint256)": {
        "notice": "   DKA staking."
      },
      "supportsInterface(bytes4)": {
        "notice": " INTERFACE ID   ."
      },
      "transferOwnership(address)": {
        "notice": " ."
      },
      "unstaking()": {
        "notice": "DKA unstaking."
      },
      "updateOrderCode(address,uint256,uint256)": {
        "notice": "  ."
      },
      "url()": {
        "notice": " URL ."
      }
    },
    "notice": "  ",
    "version": 1
  }
}