{
  "contractName": "DkargoService",
  "abi": [
    {
      "inputs": [],
      "stateMutability": "nonpayable",
      "type": "constructor"
    },
    {
      "anonymous": false,
      "inputs": [
        {
          "indexed": true,
          "internalType": "address",
          "name": "company",
          "type": "address"
        }
      ],
      "name": "CompanyRegistered",
      "type": "event"
    },
    {
      "anonymous": false,
      "inputs": [
        {
          "indexed": true,
          "internalType": "address",
          "name": "company",
          "type": "address"
        }
      ],
      "name": "CompanyUnregistered",
      "type": "event"
    },
    {
      "anonymous": false,
      "inputs": [
        {
          "indexed": true,
          "internalType": "address",
          "name": "addr",
          "type": "address"
        },
        {
          "indexed": false,
          "internalType": "uint256",
          "name": "value",
          "type": "uint256"
        }
      ],
      "name": "IncentiveUpdated",
      "type": "event"
    },
    {
      "anonymous": false,
      "inputs": [
        {
          "indexed": true,
          "internalType": "address",
          "name": "order",
          "type": "address"
        },
        {
          "indexed": false,
          "internalType": "uint256",
          "name": "id",
          "type": "uint256"
        }
      ],
      "name": "OrderCreated",
      "type": "event"
    },
    {
      "anonymous": false,
      "inputs": [
        {
          "indexed": true,
          "internalType": "address",
          "name": "order",
          "type": "address"
        },
        {
          "indexed": true,
          "internalType": "address",
          "name": "from",
          "type": "address"
        },
        {
          "indexed": true,
          "internalType": "address",
          "name": "to",
          "type": "address"
        },
        {
          "indexed": false,
          "internalType": "uint256",
          "name": "transportid",
          "type": "uint256"
        }
      ],
      "name": "OrderTransferred",
      "type": "event"
    },
    {
      "anonymous": false,
      "inputs": [
        {
          "indexed": true,
          "internalType": "address",
          "name": "old",
          "type": "address"
        },
        {
          "indexed": true,
          "internalType": "address",
          "name": "expected",
          "type": "address"
        }
      ],
      "name": "OwnershipTransferred",
      "type": "event"
    },
    {
      "anonymous": false,
      "inputs": [
        {
          "indexed": true,
          "internalType": "address",
          "name": "addr",
          "type": "address"
        },
        {
          "indexed": false,
          "internalType": "uint256",
          "name": "value",
          "type": "uint256"
        },
        {
          "indexed": false,
          "internalType": "uint256",
          "name": "rests",
          "type": "uint256"
        }
      ],
      "name": "Settled",
      "type": "event"
    },
    {
      "inputs": [],
      "name": "getDkargoPrefix",
      "outputs": [
        {
          "internalType": "string",
          "name": "",
          "type": "string"
        }
      ],
      "stateMutability": "view",
      "type": "function"
    },
    {
      "inputs": [],
      "name": "isOwner",
      "outputs": [
        {
          "internalType": "bool",
          "name": "",
          "type": "bool"
        }
      ],
      "stateMutability": "view",
      "type": "function"
    },
    {
      "inputs": [],
      "name": "owner",
      "outputs": [
        {
          "internalType": "address",
          "name": "",
          "type": "address"
        }
      ],
      "stateMutability": "view",
      "type": "function"
    },
    {
      "inputs": [
        {
          "internalType": "bytes4",
          "name": "infcid",
          "type": "bytes4"
        }
      ],
      "name": "supportsInterface",
      "outputs": [
        {
          "internalType": "bool",
          "name": "",
          "type": "bool"
        }
      ],
      "stateMutability": "view",
      "type": "function"
    },
    {
      "inputs": [
        {
          "internalType": "address",
          "name": "expected",
          "type": "address"
        }
      ],
      "name": "transferOwnership",
      "outputs": [],
      "stateMutability": "nonpayable",
      "type": "function"
    },
    {
      "inputs": [
        {
          "internalType": "address",
          "name": "order",
          "type": "address"
        },
        {
          "internalType": "address",
          "name": "reporter",
          "type": "address"
        }
      ],
      "name": "approveOrderCreate",
      "outputs": [],
      "stateMutability": "nonpayable",
      "type": "function"
    },
    {
      "inputs": [
        {
          "internalType": "address",
          "name": "order",
          "type": "address"
        },
        {
          "internalType": "address",
          "name": "reporter",
          "type": "address"
        },
        {
          "internalType": "uint256",
          "name": "transportid",
          "type": "uint256"
        }
      ],
      "name": "approveOrderUpdate",
      "outputs": [],
      "stateMutability": "nonpayable",
      "type": "function"
    },
    {
      "inputs": [
        {
          "internalType": "address",
          "name": "company",
          "type": "address"
        }
      ],
      "name": "register",
      "outputs": [],
      "stateMutability": "nonpayable",
      "type": "function"
    },
    {
      "inputs": [
        {
          "internalType": "address",
          "name": "company",
          "type": "address"
        }
      ],
      "name": "unregister",
      "outputs": [],
      "stateMutability": "nonpayable",
      "type": "function"
    },
    {
      "inputs": [
        {
          "internalType": "address",
          "name": "addr",
          "type": "address"
        }
      ],
      "name": "settle",
      "outputs": [],
      "stateMutability": "nonpayable",
      "type": "function"
    },
    {
      "inputs": [
        {
          "internalType": "address",
          "name": "addr",
          "type": "address"
        }
      ],
      "name": "incentives",
      "outputs": [
        {
          "internalType": "uint256",
          "name": "",
          "type": "uint256"
        },
        {
          "internalType": "uint256",
          "name": "",
          "type": "uint256"
        }
      ],
      "stateMutability": "view",
      "type": "function"
    },
    {
      "inputs": [
        {
          "internalType": "address",
          "name": "company",
          "type": "address"
        }
      ],
      "name": "isMember",
      "outputs": [
        {
          "internalType": "bool",
          "name": "",
          "type": "bool"
        }
      ],
      "stateMutability": "view",
      "type": "function"
    },
    {
      "inputs": [],
      "name": "firstCompany",
      "outputs": [
        {
          "internalType": "address",
          "name": "",
          "type": "address"
        }
      ],
      "stateMutability": "view",
      "type": "function"
    },
    {
      "inputs": [],
      "name": "lastCompany",
      "outputs": [
        {
          "internalType": "address",
          "name": "",
          "type": "address"
        }
      ],
      "stateMutability": "view",
      "type": "function"
    },
    {
      "inputs": [],
      "name": "companyCount",
      "outputs": [
        {
          "internalType": "uint256",
          "name": "",
          "type": "uint256"
        }
      ],
      "stateMutability": "view",
      "type": "function"
    },
    {
      "inputs": [
        {
          "internalType": "address",
          "name": "company",
          "type": "address"
        }
      ],
      "name": "nextCompany",
      "outputs": [
        {
          "internalType": "address",
          "name": "",
          "type": "address"
        }
      ],
      "stateMutability": "view",
      "type": "function"
    },
    {
      "inputs": [
        {
          "internalType": "address",
          "name": "company",
          "type": "address"
        }
      ],
      "name": "prevCompany",
      "outputs": [
        {
          "internalType": "address",
          "name": "",
          "type": "address"
        }
      ],
      "stateMutability": "view",
      "type": "function"
    },
    {
      "inputs": [],
      "name": "firstRecipient",
      "outputs": [
        {
          "internalType": "address",
          "name": "",
          "type": "address"
        }
      ],
      "stateMutability": "view",
      "type": "function"
    },
    {
      "inputs": [],
      "name": "lastRecipient",
      "outputs": [
        {
          "internalType": "address",
          "name": "",
          "type": "address"
        }
      ],
      "stateMutability": "view",
      "type": "function"
    },
    {
      "inputs": [],
      "name": "recipientCount",
      "outputs": [
        {
          "internalType": "uint256",
          "name": "",
          "type": "uint256"
        }
      ],
      "stateMutability": "view",
      "type": "function"
    },
    {
      "inputs": [
        {
          "internalType": "address",
          "name": "recipient",
          "type": "address"
        }
      ],
      "name": "nextRecipient",
      "outputs": [
        {
          "internalType": "address",
          "name": "",
          "type": "address"
        }
      ],
      "stateMutability": "view",
      "type": "function"
    },
    {
      "inputs": [
        {
          "internalType": "address",
          "name": "recipient",
          "type": "address"
        }
      ],
      "name": "prevRecipient",
      "outputs": [
        {
          "internalType": "address",
          "name": "",
          "type": "address"
        }
      ],
      "stateMutability": "view",
      "type": "function"
    },
    {
      "inputs": [
        {
          "internalType": "uint256",
          "name": "id",
          "type": "uint256"
        }
      ],
      "name": "orders",
      "outputs": [
        {
          "internalType": "address",
          "name": "",
          "type": "address"
        }
      ],
      "stateMutability": "view",
      "type": "function"
    },
    {
      "inputs": [],
      "name": "orderCount",
      "outputs": [
        {
          "internalType": "uint256",
          "name": "",
          "type": "uint256"
        }
      ],
      "stateMutability": "view",
      "type": "function"
    }
  ],
  "bytecode": "0x60806040523480156200001157600080fd5b506000805460405133926001600160a01b03909216917f8be0079c531659141344cd1fd0a4f28419497f9722a3daafe3b4186f6b6457e091a3600080546001600160a01b03191633179055620000877f01ffc9a700000000000000000000000000000000000000000000000000000000620000f7565b60408051808201909152600781527f73657276696365000000000000000000000000000000000000000000000000006020820152620000c690620001c9565b620000f17f946edbed00000000000000000000000000000000000000000000000000000000620000f7565b6200027e565b7fffffffff0000000000000000000000000000000000000000000000000000000080821614156200018957604080517f08c379a000000000000000000000000000000000000000000000000000000000815260206004820152601c60248201527f4552433136353a20696e76616c696420696e7465726661636520696400000000604482015290519081900360640190fd5b7fffffffff00000000000000000000000000000000000000000000000000000000166000908152600160208190526040909120805460ff19169091179055565b8051620001de906002906020840190620001e2565b5050565b828054600181600116156101000203166002900490600052602060002090601f016020900481019282601f106200022557805160ff191683800117855562000255565b8280016001018555821562000255579182015b828111156200025557825182559160200191906001019062000238565b506200026392915062000267565b5090565b5b8082111562000263576000815560010162000268565b611952806200028e6000396000f3fe608060405234801561001057600080fd5b50600436106101585760003560e01c80638f32d59b116100c3578063c6664ec31161007c578063c6664ec3146103eb578063d23ee66b146103f3578063e003f2cf146103fb578063e41a6c3814610421578063e58b4ac214610447578063f2fde38b1461047d57610158565b80638f32d59b146102ed578063946edbed146102f5578063a230c52414610372578063a85c38ef14610398578063b67f0ae4146103b5578063ba79251f146103bd57610158565b80634420e486116101155780634420e4861461022c5780634affa380146102525780636a256b2914610278578063774e900b1461029e5780638da5cb5b146102dd5780638e75dd47146102e557610158565b806301ffc9a71461015d578063159f5dca1461019857806322eabb8e146101da5780632453ffa8146101f45780632852d020146101fc5780632ec2c24614610204575b600080fd5b6101846004803603602081101561017357600080fd5b50356001600160e01b0319166104a3565b604080519115158252519081900360200190f35b6101be600480360360208110156101ae57600080fd5b50356001600160a01b03166104c2565b604080516001600160a01b039092168252519081900360200190f35b6101e26104d5565b60408051918252519081900360200190f35b6101e26104e6565b6101be6104ec565b61022a6004803603602081101561021a57600080fd5b50356001600160a01b03166104f8565b005b61022a6004803603602081101561024257600080fd5b50356001600160a01b0316610582565b6101be6004803603602081101561026857600080fd5b50356001600160a01b031661060c565b61022a6004803603602081101561028e57600080fd5b50356001600160a01b0316610619565b6102c4600480360360208110156102b457600080fd5b50356001600160a01b031661072b565b6040805192835260208301919091528051918290030190f35b6101be61074e565b6101e261075d565b610184610769565b6102fd61077a565b6040805160208082528351818301528351919283929083019185019080838360005b8381101561033757818101518382015260200161031f565b50505050905090810190601f1680156103645780820380516001836020036101000a031916815260200191505b509250505060405180910390f35b6101846004803603602081101561038857600080fd5b50356001600160a01b031661080d565b6101be600480360360208110156103ae57600080fd5b503561081a565b6101be610835565b61022a600480360360408110156103d357600080fd5b506001600160a01b0381358116916020013516610841565b6101be610afe565b6101be610b0a565b6101be6004803603602081101561041157600080fd5b50356001600160a01b0316610b16565b6101be6004803603602081101561043757600080fd5b50356001600160a01b0316610b23565b61022a6004803603606081101561045d57600080fd5b506001600160a01b03813581169160208101359091169060400135610b30565b61022a6004803603602081101561049357600080fd5b50356001600160a01b0316610d57565b6001600160e01b03191660009081526001602052604090205460ff1690565b60006104cf600583610e3f565b92915050565b60006104e1600a610e62565b905090565b60035490565b60006104e16005610e66565b610500610769565b15156001146105405760405162461bcd60e51b81526004018080602001828103825260228152602001806117eb6022913960400191505060405180910390fd5b61054b600582610e76565b6040516001600160a01b038216907ff92b40e455f05fc4da68c745bf6dc3b5b43536e6c221b307dcc34d9e8d963d4490600090a250565b61058a610769565b15156001146105ca5760405162461bcd60e51b81526004018080602001828103825260228152602001806117eb6022913960400191505060405180910390fd5b6105d5600582611044565b6040516001600160a01b038216907f62806c829f7c8d0f1563dbdcf4f05f12a6b3c0e29ab581b0ccdffd608e99393890600090a250565b60006104cf600a83610e3f565b610621610769565b15156001146106615760405162461bcd60e51b81526004018080602001828103825260228152602001806117eb6022913960400191505060405180910390fd5b6001600160a01b03811660009081526009602052604090206001810154905461068a9082611171565b6001600160a01b03831660009081526009602052604090208181556001018190551580156106c457506106be600a8361119d565b15156001145b156106d4576106d4600a83610e76565b6001600160a01b0382166000818152600960209081526040918290205482518581529182015281517f468aeeec0e901c52363552a06c1e39331d44c3cc886eb200af127ded3f380f82929181900390910190a25050565b6001600160a01b0316600090815260096020526040902080546001909101549091565b6000546001600160a01b031690565b60006104e16005610e62565b6000546001600160a01b0316331490565b60028054604080516020601f60001961010060018716150201909416859004938401819004810282018101909252828152606093909290918301828280156108035780601f106107d857610100808354040283529160200191610803565b820191906000526020600020905b8154815290600101906020018083116107e657829003601f168201915b5050505050905090565b60006104cf60058361119d565b6000908152600460205260409020546001600160a01b031690565b60006104e16005611244565b600061084c83611254565b90506001811161088d5760405162461bcd60e51b815260040180806020018281038252602c815260200180611886602c913960400191505060405180910390fd5b336001600160a01b038416146108d45760405162461bcd60e51b815260040180806020018281038252602d8152602001806117be602d913960400191505060405180910390fd5b60015b8181101561093d5760006108eb85836112b6565b5090506108f960058261119d565b6109345760405162461bcd60e51b815260040180806020018281038252603181526020018061172d6031913960400191505060405180910390fd5b506001016108d7565b5060035461094c906001611339565b600381815560009182526004602052604090912080546001600160a01b0319166001600160a01b03861617905554610985908490611393565b60035460408051918252516001600160a01b038516917fcb0c37c16aa3b0bbb7a817932094d8a20a00996d426a813f067039f0ef87ab07919081900360200190a260006109d1846113e4565b9050806001600160a01b0316836001600160a01b0316856001600160a01b03167ff0f7f88a2991a6158382b346b3ddf4e0ad1e5330d9e34fb81081137afd97adf360016040518082815260200191505060405180910390a4600080610a378660006112b6565b90925090508015610af6576001600160a01b038216600090815260096020526040902054610a659082611339565b6001600160a01b038316600081815260096020908152604091829020939093558051848152905191927f72d368a22163d085e9875cde36e52b33d11186bc95df5b28e6fa87a87c4b315e92918290030190a2610ac2600a8361119d565b158015610ae657506001600160a01b03821660009081526009602052604090205415155b15610af657610af6600a83611044565b505050505050565b60006104e1600a610e66565b60006104e1600a611244565b60006104cf60058361144a565b60006104cf600a8361144a565b336001600160a01b03841614610b775760405162461bcd60e51b815260040180806020018281038252602d8152602001806117be602d913960400191505060405180910390fd5b6000610b8284611254565b905060018111610bc35760405162461bcd60e51b815260040180806020018281038252602c815260200180611886602c913960400191505060405180910390fd5b6000610bce856113e4565b9050610bd985611470565b610d5057806001600160a01b0316846001600160a01b0316866001600160a01b03167ff0f7f88a2991a6158382b346b3ddf4e0ad1e5330d9e34fb81081137afd97adf3866040518082815260200191505060405180910390a46000610c3f846001611171565b905060008111610c805760405162461bcd60e51b81526004018080602001828103825260378152602001806117876037913960400191505060405180910390fd5b600080610c8d88846112b6565b90925090508015610d4c576001600160a01b038216600090815260096020526040902054610cbb9082611339565b6001600160a01b038316600081815260096020908152604091829020939093558051848152905191927f72d368a22163d085e9875cde36e52b33d11186bc95df5b28e6fa87a87c4b315e92918290030190a2610d18600a8361119d565b158015610d3c57506001600160a01b03821660009081526009602052604090205415155b15610d4c57610d4c600a83611044565b5050505b5050505050565b610d5f610769565b1515600114610d9f5760405162461bcd60e51b81526004018080602001828103825260228152602001806117eb6022913960400191505060405180910390fd5b6001600160a01b038116610de45760405162461bcd60e51b81526004018080602001828103825260278152602001806118b26027913960400191505060405180910390fd5b600080546040516001600160a01b03808516939216917f8be0079c531659141344cd1fd0a4f28419497f9722a3daafe3b4186f6b6457e091a3600080546001600160a01b0319166001600160a01b0392909216919091179055565b6001600160a01b0380821660009081526003840160205260409020541692915050565b5490565b600101546001600160a01b031690565b6001600160a01b038116610ebb5760405162461bcd60e51b815260040180806020018281038252602981526020018061185d6029913960400191505060405180910390fd5b610ec5828261119d565b610f005760405162461bcd60e51b81526004018080602001828103825260298152602001806118346029913960400191505060405180910390fd5b6001600160a01b0380821660008181526003850160205260409020805460019182015491860154908416939182169291161415610f55576001840180546001600160a01b0319166001600160a01b0383161790555b60028401546001600160a01b0384811691161415610f8b576002840180546001600160a01b0319166001600160a01b0384161790555b6001600160a01b03821615610fdd576001600160a01b03808316600090815260038601602052604080822060010180548486166001600160a01b03199182161790915592861682529020805490911690555b6001600160a01b0381161561102f576001600160a01b03808216600090815260038601602052604080822080548487166001600160a01b03199182161790915592861682529020600101805490911690555b835461103c906001611171565b909355505050565b6001600160a01b0381166110895760405162461bcd60e51b815260040180806020018281038252602981526020018061185d6029913960400191505060405180910390fd5b611093828261119d565b156110cf5760405162461bcd60e51b815260040180806020018281038252602781526020018061180d6027913960400191505060405180910390fd5b8154611109576002820180546001600160a01b0383166001600160a01b03199182168117909255600184018054909116909117905561115e565b6002820180546001600160a01b03838116600081815260038701602052604080822080549585166001600160a01b03199687161790558554909316815291909120600101805483168217905582549091161790555b815461116b906001611339565b90915550565b600061119683836040518060600160405280602181526020016118d9602191396114b3565b9392505050565b815460009060011480156111c0575060018301546001600160a01b038381169116145b80156111db575060028301546001600160a01b038381169116145b156111e8575060016104cf565b6001600160a01b0382811660009081526003850160205260409020541615801561122f57506001600160a01b03828116600090815260038501602052604090206001015416155b61123a57600161123d565b60005b90506104cf565b600201546001600160a01b031690565b6040805160048152602481019091526020810180516001600160e01b031662a34d7760e31b179052600090606090611296906001600160a01b0385169061154a565b90508080602001905160208110156112ad57600080fd5b50519392505050565b6040805160248082018490528251808303909101815260449091019091526020810180516001600160e01b03166399c4acef60e01b179052600090819060609061130a906001600160a01b0387169061154a565b905080806020019051608081101561132157600080fd5b50602081015160609091015190969095509350505050565b600082820183811015611196576040805162461bcd60e51b815260206004820152601e60248201527f536166654d6174683235363a206164646974696f6e206f766572666c6f770000604482015290519081900360640190fd5b6040805160248082018490528251808303909101815260449091019091526020810180516001600160e01b0316630c6cc80b60e21b1790526113de6001600160a01b0384168261163e565b50505050565b6040805160048152602481019091526020810180516001600160e01b031663c265aaa160e01b179052600090606090611427906001600160a01b0385169061154a565b905080806020019051608081101561143e57600080fd5b50602001519392505050565b6001600160a01b0380821660009081526003840160205260409020600101541692915050565b6040805160048152602481019091526020810180516001600160e01b03166303d058cd60e61b179052600090606090611296906001600160a01b0385169061154a565b600081848411156115425760405162461bcd60e51b81526004018080602001828103825283818151815260200191508051906020019080838360005b838110156115075781810151838201526020016114ef565b50505050905090810190601f1680156115345780820380516001836020036101000a031916815260200191505b509250505060405180910390fd5b505050900390565b606060006060846001600160a01b0316846040518082805190602001908083835b6020831061158a5780518252601f19909201916020918201910161156b565b6001836020036101000a038019825116818451168082178552505050505050905001915050600060405180830381855afa9150503d80600081146115ea576040519150601f19603f3d011682016040523d82523d6000602084013e6115ef565b606091505b5090925090506001821515146116365760405162461bcd60e51b815260040180806020018281038252602981526020018061175e6029913960400191505060405180910390fd5b949350505050565b606060006060846001600160a01b0316846040518082805190602001908083835b6020831061167e5780518252601f19909201916020918201910161165f565b6001836020036101000a0380198251168184511680821785525050505050509050019150506000604051808303816000865af19150503d80600081146116e0576040519150601f19603f3d011682016040523d82523d6000602084013e6116e5565b606091505b5090925090506001821515146116365760405162461bcd60e51b81526004018080602001828103825260238152602001806118fa6023913960400191505060405180910390fdfe446b6172676f536572766963653a20746865206f726465722068617320756e7265676973746572656420636f6d70616e79416464726573733a2066756e6374696f6e2873746174696363616c6c292063616c6c206661696c6564446b6172676f536572766963653a20496e76616c6964207472616e73706f727469642028617070726f76654f7264657255706461746529446b6172676f536572766963653a206f6e6c7920746865206f7264657220697473656c662063616e2063616c6c4f776e6572736869703a206f6e6c7920746865206f776e65722063616e2063616c6c436861696e416464726573733a20746865206e6f646520697320616c65616479206c696e6b6564436861696e416464726573733a20746865206e6f646520697320616c6561647920756e6c696e6b6564436861696e416464726573733a20746865206e6f64652063616e6e6f7420626520746865207a65726f446b6172676f536572766963653a20746865206f726465722068617320746f6f20666577206d656d626572734f776e6572736869703a206e6577206f776e65722063616e6e6f7420626520746865207a65726f536166654d6174683235363a207375627472616374696f6e206f766572666c6f77416464726573733a2066756e6374696f6e2863616c6c292063616c6c206661696c6564a26469706673582212206d44f9a0e9c9b12a8bb86ef56b3dde390454ae7c2edaf74784e71959540f383f64736f6c63430007000033",
  "immutableReferences": {},
  "source": "// SPDX-License-Identifier: MIT\npragma solidity >=0.6.0;\n\nimport \"./DkargoPrefix.sol\";\nimport \"./authority/Ownership.sol\";\nimport \"./introspection/ERC165/ERC165.sol\";\nimport \"./libs/Address.sol\";\nimport \"./libs/chain/ChainAddress.sol\";\nimport \"./libs/chain/Typedef.sol\";\nimport \"./libs/math/SafeMath256.sol\";\n\n/// @title DkargoService\n/// @notice   \n/// @author jhhong\ncontract DkargoService is Ownership, ERC165, DkargoPrefix {\n    using Address for address;\n    using ChainAddress for Typedef.AddressList;\n    using SafeMath256 for uint256;\n\n    /// @dev  \n    struct Incentive { //  \n        uint256 totals; //      \n        uint256 settlements; //       \n    }\n\n    /// @dev  ()\n    uint256 private _ordercnt; //    \n    mapping(uint256 => address) private _orders; // \"\" <-> \"  \" \n\n    /// @dev  ()\n    Typedef.AddressList private _companychain; //  \n\n    /// @dev  ()\n    mapping(address => Incentive) private _incentives; // \"\" <-> \" \"  (:   (+))\n    Typedef.AddressList private _recipientchain; //    \n\n    /// @notice   \n    /// @param company   \n    event CompanyRegistered(address indexed company);\n\n    /// @notice   \n    /// @param company   \n    event CompanyUnregistered(address indexed company);\n\n    /// @notice   ,       .\n    /// @param order   \n    /// @param id \n    event OrderCreated(address indexed order, uint256 id);\n\n    /// @notice   \n    /// @dev    launch    \n    /// @param order   \n    /// @param from     \n    /// @param to    \n    /// @param transportid  ()\n    event OrderTransferred(address indexed order, address indexed from, address indexed to, uint256 transportid);\n\n    /// @notice   \n    /// @param addr   \n    /// @param value  \n    event IncentiveUpdated(address indexed addr, uint256 value);\n\n    /// @notice   \n    /// @param addr   \n    /// @param value \n    /// @param rests  \n    event Settled(address indexed addr, uint256 value, uint256 rests);\n\n    /// @notice  .\n    constructor() {\n        _setDkargoPrefix(\"service\"); //  \n        _registerInterface(0x946edbed); // INTERFACE ID  (getDkargoPrefix)\n    }\n\n    /// @notice   .\n    /// @dev              .\n    /// @dev :   (DkargoOrder)\n    /// @param order   \n    /// @param reporter  ()\n    function approveOrderCreate(address order, address reporter) public {\n        uint256 trackingcnt = _getTrackingCount(order);\n        require(trackingcnt > 1, \"DkargoService: the order has too few members\"); //    2!!(+1)\n        require(msg.sender == order, \"DkargoService: only the order itself can call\");\n        for(uint256 idx = 1; idx < trackingcnt; idx++) { //     validation \n            (address company,) = _getTracking(order, idx);\n            if (_companychain.isLinked(company) == false) { //    \n                revert(\"DkargoService: the order has unregistered company\");\n            }\n        }\n        _ordercnt = _ordercnt.add(1); //    ,     \"\" \n        _orders[_ordercnt] = order; // \"\"      \n        _setOrderId(order, _ordercnt); //    \n        emit OrderCreated(order, _ordercnt); //  : \n        address nextMember = _getCurrentTracking(order); //      \n        emit OrderTransferred(order, reporter, nextMember, 1); //  :  \n        ////   \n        (address shipper, uint256 incentive) = _getTracking(order, 0); //     \n        if(incentive > 0) {\n            _incentives[shipper].totals = (_incentives[shipper].totals).add(incentive); //   \n            emit IncentiveUpdated(shipper, incentive); //  :   ()\n            if (_recipientchain.isLinked(shipper) == false && _incentives[shipper].totals > 0) {\n                _recipientchain.linkChain(shipper); //    \n            }\n        }\n    }\n\n    /// @notice   .\n    /// @dev    ,    :  ,   \n    /// :  (DkargoOrder):  .updateOrderCode ->  .submitOrderUpdate -> approveOrderUpdate\n    /// :      \n    /// @param order   \n    /// @param reporter  ()\n    /// @param transportid  ()\n    function approveOrderUpdate(address order, address reporter, uint256 transportid) public {\n        require(msg.sender == order, \"DkargoService: only the order itself can call\");\n        uint256 trackingcnt = _getTrackingCount(order);\n        require(trackingcnt > 1, \"DkargoService: the order has too few members\"); //    2!!(+1)\n        address nextMember = _getCurrentTracking(order); //      \n        if(_isOrderFailed(order) == false) { //        _isOrderFailed(order) == true     \n            emit OrderTransferred(order, reporter, nextMember, transportid); //  :  \n            uint256 recipientid = transportid.sub(1);\n            require(recipientid > 0, \"DkargoService: Invalid transportid (approveOrderUpdate)\");\n            ////   \n            (address company, uint256 incentivee) = _getTracking(order, recipientid); //     \n            if(incentivee > 0) {\n                _incentives[company].totals = (_incentives[company].totals).add(incentivee); //   \n                emit IncentiveUpdated(company, incentivee); //  :   ()\n                if (_recipientchain.isLinked(company) == false && _incentives[company].totals > 0) {\n                    _recipientchain.linkChain(company); //    \n                }\n            }\n        }\n        //// Fail  :   Fix Coding \n    }\n\n    /// @notice     .\n    /// @dev     /  ,  onlyOwner...\n    ///  DkargoCompany  staking          (DkargoOrder   approve ..)\n    /// @param company   \n    function register(address company) onlyOwner public {\n        //// Staking  : AUGUR   /  \n        _companychain.linkChain(company); //  \n        emit CompanyRegistered(company); //  :  \n    }\n\n    /// @notice     .\n    /// @dev     /  ,  onlyOwner...\n    ///  DkargoCompany  staking          (DkargoOrder   approve ..)\n    /// @param company   \n    function unregister(address company) onlyOwner public {\n        //// Staking  : AUGUR   /  \n        _companychain.unlinkChain(company); //  \n        emit CompanyUnregistered(company); //  :  \n    }\n\n    /// @notice ()    .\n    /// @dev onlyOwner,  settle   settlements  totals = totals-settlements \n    /// @param addr    (,  )\n    function settle(address addr) onlyOwner public {\n        uint256 value = _incentives[addr].settlements;\n        _incentives[addr].totals = _incentives[addr].totals.sub(_incentives[addr].settlements); // totals \n        _incentives[addr].settlements = _incentives[addr].totals; // settlements \n        if(_incentives[addr].totals == 0 && _recipientchain.isLinked(addr) == true) {\n            _recipientchain.unlinkChain(addr); //    \n        }\n        emit Settled(addr, value, _incentives[addr].totals);\n    }\n\n    /// @notice     . (totals, settlements)\n    /// @dev totals:   , settlements:  settle   \n    /// @param addr   \n    /// @return totals:   , settlements:  settle    (uint256,uint256)\n    function incentives(address addr) public view returns(uint256, uint256) {\n        return (_incentives[addr].totals, _incentives[addr].settlements);\n    }\n\n    /// @notice      .\n    /// @param company   \n    /// @return     (bool)\n    function isMember(address company) public view returns(bool) {\n        return _companychain.isLinked(company);\n    }\n\n    /// @notice      .\n    /// @return      (address)\n    function firstCompany() public view returns(address) {\n        return _companychain.first();\n    }\n\n    /// @notice      .\n    /// @return      (address)\n    function lastCompany() public view returns(address) {\n        return _companychain.last();\n    }\n\n    /// @notice       .\n    /// @return    (uint256)\n    function companyCount() public view returns(uint256) {\n        return _companychain.size();\n    }\n\n    /// @notice    company      .\n    /// @param company   \n    /// @return company      (address)\n    function nextCompany(address company) public view returns(address) {\n        return _companychain.nextOf(company);\n    }\n\n    /// @notice    company      .\n    /// @param company   \n    /// @return company      (address)\n    function prevCompany(address company) public view returns(address) {\n        return _companychain.prevOf(company);\n    }\n\n    /// @notice     .\n    /// @return     (address)\n    function firstRecipient() public view returns(address) {\n        return _recipientchain.first();\n    }\n\n    /// @notice     .\n    /// @return     (address)\n    function lastRecipient() public view returns(address) {\n        return _recipientchain.last();\n    }\n\n    /// @notice    .\n    /// @return    (uint256)\n    function recipientCount() public view returns(uint256) {\n        return _recipientchain.size();\n    }\n\n    /// @notice recipient      .\n    /// @param recipient   \n    /// @return recipient      (address)\n    function nextRecipient(address recipient) public view returns(address) {\n        return _recipientchain.nextOf(recipient);\n    }\n\n    /// @notice recipient      .\n    /// @param recipient   \n    /// @return recipient      (address)\n    function prevRecipient(address recipient) public view returns(address) {\n        return _recipientchain.prevOf(recipient);\n    }\n\n    /// @notice      .\n    /// @return      (address)\n    function orders(uint256 id) public view returns(address) {\n        return _orders[id];\n    }\n\n    /// @notice       .\n    /// @return    (uint256)\n    function orderCount() public view returns(uint256) {\n        return _ordercnt;\n    }\n\n    /// @notice      .\n    /// @dev      addr \n    /// @param order   \n    /// @return addr    \n    function _getCurrentTracking(address order) private view returns(address addr) {\n        bytes memory data = address(order)._vcall(abi.encodeWithSignature(\"currentTracking()\"));\n        (,addr,,) = abi.decode(data, (uint64, address, uint256, uint256));\n    }\n\n    /// @notice      .\n    /// @return   (address)\n    function _getRecipient(address company) private view returns(address) {\n        bytes memory data = address(company)._vcall(abi.encodeWithSignature(\"recipient()\"));\n        return abi.decode(data, (address));\n    }\n\n    /// @notice      index    .\n    /// @dev      addr, incentive \n    /// @param order   \n    /// @param index  \n    /// @return addr   (address)\n    /// @return incentive (uint256)\n    function _getTracking(address order, uint256 index) private view returns(address addr, uint256 incentive) {\n        bytes memory data = address(order)._vcall(abi.encodeWithSignature(\"tracking(uint256)\", index));\n        (,addr,, incentive) = abi.decode(data, (uint64, address, uint256, uint256));\n    }\n\n    /// @notice       .\n    /// @param order   \n    /// @return   \n    function _getTrackingCount(address order) private view returns(uint256) {\n        bytes memory data = address(order)._vcall(abi.encodeWithSignature(\"trackingCount()\"));\n        return abi.decode(data, (uint256));\n    }\n\n    /// @notice      \n    /// @param order   \n    /// @return    \n    function _isOrderComplete(address order) private view returns(bool) {\n        bytes memory data = address(order)._vcall(abi.encodeWithSignature(\"isComplete()\"));\n        return abi.decode(data, (bool));\n    }\n\n    /// @notice     \n    /// @param order   \n    /// @return    \n    function _isOrderFailed(address order) private view returns(bool) {\n        bytes memory data = address(order)._vcall(abi.encodeWithSignature(\"isFailed()\"));\n        return abi.decode(data, (bool));\n    }\n\n    /// @notice    .\n    /// @dev   setOrderId     Revert.\n    /// @param order   \n    /// @param id  \n    function _setOrderId(address order, uint256 id) private {\n        bytes memory cmd = abi.encodeWithSignature(\"setOrderId(uint256)\", id);\n        address(order)._call(cmd); //    \n    }\n}",
  "sourcePath": "/home/jhhong/work/renewal/dkargo-scm/contracts/DkargoService.sol",
  "compiler": {
    "name": "solc",
    "version": "0.7.0+commit.9e61f92b.Emscripten.clang"
  },
  "schemaVersion": "3.2.3",
  "updatedAt": "2020-11-19T06:14:43.032Z",
  "devdoc": {
    "author": "jhhong",
    "events": {
      "CompanyRegistered(address)": {
        "params": {
          "company": "  "
        }
      },
      "CompanyUnregistered(address)": {
        "params": {
          "company": "  "
        }
      },
      "IncentiveUpdated(address,uint256)": {
        "params": {
          "addr": "  ",
          "value": " "
        }
      },
      "OrderCreated(address,uint256)": {
        "params": {
          "id": "",
          "order": "  "
        }
      },
      "OrderTransferred(address,address,address,uint256)": {
        "details": "   launch    ",
        "params": {
          "from": "    ",
          "order": "  ",
          "to": "   ",
          "transportid": " ()"
        }
      },
      "Settled(address,uint256,uint256)": {
        "params": {
          "addr": "  ",
          "rests": " ",
          "value": ""
        }
      }
    },
    "kind": "dev",
    "methods": {
      "approveOrderCreate(address,address)": {
        "details": "             .:   (DkargoOrder)",
        "params": {
          "order": "  ",
          "reporter": " ()"
        }
      },
      "approveOrderUpdate(address,address,uint256)": {
        "details": "   ,    :  ,    :  (DkargoOrder):  .updateOrderCode ->  .submitOrderUpdate -> approveOrderUpdate :      ",
        "params": {
          "order": "  ",
          "reporter": " ()",
          "transportid": " ()"
        }
      },
      "companyCount()": {
        "returns": {
          "_0": "   (uint256)"
        }
      },
      "firstCompany()": {
        "returns": {
          "_0": "     (address)"
        }
      },
      "firstRecipient()": {
        "returns": {
          "_0": "    (address)"
        }
      },
      "getDkargoPrefix()": {
        "returns": {
          "_0": "  (string)"
        }
      },
      "incentives(address)": {
        "details": "totals:   , settlements:  settle   ",
        "params": {
          "addr": "  "
        },
        "returns": {
          "_0": "totals:   , settlements:  settle    (uint256,uint256)"
        }
      },
      "isMember(address)": {
        "params": {
          "company": "  "
        },
        "returns": {
          "_0": "    (bool)"
        }
      },
      "isOwner()": {
        "returns": {
          "_0": "  (boolean)"
        }
      },
      "lastCompany()": {
        "returns": {
          "_0": "     (address)"
        }
      },
      "lastRecipient()": {
        "returns": {
          "_0": "    (address)"
        }
      },
      "nextCompany(address)": {
        "params": {
          "company": "  "
        },
        "returns": {
          "_0": "company      (address)"
        }
      },
      "nextRecipient(address)": {
        "params": {
          "recipient": "  "
        },
        "returns": {
          "_0": "recipient      (address)"
        }
      },
      "orderCount()": {
        "returns": {
          "_0": "   (uint256)"
        }
      },
      "orders(uint256)": {
        "returns": {
          "_0": "     (address)"
        }
      },
      "owner()": {
        "returns": {
          "_0": " "
        }
      },
      "prevCompany(address)": {
        "params": {
          "company": "  "
        },
        "returns": {
          "_0": "company      (address)"
        }
      },
      "prevRecipient(address)": {
        "params": {
          "recipient": "  "
        },
        "returns": {
          "_0": "recipient      (address)"
        }
      },
      "recipientCount()": {
        "returns": {
          "_0": "   (uint256)"
        }
      },
      "register(address)": {
        "details": "    /  ,  onlyOwner...  DkargoCompany  staking          (DkargoOrder   approve ..)",
        "params": {
          "company": "  "
        }
      },
      "settle(address)": {
        "details": "onlyOwner,  settle   settlements  totals = totals-settlements ",
        "params": {
          "addr": "   (,  )"
        }
      },
      "supportsInterface(bytes4)": {
        "params": {
          "infcid": "  INTERFACE ID (Function Selector)"
        },
        "returns": {
          "_0": " (boolean)"
        }
      },
      "transferOwnership(address)": {
        "params": {
          "expected": "  "
        }
      },
      "unregister(address)": {
        "details": "    /  ,  onlyOwner...  DkargoCompany  staking          (DkargoOrder   approve ..)",
        "params": {
          "company": "  "
        }
      }
    },
    "stateVariables": {
      "_companychain": {
        "details": " ()"
      },
      "_incentives": {
        "details": " ()"
      },
      "_ordercnt": {
        "details": " ()"
      }
    },
    "title": "DkargoService",
    "version": 1
  },
  "userdoc": {
    "events": {
      "CompanyRegistered(address)": {
        "notice": "  "
      },
      "CompanyUnregistered(address)": {
        "notice": "  "
      },
      "IncentiveUpdated(address,uint256)": {
        "notice": "  "
      },
      "OrderCreated(address,uint256)": {
        "notice": "  ,       ."
      },
      "OrderTransferred(address,address,address,uint256)": {
        "notice": "  "
      },
      "OwnershipTransferred(address,address)": {
        "notice": "  "
      },
      "Settled(address,uint256,uint256)": {
        "notice": "  "
      }
    },
    "kind": "user",
    "methods": {
      "approveOrderCreate(address,address)": {
        "notice": "  ."
      },
      "approveOrderUpdate(address,address,uint256)": {
        "notice": "  ."
      },
      "companyCount()": {
        "notice": "      ."
      },
      "constructor": {
        "notice": " ."
      },
      "firstCompany()": {
        "notice": "     ."
      },
      "firstRecipient()": {
        "notice": "    ."
      },
      "getDkargoPrefix()": {
        "notice": "  ."
      },
      "incentives(address)": {
        "notice": "    . (totals, settlements)"
      },
      "isMember(address)": {
        "notice": "     ."
      },
      "isOwner()": {
        "notice": " ."
      },
      "lastCompany()": {
        "notice": "     ."
      },
      "lastRecipient()": {
        "notice": "    ."
      },
      "nextCompany(address)": {
        "notice": "   company      ."
      },
      "nextRecipient(address)": {
        "notice": "recipient      ."
      },
      "orderCount()": {
        "notice": "      ."
      },
      "orders(uint256)": {
        "notice": "     ."
      },
      "owner()": {
        "notice": "  ."
      },
      "prevCompany(address)": {
        "notice": "   company      ."
      },
      "prevRecipient(address)": {
        "notice": "recipient      ."
      },
      "recipientCount()": {
        "notice": "   ."
      },
      "register(address)": {
        "notice": "    ."
      },
      "settle(address)": {
        "notice": "()    ."
      },
      "supportsInterface(bytes4)": {
        "notice": " INTERFACE ID   ."
      },
      "transferOwnership(address)": {
        "notice": " ."
      },
      "unregister(address)": {
        "notice": "    ."
      }
    },
    "notice": "  ",
    "version": 1
  }
}