{
  "contractName": "ERC165",
  "abi": [
    {
      "inputs": [],
      "stateMutability": "nonpayable",
      "type": "constructor"
    },
    {
      "inputs": [
        {
          "internalType": "bytes4",
          "name": "infcid",
          "type": "bytes4"
        }
      ],
      "name": "supportsInterface",
      "outputs": [
        {
          "internalType": "bool",
          "name": "",
          "type": "bool"
        }
      ],
      "stateMutability": "view",
      "type": "function"
    }
  ],
  "bytecode": "0x608060405234801561001057600080fd5b5061003a7f01ffc9a70000000000000000000000000000000000000000000000000000000061003f565b61010d565b7fffffffff0000000000000000000000000000000000000000000000000000000080821614156100d057604080517f08c379a000000000000000000000000000000000000000000000000000000000815260206004820152601c60248201527f4552433136353a20696e76616c696420696e7465726661636520696400000000604482015290519081900360640190fd5b7fffffffff00000000000000000000000000000000000000000000000000000000166000908152602081905260409020805460ff19166001179055565b60ba8061011b6000396000f3fe6080604052348015600f57600080fd5b506004361060285760003560e01c806301ffc9a714602d575b600080fd5b605160048036036020811015604157600080fd5b50356001600160e01b0319166065565b604080519115158252519081900360200190f35b6001600160e01b03191660009081526020819052604090205460ff169056fea2646970667358221220cd0af0b94e57811298f2143113f35739030a2ee4a5af869a7f97e363003f7acd64736f6c63430007000033",
  "immutableReferences": {},
  "source": "// SPDX-License-Identifier: MIT\npragma solidity >=0.6.0;\n\nimport \"./IERC165.sol\";\n\n/// @title ERC165\n/// @dev EIP165 interface 구현\n/// @author jhhong\ncontract ERC165 is IERC165 {\n\n    mapping(bytes4 => bool) private _infcs; // INTERFACE ID별 지원여부를 저장하기 위한 매핑 변수\n\n    /// @notice 컨트랙트 생성자이다.\n    /// @dev bytes4(keccak256('supportsInterface(bytes4)')) == 0x01ffc9a7\n    constructor() {\n        _registerInterface(0x01ffc9a7); // supportsInterface()의 INTERFACE ID 등록\n    }\n\n    /// @notice 컨트랙트가 INTERFACE ID를 지원하는지의 여부를 반환한다.\n    /// @param infcid 지원여부를 확인할 INTERFACE ID (Function Selector)\n    /// @return 지원여부 (boolean)\n    function supportsInterface(bytes4 infcid) external override view returns (bool) {\n        return _infcs[infcid];\n    }\n\n    /// @notice INTERFACE ID를 등록한다.\n    /// @param infcid 등록할 INTERFACE ID (Function Selector)\n    function _registerInterface(bytes4 infcid) internal {\n        require(infcid != 0xffffffff, \"ERC165: invalid interface id\");\n        _infcs[infcid] = true;\n    }\n}",
  "sourcePath": "/home/jhhong/work/renewal/dkargo-scm/contracts/introspection/ERC165/ERC165.sol",
  "compiler": {
    "name": "solc",
    "version": "0.7.0+commit.9e61f92b.Emscripten.clang"
  },
  "schemaVersion": "3.2.3",
  "updatedAt": "2020-10-15T10:01:28.637Z",
  "devdoc": {
    "author": "jhhong",
    "details": "EIP165 interface 구현",
    "kind": "dev",
    "methods": {
      "constructor": {
        "details": "bytes4(keccak256('supportsInterface(bytes4)')) == 0x01ffc9a7"
      },
      "supportsInterface(bytes4)": {
        "params": {
          "infcid": "지원여부를 확인할 INTERFACE ID (Function Selector)"
        },
        "returns": {
          "_0": "지원여부 (boolean)"
        }
      }
    },
    "title": "ERC165",
    "version": 1
  },
  "userdoc": {
    "kind": "user",
    "methods": {
      "constructor": {
        "notice": "컨트랙트 생성자이다."
      },
      "supportsInterface(bytes4)": {
        "notice": "컨트랙트가 INTERFACE ID를 지원하는지의 여부를 반환한다."
      }
    },
    "version": 1
  }
}