{
  "contractName": "Operatorship",
  "abi": [
    {
      "inputs": [],
      "stateMutability": "nonpayable",
      "type": "constructor"
    },
    {
      "anonymous": false,
      "inputs": [
        {
          "indexed": true,
          "internalType": "address",
          "name": "account",
          "type": "address"
        }
      ],
      "name": "OperatorAdded",
      "type": "event"
    },
    {
      "anonymous": false,
      "inputs": [
        {
          "indexed": true,
          "internalType": "address",
          "name": "account",
          "type": "address"
        }
      ],
      "name": "OperatorRemoved",
      "type": "event"
    },
    {
      "anonymous": false,
      "inputs": [
        {
          "indexed": true,
          "internalType": "address",
          "name": "old",
          "type": "address"
        },
        {
          "indexed": true,
          "internalType": "address",
          "name": "expected",
          "type": "address"
        }
      ],
      "name": "OwnershipTransferred",
      "type": "event"
    },
    {
      "inputs": [],
      "name": "isOwner",
      "outputs": [
        {
          "internalType": "bool",
          "name": "",
          "type": "bool"
        }
      ],
      "stateMutability": "view",
      "type": "function"
    },
    {
      "inputs": [],
      "name": "owner",
      "outputs": [
        {
          "internalType": "address",
          "name": "",
          "type": "address"
        }
      ],
      "stateMutability": "view",
      "type": "function"
    },
    {
      "inputs": [
        {
          "internalType": "address",
          "name": "account",
          "type": "address"
        }
      ],
      "name": "addOperator",
      "outputs": [],
      "stateMutability": "nonpayable",
      "type": "function"
    },
    {
      "inputs": [
        {
          "internalType": "address",
          "name": "account",
          "type": "address"
        }
      ],
      "name": "removeOperator",
      "outputs": [],
      "stateMutability": "nonpayable",
      "type": "function"
    },
    {
      "inputs": [
        {
          "internalType": "address",
          "name": "expected",
          "type": "address"
        }
      ],
      "name": "transferOwnership",
      "outputs": [],
      "stateMutability": "nonpayable",
      "type": "function"
    },
    {
      "inputs": [
        {
          "internalType": "address",
          "name": "account",
          "type": "address"
        }
      ],
      "name": "isOperator",
      "outputs": [
        {
          "internalType": "bool",
          "name": "",
          "type": "bool"
        }
      ],
      "stateMutability": "view",
      "type": "function"
    }
  ],
  "bytecode": "0x608060405234801561001057600080fd5b506000805460405133926001600160a01b03909216917f8be0079c531659141344cd1fd0a4f28419497f9722a3daafe3b4186f6b6457e091a360008054336001600160a01b03199091168117909155610076906001906100a6602090811b6103e917901c565b60405133907fac6fa858e9350a46cec16539926e0fde25b7629f84b5a72bffaae4df888ae86d90600090a26101ac565b6100b0828261012b565b15610106576040517f08c379a000000000000000000000000000000000000000000000000000000000815260040180806020018281038252602381526020018061093b6023913960400191505060405180910390fd5b6001600160a01b0316600090815260209190915260409020805460ff19166001179055565b60006001600160a01b03821661018c576040517f08c379a00000000000000000000000000000000000000000000000000000000081526004018080602001828103825260258152602001806109166025913960400191505060405180910390fd5b506001600160a01b03166000908152602091909152604090205460ff1690565b61075b806101bb6000396000f3fe608060405234801561001057600080fd5b50600436106100625760003560e01c80636d70f7ae146100675780638da5cb5b146100a15780638f32d59b146100c55780639870d7fe146100cd578063ac8a584a146100f5578063f2fde38b1461011b575b600080fd5b61008d6004803603602081101561007d57600080fd5b50356001600160a01b0316610141565b604080519115158252519081900360200190f35b6100a9610154565b604080516001600160a01b039092168252519081900360200190f35b61008d610163565b6100f3600480360360208110156100e357600080fd5b50356001600160a01b0316610174565b005b6100f36004803603602081101561010b57600080fd5b50356001600160a01b0316610243565b6100f36004803603602081101561013157600080fd5b50356001600160a01b031661035a565b600061014e600183610454565b92915050565b6000546001600160a01b031690565b6000546001600160a01b0316331490565b61017c610163565b15156001146101bc5760405162461bcd60e51b81526004018080602001828103825260228152602001806106336022913960400191505060405180910390fd5b6001600160a01b0381166102015760405162461bcd60e51b815260040180806020018281038252602881526020018061060b6028913960400191505060405180910390fd5b61020c6001826103e9565b6040516001600160a01b038216907fac6fa858e9350a46cec16539926e0fde25b7629f84b5a72bffaae4df888ae86d90600090a250565b61024b610163565b151560011461028b5760405162461bcd60e51b81526004018080602001828103825260228152602001806106336022913960400191505060405180910390fd5b6001600160a01b0381166102d05760405162461bcd60e51b815260040180806020018281038252602881526020018061060b6028913960400191505060405180910390fd5b336001600160a01b03821614156103185760405162461bcd60e51b815260040180806020018281038252603d81526020018061067a603d913960400191505060405180910390fd5b6103236001826104bb565b6040516001600160a01b038216907f80c0b871b97b595b16a7741c1b06fed0c6f6f558639f18ccbce50724325dc40d90600090a250565b61036381610522565b61036c81610141565b6103b05761037b6001826103e9565b6040516001600160a01b038216907fac6fa858e9350a46cec16539926e0fde25b7629f84b5a72bffaae4df888ae86d90600090a25b6103bb6001336104bb565b60405133907f80c0b871b97b595b16a7741c1b06fed0c6f6f558639f18ccbce50724325dc40d90600090a250565b6103f38282610454565b1561042f5760405162461bcd60e51b81526004018080602001828103825260238152602001806106dc6023913960400191505060405180910390fd5b6001600160a01b0316600090815260209190915260409020805460ff19166001179055565b60006001600160a01b03821661049b5760405162461bcd60e51b81526004018080602001828103825260258152602001806106b76025913960400191505060405180910390fd5b506001600160a01b03166000908152602091909152604090205460ff1690565b6104c58282610454565b6105005760405162461bcd60e51b81526004018080602001828103825260258152602001806106556025913960400191505060405180910390fd5b6001600160a01b0316600090815260209190915260409020805460ff19169055565b61052a610163565b151560011461056a5760405162461bcd60e51b81526004018080602001828103825260228152602001806106336022913960400191505060405180910390fd5b6001600160a01b0381166105af5760405162461bcd60e51b81526004018080602001828103825260278152602001806106ff6027913960400191505060405180910390fd5b600080546040516001600160a01b03808516939216917f8be0079c531659141344cd1fd0a4f28419497f9722a3daafe3b4186f6b6457e091a3600080546001600160a01b0319166001600160a01b039290921691909117905556fe4f70657261746f72736869703a2074686520616464726573732063616e6e6f74206265207a65726f4f776e6572736869703a206f6e6c7920746865206f776e65722063616e2063616c6c526f6c65733a20746865206163636f756e7420646f6573206e6f74206861766520726f6c654f70657261746f72736869703a20746865206f776e65722063616e6e6f742062652072656d6f7665642066726f6d206f70657261746f722067726f7570526f6c65733a20746865206163636f756e742063616e6e6f7420626520746865207a65726f526f6c65733a20746865206163636f756e7420616c72656164792068617320726f6c654f776e6572736869703a206e6577206f776e65722063616e6e6f7420626520746865207a65726fa26469706673582212200d104bcfbb7a2fbd0eed9062d03b552fd5caea9ae0eabde60d3cf9bf21d64b8864736f6c63430007000033526f6c65733a20746865206163636f756e742063616e6e6f7420626520746865207a65726f526f6c65733a20746865206163636f756e7420616c72656164792068617320726f6c65",
  "immutableReferences": {},
  "source": "// SPDX-License-Identifier: MIT\npragma solidity >=0.6.0;\n\nimport \"./Ownership.sol\";\nimport \"../libs/Roles.sol\";\n\n/// @title Operatorship\n/// @dev 운영자 (Operator) 리스트 관리 및 운영자 여부 확인\n/// @author jhhong\ncontract Operatorship is Ownership {\n    using Roles for Roles.Role;\n\n    Roles.Role private _operators; // operator 정보 저장을 위한 변수 (Roles.Role)\n\n    // 이벤트 선언\n    event OperatorAdded(address indexed account);\n    event OperatorRemoved(address indexed account);\n\n    /// @notice 운영자만 접근할 수 있음을 명시한다.\n    modifier onlyOperator() {\n        require(isOperator(msg.sender), \"Operatorship: only the operator can call\");\n        _;\n    }\n\n    /// @notice 컨트랙트 생성자이다.\n    constructor() {\n        _operators.add(msg.sender);\n        emit OperatorAdded(msg.sender);\n    }\n\n    /// @notice 운영자를 추가한다.\n    /// @dev 오너에 의해서만 호출 가능\n    /// @param account 추가할 운영자 계정\n    function addOperator(address account) public onlyOwner {\n        require(account != address(0), \"Operatorship: the address cannot be zero\");\n        _operators.add(account);\n        emit OperatorAdded(account);\n    }\n\n    /// @notice 운영자를 삭제한다.\n    /// @dev 소유자에 의해서만 호출 가능\n    /// @param account 삭제할 운영자 계정\n    function removeOperator(address account) public onlyOwner {\n        require(account != address(0), \"Operatorship: the address cannot be zero\");\n        require(msg.sender != account, \"Operatorship: the owner cannot be removed from operator group\");\n        _operators.remove(account);\n        emit OperatorRemoved(account);\n    }\n\n    /// @notice 소유권을 넘겨준다.\n    /// @dev 새 오너에게 관리자 권한 부여하고, 기존 오너에게서 관리자 권한 해제해야 한다.\n    /// @param expected 새로운 오너 계정\n    function transferOwnership(address expected) public override {\n        super.transferOwnership(expected);\n        if(isOperator(expected) == false) {\n            _operators.add(expected);\n            emit OperatorAdded(expected);\n        }\n        _operators.remove(msg.sender);\n        emit OperatorRemoved(msg.sender);\n    }\n\n    /// @notice 운영자인지 확인한다.\n    /// @param account 확인할 계정\n    /// @return 확인 결과 (boolean)\n    function isOperator(address account) public view returns (bool) {\n        return _operators.has(account);\n    }\n}",
  "sourcePath": "/home/jhhong/work/temp/dkargo-scm/dkargo-scm/contracts/authority/Operatorship.sol",
  "compiler": {
    "name": "solc",
    "version": "0.7.0+commit.9e61f92b.Emscripten.clang"
  },
  "schemaVersion": "3.2.3",
  "updatedAt": "2020-08-11T09:28:47.319Z",
  "devdoc": {
    "author": "jhhong",
    "details": "운영자 (Operator) 리스트 관리 및 운영자 여부 확인",
    "kind": "dev",
    "methods": {
      "addOperator(address)": {
        "details": "오너에 의해서만 호출 가능",
        "params": {
          "account": "추가할 운영자 계정"
        }
      },
      "isOperator(address)": {
        "params": {
          "account": "확인할 계정"
        },
        "returns": {
          "_0": "확인 결과 (boolean)"
        }
      },
      "isOwner()": {
        "returns": {
          "_0": "확인 결과 (boolean)"
        }
      },
      "owner()": {
        "returns": {
          "_0": "오너 주소"
        }
      },
      "removeOperator(address)": {
        "details": "소유자에 의해서만 호출 가능",
        "params": {
          "account": "삭제할 운영자 계정"
        }
      },
      "transferOwnership(address)": {
        "details": "새 오너에게 관리자 권한 부여하고, 기존 오너에게서 관리자 권한 해제해야 한다.",
        "params": {
          "expected": "새로운 오너 계정"
        }
      }
    },
    "title": "Operatorship",
    "version": 1
  },
  "userdoc": {
    "kind": "user",
    "methods": {
      "addOperator(address)": {
        "notice": "운영자를 추가한다."
      },
      "constructor": {
        "notice": "컨트랙트 생성자이다."
      },
      "isOperator(address)": {
        "notice": "운영자인지 확인한다."
      },
      "isOwner()": {
        "notice": "소유자인지 확인한다."
      },
      "owner()": {
        "notice": "오너 주소를 반환한다."
      },
      "removeOperator(address)": {
        "notice": "운영자를 삭제한다."
      },
      "transferOwnership(address)": {
        "notice": "소유권을 넘겨준다."
      }
    },
    "version": 1
  }
}