{
  "contractName": "Ownership",
  "abi": [
    {
      "inputs": [],
      "stateMutability": "nonpayable",
      "type": "constructor"
    },
    {
      "anonymous": false,
      "inputs": [
        {
          "indexed": true,
          "internalType": "address",
          "name": "old",
          "type": "address"
        },
        {
          "indexed": true,
          "internalType": "address",
          "name": "expected",
          "type": "address"
        }
      ],
      "name": "OwnershipTransferred",
      "type": "event"
    },
    {
      "inputs": [
        {
          "internalType": "address",
          "name": "expected",
          "type": "address"
        }
      ],
      "name": "transferOwnership",
      "outputs": [],
      "stateMutability": "nonpayable",
      "type": "function"
    },
    {
      "inputs": [],
      "name": "owner",
      "outputs": [
        {
          "internalType": "address",
          "name": "",
          "type": "address"
        }
      ],
      "stateMutability": "view",
      "type": "function"
    },
    {
      "inputs": [],
      "name": "isOwner",
      "outputs": [
        {
          "internalType": "bool",
          "name": "",
          "type": "bool"
        }
      ],
      "stateMutability": "view",
      "type": "function"
    }
  ],
  "bytecode": "0x608060405234801561001057600080fd5b506000805460405133926001600160a01b03909216917f8be0079c531659141344cd1fd0a4f28419497f9722a3daafe3b4186f6b6457e091a3600080546001600160a01b031916331790556102358061006a6000396000f3fe608060405234801561001057600080fd5b50600436106100415760003560e01c80638da5cb5b146100465780638f32d59b1461006a578063f2fde38b14610086575b600080fd5b61004e6100ae565b604080516001600160a01b039092168252519081900360200190f35b6100726100bd565b604080519115158252519081900360200190f35b6100ac6004803603602081101561009c57600080fd5b50356001600160a01b03166100ce565b005b6000546001600160a01b031690565b6000546001600160a01b0316331490565b6100d66100bd565b15156001146101165760405162461bcd60e51b81526004018080602001828103825260228152602001806101b76022913960400191505060405180910390fd5b6001600160a01b03811661015b5760405162461bcd60e51b81526004018080602001828103825260278152602001806101d96027913960400191505060405180910390fd5b600080546040516001600160a01b03808516939216917f8be0079c531659141344cd1fd0a4f28419497f9722a3daafe3b4186f6b6457e091a3600080546001600160a01b0319166001600160a01b039290921691909117905556fe4f776e6572736869703a206f6e6c7920746865206f776e65722063616e2063616c6c4f776e6572736869703a206e6577206f776e65722063616e6e6f7420626520746865207a65726fa26469706673582212206ece8d2e64468d3d4e972c243f495acd323a5389fdd10c30d472fe6fa37b950c64736f6c63430007000033",
  "immutableReferences": {},
  "source": "// SPDX-License-Identifier: MIT\npragma solidity >=0.6.0;\n\n/// @title Onwership\n/// @dev 오너 확인 및 소유권 이전 처리\n/// @author jhhong\ncontract Ownership {\n    address private _owner;\n\n    /// @notice 소유권 양도 이벤트\n    /// @param old 기존 소유자 주소\n    /// @param expected 변경될 소유자 주소\n    event OwnershipTransferred(address indexed old, address indexed expected);\n\n    /// @notice 소유자만 접근할 수 있음을 명시한다.\n    modifier onlyOwner() {\n        require(isOwner() == true, \"Ownership: only the owner can call\");\n        _;\n    }\n\n    /// @notice 컨트랙트 생성자이다.\n    constructor() {\n        emit OwnershipTransferred(_owner, msg.sender);\n        _owner = msg.sender;\n    }\n\n    /// @notice 소유권을 넘겨준다.\n    /// @param expected 새로운 오너 계정\n    function transferOwnership(address expected) public virtual onlyOwner {\n        require(expected != address(0), \"Ownership: new owner cannot be the zero\");\n        emit OwnershipTransferred(_owner, expected);\n        _owner = expected;\n    }\n\n    /// @notice 오너 주소를 반환한다.\n    /// @return 오너 주소\n    function owner() public view returns (address) {\n        return _owner;\n    }\n\n    /// @notice 소유자인지 확인한다.\n    /// @return 확인 결과 (boolean)\n    function isOwner() public view returns (bool) {\n        return msg.sender == _owner;\n    }\n}",
  "sourcePath": "/home/jhhong/work/renewal/dkargo-scm/contracts/authority/Ownership.sol",
  "compiler": {
    "name": "solc",
    "version": "0.7.0+commit.9e61f92b.Emscripten.clang"
  },
  "schemaVersion": "3.2.3",
  "updatedAt": "2020-11-04T09:32:53.917Z",
  "devdoc": {
    "author": "jhhong",
    "details": "오너 확인 및 소유권 이전 처리",
    "events": {
      "OwnershipTransferred(address,address)": {
        "params": {
          "expected": "변경될 소유자 주소",
          "old": "기존 소유자 주소"
        }
      }
    },
    "kind": "dev",
    "methods": {
      "isOwner()": {
        "returns": {
          "_0": "확인 결과 (boolean)"
        }
      },
      "owner()": {
        "returns": {
          "_0": "오너 주소"
        }
      },
      "transferOwnership(address)": {
        "params": {
          "expected": "새로운 오너 계정"
        }
      }
    },
    "title": "Onwership",
    "version": 1
  },
  "userdoc": {
    "events": {
      "OwnershipTransferred(address,address)": {
        "notice": "소유권 양도 이벤트"
      }
    },
    "kind": "user",
    "methods": {
      "constructor": {
        "notice": "컨트랙트 생성자이다."
      },
      "isOwner()": {
        "notice": "소유자인지 확인한다."
      },
      "owner()": {
        "notice": "오너 주소를 반환한다."
      },
      "transferOwnership(address)": {
        "notice": "소유권을 넘겨준다."
      }
    },
    "version": 1
  }
}