{
  "contractName": "Whitelist",
  "abi": [
    {
      "anonymous": false,
      "inputs": [
        {
          "indexed": true,
          "internalType": "address",
          "name": "old",
          "type": "address"
        },
        {
          "indexed": true,
          "internalType": "address",
          "name": "expected",
          "type": "address"
        }
      ],
      "name": "OwnershipTransferred",
      "type": "event"
    },
    {
      "anonymous": false,
      "inputs": [
        {
          "indexed": true,
          "internalType": "address",
          "name": "account",
          "type": "address"
        }
      ],
      "name": "WhitelistAdded",
      "type": "event"
    },
    {
      "anonymous": false,
      "inputs": [
        {
          "indexed": true,
          "internalType": "address",
          "name": "account",
          "type": "address"
        }
      ],
      "name": "WhitelistRemoved",
      "type": "event"
    },
    {
      "inputs": [],
      "name": "isOwner",
      "outputs": [
        {
          "internalType": "bool",
          "name": "",
          "type": "bool"
        }
      ],
      "stateMutability": "view",
      "type": "function"
    },
    {
      "inputs": [],
      "name": "owner",
      "outputs": [
        {
          "internalType": "address",
          "name": "",
          "type": "address"
        }
      ],
      "stateMutability": "view",
      "type": "function"
    },
    {
      "inputs": [
        {
          "internalType": "address",
          "name": "expected",
          "type": "address"
        }
      ],
      "name": "transferOwnership",
      "outputs": [],
      "stateMutability": "nonpayable",
      "type": "function"
    },
    {
      "inputs": [
        {
          "internalType": "address",
          "name": "account",
          "type": "address"
        }
      ],
      "name": "addWhitelist",
      "outputs": [],
      "stateMutability": "nonpayable",
      "type": "function"
    },
    {
      "inputs": [
        {
          "internalType": "address",
          "name": "account",
          "type": "address"
        }
      ],
      "name": "removeWhitelist",
      "outputs": [],
      "stateMutability": "nonpayable",
      "type": "function"
    },
    {
      "inputs": [
        {
          "internalType": "address",
          "name": "account",
          "type": "address"
        }
      ],
      "name": "isWhitelist",
      "outputs": [
        {
          "internalType": "bool",
          "name": "",
          "type": "bool"
        }
      ],
      "stateMutability": "view",
      "type": "function"
    }
  ],
  "bytecode": "0x608060405234801561001057600080fd5b506000805460405133926001600160a01b03909216917f8be0079c531659141344cd1fd0a4f28419497f9722a3daafe3b4186f6b6457e091a3600080546001600160a01b031916331790556105958061006a6000396000f3fe608060405234801561001057600080fd5b50600436106100625760003560e01c806378c8cda7146100675780638da5cb5b1461008f5780638f32d59b146100b3578063c683630d146100cf578063f2fde38b146100f5578063f80f5dd51461011b575b600080fd5b61008d6004803603602081101561007d57600080fd5b50356001600160a01b0316610141565b005b6100976101cb565b604080516001600160a01b039092168252519081900360200190f35b6100bb6101da565b604080519115158252519081900360200190f35b6100bb600480360360208110156100e557600080fd5b50356001600160a01b03166101eb565b61008d6004803603602081101561010b57600080fd5b50356001600160a01b03166101fe565b61008d6004803603602081101561013157600080fd5b50356001600160a01b03166102e6565b6101496101da565b15156001146101895760405162461bcd60e51b81526004018080602001828103825260228152602001806104aa6022913960400191505060405180910390fd5b610194600182610370565b6040516001600160a01b038216907fde8cf212af7ce38b2840785a2768d97ff2dbf3c21b516961cec0061e134c2a1e90600090a250565b6000546001600160a01b031690565b6000546001600160a01b0316331490565b60006101f86001836103d7565b92915050565b6102066101da565b15156001146102465760405162461bcd60e51b81526004018080602001828103825260228152602001806104aa6022913960400191505060405180910390fd5b6001600160a01b03811661028b5760405162461bcd60e51b81526004018080602001828103825260278152602001806105396027913960400191505060405180910390fd5b600080546040516001600160a01b03808516939216917f8be0079c531659141344cd1fd0a4f28419497f9722a3daafe3b4186f6b6457e091a3600080546001600160a01b0319166001600160a01b0392909216919091179055565b6102ee6101da565b151560011461032e5760405162461bcd60e51b81526004018080602001828103825260228152602001806104aa6022913960400191505060405180910390fd5b61033960018261043e565b6040516001600160a01b038216907f4790a4adb426ca2345bb5108f6e454eae852a7bf687544cd66a7270dff3a41d690600090a250565b61037a82826103d7565b6103b55760405162461bcd60e51b81526004018080602001828103825260258152602001806104cc6025913960400191505060405180910390fd5b6001600160a01b0316600090815260209190915260409020805460ff19169055565b60006001600160a01b03821661041e5760405162461bcd60e51b81526004018080602001828103825260258152602001806104f16025913960400191505060405180910390fd5b506001600160a01b03166000908152602091909152604090205460ff1690565b61044882826103d7565b156104845760405162461bcd60e51b81526004018080602001828103825260238152602001806105166023913960400191505060405180910390fd5b6001600160a01b0316600090815260209190915260409020805460ff1916600117905556fe4f776e6572736869703a206f6e6c7920746865206f776e65722063616e2063616c6c526f6c65733a20746865206163636f756e7420646f6573206e6f74206861766520726f6c65526f6c65733a20746865206163636f756e742063616e6e6f7420626520746865207a65726f526f6c65733a20746865206163636f756e7420616c72656164792068617320726f6c654f776e6572736869703a206e6577206f776e65722063616e6e6f7420626520746865207a65726fa2646970667358221220bdd393962aa118090addbffefb58636e14ba5d767c1482a73b2a5bfdffc3297c64736f6c63430007000033",
  "immutableReferences": {},
  "source": "// SPDX-License-Identifier: MIT\npragma solidity >=0.6.0;\n\nimport \"../authority/Ownership.sol\";\nimport \"../libs/Roles.sol\";\n\n/// @title Whitelist\n/// @dev 화이트리스트 컨트랙트 정의\n/// @author jhhong\ncontract Whitelist is Ownership {\n    using Roles for Roles.Role;\n\n    Roles.Role private _whitelist; // whitelist 정보 저장을 위한 변수 (Roles.Role)\n\n    // 이벤트 선언\n    event WhitelistAdded(address indexed account);\n    event WhitelistRemoved(address indexed account);\n\n    /// @notice 화이트리스트 맴버들만 접근할 수 있음을 명시한다.\n    modifier onlyWhitelist() {\n        require(isWhitelist(msg.sender) == true, \"Whitelist: caller is not the Whitelist\");\n        _;\n    }\n\n    /// @notice 화이트리스트 맴버를 추가한다.\n    /// @param account 추가할 운영자 계정\n    function addWhitelist(address account) external onlyOwner {\n        _whitelist.add(account);\n        emit WhitelistAdded(account);\n    }\n\n    /// @notice 화이트리스트 맴버를 삭제한다.\n    /// @param account 삭제할 운영자 계정\n    function removeWhitelist(address account) external onlyOwner {\n        _whitelist.remove(account);\n        emit WhitelistRemoved(account);\n    }\n\n    /// @notice 화이트리스트 맴버인지 확인한다.\n    /// @param account 확인할 계정\n    /// @return 확인 결과 (boolean)\n    function isWhitelist(address account) public view returns (bool) {\n        return _whitelist.has(account);\n    }\n}",
  "sourcePath": "/home/jhhong/work/temp/dkargo-scm/dkargo-scm/contracts/access/Whitelist.sol",
  "compiler": {
    "name": "solc",
    "version": "0.7.0+commit.9e61f92b.Emscripten.clang"
  },
  "schemaVersion": "3.2.3",
  "updatedAt": "2020-08-11T09:28:47.317Z",
  "devdoc": {
    "author": "jhhong",
    "details": "화이트리스트 컨트랙트 정의",
    "kind": "dev",
    "methods": {
      "addWhitelist(address)": {
        "params": {
          "account": "추가할 운영자 계정"
        }
      },
      "isOwner()": {
        "returns": {
          "_0": "확인 결과 (boolean)"
        }
      },
      "isWhitelist(address)": {
        "params": {
          "account": "확인할 계정"
        },
        "returns": {
          "_0": "확인 결과 (boolean)"
        }
      },
      "owner()": {
        "returns": {
          "_0": "오너 주소"
        }
      },
      "removeWhitelist(address)": {
        "params": {
          "account": "삭제할 운영자 계정"
        }
      },
      "transferOwnership(address)": {
        "params": {
          "expected": "새로운 오너 계정"
        }
      }
    },
    "title": "Whitelist",
    "version": 1
  },
  "userdoc": {
    "kind": "user",
    "methods": {
      "addWhitelist(address)": {
        "notice": "화이트리스트 맴버를 추가한다."
      },
      "isOwner()": {
        "notice": "소유자인지 확인한다."
      },
      "isWhitelist(address)": {
        "notice": "화이트리스트 맴버인지 확인한다."
      },
      "owner()": {
        "notice": "오너 주소를 반환한다."
      },
      "removeWhitelist(address)": {
        "notice": "화이트리스트 맴버를 삭제한다."
      },
      "transferOwnership(address)": {
        "notice": "소유권을 넘겨준다."
      }
    },
    "version": 1
  }
}